{
	"contracts/Registry.sol": {
		"Registry": {
			"abi": [
				{
					"inputs": [],
					"stateMutability": "nonpayable",
					"type": "constructor"
				},
				{
					"anonymous": false,
					"inputs": [
						{
							"indexed": true,
							"internalType": "address",
							"name": "member",
							"type": "address"
						}
					],
					"name": "Removed",
					"type": "event"
				},
				{
					"anonymous": false,
					"inputs": [
						{
							"indexed": true,
							"internalType": "bytes32",
							"name": "role",
							"type": "bytes32"
						},
						{
							"indexed": true,
							"internalType": "bytes32",
							"name": "previousAdminRole",
							"type": "bytes32"
						},
						{
							"indexed": true,
							"internalType": "bytes32",
							"name": "newAdminRole",
							"type": "bytes32"
						}
					],
					"name": "RoleAdminChanged",
					"type": "event"
				},
				{
					"anonymous": false,
					"inputs": [
						{
							"indexed": true,
							"internalType": "bytes32",
							"name": "role",
							"type": "bytes32"
						},
						{
							"indexed": true,
							"internalType": "address",
							"name": "account",
							"type": "address"
						},
						{
							"indexed": true,
							"internalType": "address",
							"name": "sender",
							"type": "address"
						}
					],
					"name": "RoleGranted",
					"type": "event"
				},
				{
					"anonymous": false,
					"inputs": [
						{
							"indexed": true,
							"internalType": "bytes32",
							"name": "role",
							"type": "bytes32"
						},
						{
							"indexed": true,
							"internalType": "address",
							"name": "account",
							"type": "address"
						},
						{
							"indexed": true,
							"internalType": "address",
							"name": "sender",
							"type": "address"
						}
					],
					"name": "RoleRevoked",
					"type": "event"
				},
				{
					"anonymous": false,
					"inputs": [
						{
							"indexed": true,
							"internalType": "address",
							"name": "member",
							"type": "address"
						}
					],
					"name": "Whitelisted",
					"type": "event"
				},
				{
					"inputs": [],
					"name": "DEFAULT_ADMIN_ROLE",
					"outputs": [
						{
							"internalType": "bytes32",
							"name": "",
							"type": "bytes32"
						}
					],
					"stateMutability": "view",
					"type": "function"
				},
				{
					"inputs": [
						{
							"internalType": "address",
							"name": "member",
							"type": "address"
						}
					],
					"name": "addToWhitelist",
					"outputs": [],
					"stateMutability": "nonpayable",
					"type": "function"
				},
				{
					"inputs": [
						{
							"internalType": "address[]",
							"name": "members",
							"type": "address[]"
						}
					],
					"name": "areWhitelisted",
					"outputs": [
						{
							"internalType": "bool",
							"name": "",
							"type": "bool"
						}
					],
					"stateMutability": "view",
					"type": "function"
				},
				{
					"inputs": [
						{
							"internalType": "address[]",
							"name": "members",
							"type": "address[]"
						}
					],
					"name": "bulkAddToWhitelist",
					"outputs": [],
					"stateMutability": "nonpayable",
					"type": "function"
				},
				{
					"inputs": [
						{
							"internalType": "address[]",
							"name": "members",
							"type": "address[]"
						}
					],
					"name": "bulkRemoveFromWhitelist",
					"outputs": [],
					"stateMutability": "nonpayable",
					"type": "function"
				},
				{
					"inputs": [
						{
							"internalType": "bytes32",
							"name": "role",
							"type": "bytes32"
						}
					],
					"name": "getRoleAdmin",
					"outputs": [
						{
							"internalType": "bytes32",
							"name": "",
							"type": "bytes32"
						}
					],
					"stateMutability": "view",
					"type": "function"
				},
				{
					"inputs": [
						{
							"internalType": "bytes32",
							"name": "role",
							"type": "bytes32"
						},
						{
							"internalType": "address",
							"name": "account",
							"type": "address"
						}
					],
					"name": "grantRole",
					"outputs": [],
					"stateMutability": "nonpayable",
					"type": "function"
				},
				{
					"inputs": [
						{
							"internalType": "address",
							"name": "account",
							"type": "address"
						}
					],
					"name": "grantRoleAdmin",
					"outputs": [],
					"stateMutability": "nonpayable",
					"type": "function"
				},
				{
					"inputs": [
						{
							"internalType": "bytes32",
							"name": "role",
							"type": "bytes32"
						},
						{
							"internalType": "address",
							"name": "account",
							"type": "address"
						}
					],
					"name": "hasRole",
					"outputs": [
						{
							"internalType": "bool",
							"name": "",
							"type": "bool"
						}
					],
					"stateMutability": "view",
					"type": "function"
				},
				{
					"inputs": [
						{
							"internalType": "address",
							"name": "member",
							"type": "address"
						}
					],
					"name": "isWhitelisted",
					"outputs": [
						{
							"internalType": "bool",
							"name": "",
							"type": "bool"
						}
					],
					"stateMutability": "view",
					"type": "function"
				},
				{
					"inputs": [
						{
							"internalType": "address",
							"name": "member",
							"type": "address"
						}
					],
					"name": "removeFromWhitelist",
					"outputs": [],
					"stateMutability": "nonpayable",
					"type": "function"
				},
				{
					"inputs": [
						{
							"internalType": "bytes32",
							"name": "role",
							"type": "bytes32"
						},
						{
							"internalType": "address",
							"name": "account",
							"type": "address"
						}
					],
					"name": "renounceRole",
					"outputs": [],
					"stateMutability": "nonpayable",
					"type": "function"
				},
				{
					"inputs": [
						{
							"internalType": "bytes32",
							"name": "role",
							"type": "bytes32"
						},
						{
							"internalType": "address",
							"name": "account",
							"type": "address"
						}
					],
					"name": "revokeRole",
					"outputs": [],
					"stateMutability": "nonpayable",
					"type": "function"
				},
				{
					"inputs": [
						{
							"internalType": "bytes4",
							"name": "interfaceId",
							"type": "bytes4"
						}
					],
					"name": "supportsInterface",
					"outputs": [
						{
							"internalType": "bool",
							"name": "",
							"type": "bool"
						}
					],
					"stateMutability": "view",
					"type": "function"
				},
				{
					"inputs": [
						{
							"internalType": "address",
							"name": "",
							"type": "address"
						}
					],
					"name": "whitelist",
					"outputs": [
						{
							"internalType": "bool",
							"name": "",
							"type": "bool"
						}
					],
					"stateMutability": "view",
					"type": "function"
				}
			],
			"devdoc": {
				"author": "thev",
				"events": {
					"RoleAdminChanged(bytes32,bytes32,bytes32)": {
						"details": "Emitted when `newAdminRole` is set as ``role``'s admin role, replacing `previousAdminRole` `DEFAULT_ADMIN_ROLE` is the starting admin for all roles, despite {RoleAdminChanged} not being emitted signaling this. _Available since v3.1._"
					},
					"RoleGranted(bytes32,address,address)": {
						"details": "Emitted when `account` is granted `role`. `sender` is the account that originated the contract call, an admin role bearer except when using {AccessControl-_setupRole}."
					},
					"RoleRevoked(bytes32,address,address)": {
						"details": "Emitted when `account` is revoked `role`. `sender` is the account that originated the contract call:   - if using `revokeRole`, it is the admin role bearer   - if using `renounceRole`, it is the role bearer (i.e. `account`)"
					}
				},
				"kind": "dev",
				"methods": {
					"addToWhitelist(address)": {
						"params": {
							"member": "Address of the member to add."
						}
					},
					"areWhitelisted(address[])": {
						"params": {
							"members": "Array of addresses of the members to check."
						},
						"returns": {
							"_0": "True if all addresses are whitelisted, false otherwise."
						}
					},
					"bulkAddToWhitelist(address[])": {
						"params": {
							"members": "Array of addresses of the members of cohort to add."
						}
					},
					"bulkRemoveFromWhitelist(address[])": {
						"params": {
							"members": "Array of addresses of the members of cohort to remove."
						}
					},
					"getRoleAdmin(bytes32)": {
						"details": "Returns the admin role that controls `role`. See {grantRole} and {revokeRole}. To change a role's admin, use {_setRoleAdmin}."
					},
					"grantRole(bytes32,address)": {
						"details": "Grants `role` to `account`. If `account` had not been already granted `role`, emits a {RoleGranted} event. Requirements: - the caller must have ``role``'s admin role. May emit a {RoleGranted} event."
					},
					"grantRoleAdmin(address)": {
						"details": "Add the address of the relayer contract when relaying and operating a registry"
					},
					"hasRole(bytes32,address)": {
						"details": "Returns `true` if `account` has been granted `role`."
					},
					"isWhitelisted(address)": {
						"details": "this call assumes that you are interested in the current cohort",
						"params": {
							"member": "Address of the member to check."
						},
						"returns": {
							"_0": "True if the address is whitelisted, false otherwise."
						}
					},
					"removeFromWhitelist(address)": {
						"params": {
							"member": "Address of the member to remove."
						}
					},
					"renounceRole(bytes32,address)": {
						"details": "Revokes `role` from the calling account. Roles are often managed via {grantRole} and {revokeRole}: this function's purpose is to provide a mechanism for accounts to lose their privileges if they are compromised (such as when a trusted device is misplaced). If the calling account had been revoked `role`, emits a {RoleRevoked} event. Requirements: - the caller must be `account`. May emit a {RoleRevoked} event."
					},
					"revokeRole(bytes32,address)": {
						"details": "Revokes `role` from `account`. If `account` had been granted `role`, emits a {RoleRevoked} event. Requirements: - the caller must have ``role``'s admin role. May emit a {RoleRevoked} event."
					},
					"supportsInterface(bytes4)": {
						"details": "See {IERC165-supportsInterface}."
					}
				},
				"title": "Registry",
				"version": 1
			},
			"evm": {
				"assembly": "    /* \"contracts/Registry.sol\":336:3106  contract Registry is IRegistry, AccessControl {... */\n  mstore(0x40, 0x80)\n    /* \"contracts/Registry.sol\":519:586  constructor() {... */\n  callvalue\n  dup1\n  iszero\n  tag_1\n  jumpi\n  0x00\n  dup1\n  revert\ntag_1:\n  pop\n    /* \"contracts/Registry.sol\":539:581  _grantRole(DEFAULT_ADMIN_ROLE, msg.sender) */\n  tag_4\n    /* \"@openzeppelin/contracts/access/AccessControl.sol\":2072:2076  0x00 */\n  0x00\n    /* \"contracts/Registry.sol\":550:568  DEFAULT_ADMIN_ROLE */\n  dup1\n  shl\n    /* \"contracts/Registry.sol\":570:580  msg.sender */\n  caller\n    /* \"contracts/Registry.sol\":539:549  _grantRole */\n  shl(0x20, tag_5)\n    /* \"contracts/Registry.sol\":539:581  _grantRole(DEFAULT_ADMIN_ROLE, msg.sender) */\n  0x20\n  shr\n  jump\t// in\ntag_4:\n    /* \"contracts/Registry.sol\":336:3106  contract Registry is IRegistry, AccessControl {... */\n  jump(tag_6)\n    /* \"@openzeppelin/contracts/access/AccessControl.sol\":7461:7694  function _grantRole(bytes32 role, address account) internal virtual {... */\ntag_5:\n    /* \"@openzeppelin/contracts/access/AccessControl.sol\":7544:7566  hasRole(role, account) */\n  tag_8\n    /* \"@openzeppelin/contracts/access/AccessControl.sol\":7552:7556  role */\n  dup3\n    /* \"@openzeppelin/contracts/access/AccessControl.sol\":7558:7565  account */\n  dup3\n    /* \"@openzeppelin/contracts/access/AccessControl.sol\":7544:7551  hasRole */\n  shl(0x20, tag_9)\n    /* \"@openzeppelin/contracts/access/AccessControl.sol\":7544:7566  hasRole(role, account) */\n  0x20\n  shr\n  jump\t// in\ntag_8:\n    /* \"@openzeppelin/contracts/access/AccessControl.sol\":7539:7688  if (!hasRole(role, account)) {... */\n  tag_10\n  jumpi\n    /* \"@openzeppelin/contracts/access/AccessControl.sol\":7614:7618  true */\n  0x01\n    /* \"@openzeppelin/contracts/access/AccessControl.sol\":7582:7588  _roles */\n  0x00\n    /* \"@openzeppelin/contracts/access/AccessControl.sol\":7582:7594  _roles[role] */\n  dup1\n    /* \"@openzeppelin/contracts/access/AccessControl.sol\":7589:7593  role */\n  dup5\n    /* \"@openzeppelin/contracts/access/AccessControl.sol\":7582:7594  _roles[role] */\n  dup2\n  mstore\n  0x20\n  add\n  swap1\n  dup2\n  mstore\n  0x20\n  add\n  0x00\n  keccak256\n    /* \"@openzeppelin/contracts/access/AccessControl.sol\":7582:7602  _roles[role].members */\n  0x00\n  add\n    /* \"@openzeppelin/contracts/access/AccessControl.sol\":7582:7611  _roles[role].members[account] */\n  0x00\n    /* \"@openzeppelin/contracts/access/AccessControl.sol\":7603:7610  account */\n  dup4\n    /* \"@openzeppelin/contracts/access/AccessControl.sol\":7582:7611  _roles[role].members[account] */\n  0xffffffffffffffffffffffffffffffffffffffff\n  and\n  0xffffffffffffffffffffffffffffffffffffffff\n  and\n  dup2\n  mstore\n  0x20\n  add\n  swap1\n  dup2\n  mstore\n  0x20\n  add\n  0x00\n  keccak256\n  0x00\n    /* \"@openzeppelin/contracts/access/AccessControl.sol\":7582:7618  _roles[role].members[account] = true */\n  0x0100\n  exp\n  dup2\n  sload\n  dup2\n  0xff\n  mul\n  not\n  and\n  swap1\n  dup4\n  iszero\n  iszero\n  mul\n  or\n  swap1\n  sstore\n  pop\n    /* \"@openzeppelin/contracts/access/AccessControl.sol\":7664:7676  _msgSender() */\n  tag_11\n    /* \"@openzeppelin/contracts/access/AccessControl.sol\":7664:7674  _msgSender */\n  shl(0x20, tag_12)\n    /* \"@openzeppelin/contracts/access/AccessControl.sol\":7664:7676  _msgSender() */\n  0x20\n  shr\n  jump\t// in\ntag_11:\n    /* \"@openzeppelin/contracts/access/AccessControl.sol\":7637:7677  RoleGranted(role, account, _msgSender()) */\n  0xffffffffffffffffffffffffffffffffffffffff\n  and\n    /* \"@openzeppelin/contracts/access/AccessControl.sol\":7655:7662  account */\n  dup2\n    /* \"@openzeppelin/contracts/access/AccessControl.sol\":7637:7677  RoleGranted(role, account, _msgSender()) */\n  0xffffffffffffffffffffffffffffffffffffffff\n  and\n    /* \"@openzeppelin/contracts/access/AccessControl.sol\":7649:7653  role */\n  dup4\n    /* \"@openzeppelin/contracts/access/AccessControl.sol\":7637:7677  RoleGranted(role, account, _msgSender()) */\n  0x2f8788117e7eff1d82e926ec794901d17c78024a50270940304540a733656f0d\n  mload(0x40)\n  mload(0x40)\n  dup1\n  swap2\n  sub\n  swap1\n  log4\n    /* \"@openzeppelin/contracts/access/AccessControl.sol\":7539:7688  if (!hasRole(role, account)) {... */\ntag_10:\n    /* \"@openzeppelin/contracts/access/AccessControl.sol\":7461:7694  function _grantRole(bytes32 role, address account) internal virtual {... */\n  pop\n  pop\n  jump\t// out\n    /* \"@openzeppelin/contracts/access/AccessControl.sol\":2895:3040  function hasRole(bytes32 role, address account) public view virtual override returns (bool) {... */\ntag_9:\n    /* \"@openzeppelin/contracts/access/AccessControl.sol\":2981:2985  bool */\n  0x00\n    /* \"@openzeppelin/contracts/access/AccessControl.sol\":3004:3010  _roles */\n  dup1\n    /* \"@openzeppelin/contracts/access/AccessControl.sol\":3004:3016  _roles[role] */\n  0x00\n    /* \"@openzeppelin/contracts/access/AccessControl.sol\":3011:3015  role */\n  dup5\n    /* \"@openzeppelin/contracts/access/AccessControl.sol\":3004:3016  _roles[role] */\n  dup2\n  mstore\n  0x20\n  add\n  swap1\n  dup2\n  mstore\n  0x20\n  add\n  0x00\n  keccak256\n    /* \"@openzeppelin/contracts/access/AccessControl.sol\":3004:3024  _roles[role].members */\n  0x00\n  add\n    /* \"@openzeppelin/contracts/access/AccessControl.sol\":3004:3033  _roles[role].members[account] */\n  0x00\n    /* \"@openzeppelin/contracts/access/AccessControl.sol\":3025:3032  account */\n  dup4\n    /* \"@openzeppelin/contracts/access/AccessControl.sol\":3004:3033  _roles[role].members[account] */\n  0xffffffffffffffffffffffffffffffffffffffff\n  and\n  0xffffffffffffffffffffffffffffffffffffffff\n  and\n  dup2\n  mstore\n  0x20\n  add\n  swap1\n  dup2\n  mstore\n  0x20\n  add\n  0x00\n  keccak256\n  0x00\n  swap1\n  sload\n  swap1\n  0x0100\n  exp\n  swap1\n  div\n  0xff\n  and\n    /* \"@openzeppelin/contracts/access/AccessControl.sol\":2997:3033  return _roles[role].members[account] */\n  swap1\n  pop\n    /* \"@openzeppelin/contracts/access/AccessControl.sol\":2895:3040  function hasRole(bytes32 role, address account) public view virtual override returns (bool) {... */\n  swap3\n  swap2\n  pop\n  pop\n  jump\t// out\n    /* \"@openzeppelin/contracts/utils/Context.sol\":640:736  function _msgSender() internal view virtual returns (address) {... */\ntag_12:\n    /* \"@openzeppelin/contracts/utils/Context.sol\":693:700  address */\n  0x00\n    /* \"@openzeppelin/contracts/utils/Context.sol\":719:729  msg.sender */\n  caller\n    /* \"@openzeppelin/contracts/utils/Context.sol\":712:729  return msg.sender */\n  swap1\n  pop\n    /* \"@openzeppelin/contracts/utils/Context.sol\":640:736  function _msgSender() internal view virtual returns (address) {... */\n  swap1\n  jump\t// out\n    /* \"contracts/Registry.sol\":336:3106  contract Registry is IRegistry, AccessControl {... */\ntag_6:\n  dataSize(sub_0)\n  dup1\n  dataOffset(sub_0)\n  0x00\n  codecopy\n  0x00\n  return\nstop\n\nsub_0: assembly {\n        /* \"contracts/Registry.sol\":336:3106  contract Registry is IRegistry, AccessControl {... */\n      mstore(0x40, 0x80)\n      callvalue\n      dup1\n      iszero\n      tag_1\n      jumpi\n      0x00\n      dup1\n      revert\n    tag_1:\n      pop\n      jumpi(tag_2, lt(calldatasize, 0x04))\n      shr(0xe0, calldataload(0x00))\n      dup1\n      0x6c79af10\n      gt\n      tag_18\n      jumpi\n      dup1\n      0xa217fddf\n      gt\n      tag_19\n      jumpi\n      dup1\n      0xa217fddf\n      eq\n      tag_14\n      jumpi\n      dup1\n      0xab4bca64\n      eq\n      tag_15\n      jumpi\n      dup1\n      0xd547741f\n      eq\n      tag_16\n      jumpi\n      dup1\n      0xe43252d7\n      eq\n      tag_17\n      jumpi\n      jump(tag_2)\n    tag_19:\n      dup1\n      0x6c79af10\n      eq\n      tag_10\n      jumpi\n      dup1\n      0x8ab1d681\n      eq\n      tag_11\n      jumpi\n      dup1\n      0x91d14854\n      eq\n      tag_12\n      jumpi\n      dup1\n      0x9b19251a\n      eq\n      tag_13\n      jumpi\n      jump(tag_2)\n    tag_18:\n      dup1\n      0x248a9ca3\n      gt\n      tag_20\n      jumpi\n      dup1\n      0x248a9ca3\n      eq\n      tag_6\n      jumpi\n      dup1\n      0x2f2ff15d\n      eq\n      tag_7\n      jumpi\n      dup1\n      0x36568abe\n      eq\n      tag_8\n      jumpi\n      dup1\n      0x3af32abf\n      eq\n      tag_9\n      jumpi\n      jump(tag_2)\n    tag_20:\n      dup1\n      0x01ffc9a7\n      eq\n      tag_3\n      jumpi\n      dup1\n      0x0a84246d\n      eq\n      tag_4\n      jumpi\n      dup1\n      0x1c84bfc2\n      eq\n      tag_5\n      jumpi\n    tag_2:\n      0x00\n      dup1\n      revert\n        /* \"@openzeppelin/contracts/access/AccessControl.sol\":2606:2808  function supportsInterface(bytes4 interfaceId) public view virtual override returns (bool) {... */\n    tag_3:\n      tag_21\n      0x04\n      dup1\n      calldatasize\n      sub\n      dup2\n      add\n      swap1\n      tag_22\n      swap2\n      swap1\n      tag_23\n      jump\t// in\n    tag_22:\n      tag_24\n      jump\t// in\n    tag_21:\n      mload(0x40)\n      tag_25\n      swap2\n      swap1\n      tag_26\n      jump\t// in\n    tag_25:\n      mload(0x40)\n      dup1\n      swap2\n      sub\n      swap1\n      return\n        /* \"contracts/Registry.sol\":2975:3104  function grantRoleAdmin(address account) external onlyRole(DEFAULT_ADMIN_ROLE) {... */\n    tag_4:\n      tag_27\n      0x04\n      dup1\n      calldatasize\n      sub\n      dup2\n      add\n      swap1\n      tag_28\n      swap2\n      swap1\n      tag_29\n      jump\t// in\n    tag_28:\n      tag_30\n      jump\t// in\n    tag_27:\n      stop\n        /* \"contracts/Registry.sol\":2605:2817  function areWhitelisted(address[] calldata members) external view returns (bool) {... */\n    tag_5:\n      tag_31\n      0x04\n      dup1\n      calldatasize\n      sub\n      dup2\n      add\n      swap1\n      tag_32\n      swap2\n      swap1\n      tag_33\n      jump\t// in\n    tag_32:\n      tag_34\n      jump\t// in\n    tag_31:\n      mload(0x40)\n      tag_35\n      swap2\n      swap1\n      tag_26\n      jump\t// in\n    tag_35:\n      mload(0x40)\n      dup1\n      swap2\n      sub\n      swap1\n      return\n        /* \"@openzeppelin/contracts/access/AccessControl.sol\":4378:4507  function getRoleAdmin(bytes32 role) public view virtual override returns (bytes32) {... */\n    tag_6:\n      tag_36\n      0x04\n      dup1\n      calldatasize\n      sub\n      dup2\n      add\n      swap1\n      tag_37\n      swap2\n      swap1\n      tag_38\n      jump\t// in\n    tag_37:\n      tag_39\n      jump\t// in\n    tag_36:\n      mload(0x40)\n      tag_40\n      swap2\n      swap1\n      tag_41\n      jump\t// in\n    tag_40:\n      mload(0x40)\n      dup1\n      swap2\n      sub\n      swap1\n      return\n        /* \"@openzeppelin/contracts/access/AccessControl.sol\":4803:4948  function grantRole(bytes32 role, address account) public virtual override onlyRole(getRoleAdmin(role)) {... */\n    tag_7:\n      tag_42\n      0x04\n      dup1\n      calldatasize\n      sub\n      dup2\n      add\n      swap1\n      tag_43\n      swap2\n      swap1\n      tag_44\n      jump\t// in\n    tag_43:\n      tag_45\n      jump\t// in\n    tag_42:\n      stop\n        /* \"@openzeppelin/contracts/access/AccessControl.sol\":5912:6126  function renounceRole(bytes32 role, address account) public virtual override {... */\n    tag_8:\n      tag_46\n      0x04\n      dup1\n      calldatasize\n      sub\n      dup2\n      add\n      swap1\n      tag_47\n      swap2\n      swap1\n      tag_44\n      jump\t// in\n    tag_47:\n      tag_48\n      jump\t// in\n    tag_46:\n      stop\n        /* \"contracts/Registry.sol\":2278:2379  function isWhitelisted(address member) public view returns (bool) {... */\n    tag_9:\n      tag_49\n      0x04\n      dup1\n      calldatasize\n      sub\n      dup2\n      add\n      swap1\n      tag_50\n      swap2\n      swap1\n      tag_29\n      jump\t// in\n    tag_50:\n      tag_51\n      jump\t// in\n    tag_49:\n      mload(0x40)\n      tag_52\n      swap2\n      swap1\n      tag_26\n      jump\t// in\n    tag_52:\n      mload(0x40)\n      dup1\n      swap2\n      sub\n      swap1\n      return\n        /* \"contracts/Registry.sol\":739:925  function bulkAddToWhitelist(address[] calldata members) external onlyRole(DEFAULT_ADMIN_ROLE) {... */\n    tag_10:\n      tag_53\n      0x04\n      dup1\n      calldatasize\n      sub\n      dup2\n      add\n      swap1\n      tag_54\n      swap2\n      swap1\n      tag_33\n      jump\t// in\n    tag_54:\n      tag_55\n      jump\t// in\n    tag_53:\n      stop\n        /* \"contracts/Registry.sol\":1770:1888  function removeFromWhitelist(address member) external onlyRole(DEFAULT_ADMIN_ROLE) {... */\n    tag_11:\n      tag_56\n      0x04\n      dup1\n      calldatasize\n      sub\n      dup2\n      add\n      swap1\n      tag_57\n      swap2\n      swap1\n      tag_29\n      jump\t// in\n    tag_57:\n      tag_58\n      jump\t// in\n    tag_56:\n      stop\n        /* \"@openzeppelin/contracts/access/AccessControl.sol\":2895:3040  function hasRole(bytes32 role, address account) public view virtual override returns (bool) {... */\n    tag_12:\n      tag_59\n      0x04\n      dup1\n      calldatasize\n      sub\n      dup2\n      add\n      swap1\n      tag_60\n      swap2\n      swap1\n      tag_44\n      jump\t// in\n    tag_60:\n      tag_61\n      jump\t// in\n    tag_59:\n      mload(0x40)\n      tag_62\n      swap2\n      swap1\n      tag_26\n      jump\t// in\n    tag_62:\n      mload(0x40)\n      dup1\n      swap2\n      sub\n      swap1\n      return\n        /* \"contracts/Registry.sol\":386:427  mapping(address => bool) public whitelist */\n    tag_13:\n      tag_63\n      0x04\n      dup1\n      calldatasize\n      sub\n      dup2\n      add\n      swap1\n      tag_64\n      swap2\n      swap1\n      tag_29\n      jump\t// in\n    tag_64:\n      tag_65\n      jump\t// in\n    tag_63:\n      mload(0x40)\n      tag_66\n      swap2\n      swap1\n      tag_26\n      jump\t// in\n    tag_66:\n      mload(0x40)\n      dup1\n      swap2\n      sub\n      swap1\n      return\n        /* \"@openzeppelin/contracts/access/AccessControl.sol\":2027:2076  bytes32 public constant DEFAULT_ADMIN_ROLE = 0x00 */\n    tag_14:\n      tag_67\n      tag_68\n      jump\t// in\n    tag_67:\n      mload(0x40)\n      tag_69\n      swap2\n      swap1\n      tag_41\n      jump\t// in\n    tag_69:\n      mload(0x40)\n      dup1\n      swap2\n      sub\n      swap1\n      return\n        /* \"contracts/Registry.sol\":1432:1637  function bulkRemoveFromWhitelist(... */\n    tag_15:\n      tag_70\n      0x04\n      dup1\n      calldatasize\n      sub\n      dup2\n      add\n      swap1\n      tag_71\n      swap2\n      swap1\n      tag_33\n      jump\t// in\n    tag_71:\n      tag_72\n      jump\t// in\n    tag_70:\n      stop\n        /* \"@openzeppelin/contracts/access/AccessControl.sol\":5228:5375  function revokeRole(bytes32 role, address account) public virtual override onlyRole(getRoleAdmin(role)) {... */\n    tag_16:\n      tag_73\n      0x04\n      dup1\n      calldatasize\n      sub\n      dup2\n      add\n      swap1\n      tag_74\n      swap2\n      swap1\n      tag_44\n      jump\t// in\n    tag_74:\n      tag_75\n      jump\t// in\n    tag_73:\n      stop\n        /* \"contracts/Registry.sol\":1050:1157  function addToWhitelist(address member) external onlyRole(DEFAULT_ADMIN_ROLE) {... */\n    tag_17:\n      tag_76\n      0x04\n      dup1\n      calldatasize\n      sub\n      dup2\n      add\n      swap1\n      tag_77\n      swap2\n      swap1\n      tag_29\n      jump\t// in\n    tag_77:\n      tag_78\n      jump\t// in\n    tag_76:\n      stop\n        /* \"@openzeppelin/contracts/access/AccessControl.sol\":2606:2808  function supportsInterface(bytes4 interfaceId) public view virtual override returns (bool) {... */\n    tag_24:\n        /* \"@openzeppelin/contracts/access/AccessControl.sol\":2691:2695  bool */\n      0x00\n        /* \"@openzeppelin/contracts/access/AccessControl.sol\":2729:2761  type(IAccessControl).interfaceId */\n      0x7965db0b00000000000000000000000000000000000000000000000000000000\n        /* \"@openzeppelin/contracts/access/AccessControl.sol\":2714:2761  interfaceId == type(IAccessControl).interfaceId */\n      not(0xffffffffffffffffffffffffffffffffffffffffffffffffffffffff)\n      and\n        /* \"@openzeppelin/contracts/access/AccessControl.sol\":2714:2725  interfaceId */\n      dup3\n        /* \"@openzeppelin/contracts/access/AccessControl.sol\":2714:2761  interfaceId == type(IAccessControl).interfaceId */\n      not(0xffffffffffffffffffffffffffffffffffffffffffffffffffffffff)\n      and\n      eq\n        /* \"@openzeppelin/contracts/access/AccessControl.sol\":2714:2801  interfaceId == type(IAccessControl).interfaceId || super.supportsInterface(interfaceId) */\n      dup1\n      tag_80\n      jumpi\n      pop\n        /* \"@openzeppelin/contracts/access/AccessControl.sol\":2765:2801  super.supportsInterface(interfaceId) */\n      tag_81\n        /* \"@openzeppelin/contracts/access/AccessControl.sol\":2789:2800  interfaceId */\n      dup3\n        /* \"@openzeppelin/contracts/access/AccessControl.sol\":2765:2788  super.supportsInterface */\n      tag_82\n        /* \"@openzeppelin/contracts/access/AccessControl.sol\":2765:2801  super.supportsInterface(interfaceId) */\n      jump\t// in\n    tag_81:\n        /* \"@openzeppelin/contracts/access/AccessControl.sol\":2714:2801  interfaceId == type(IAccessControl).interfaceId || super.supportsInterface(interfaceId) */\n    tag_80:\n        /* \"@openzeppelin/contracts/access/AccessControl.sol\":2707:2801  return interfaceId == type(IAccessControl).interfaceId || super.supportsInterface(interfaceId) */\n      swap1\n      pop\n        /* \"@openzeppelin/contracts/access/AccessControl.sol\":2606:2808  function supportsInterface(bytes4 interfaceId) public view virtual override returns (bool) {... */\n      swap2\n      swap1\n      pop\n      jump\t// out\n        /* \"contracts/Registry.sol\":2975:3104  function grantRoleAdmin(address account) external onlyRole(DEFAULT_ADMIN_ROLE) {... */\n    tag_30:\n        /* \"@openzeppelin/contracts/access/AccessControl.sol\":2072:2076  0x00 */\n      0x00\n        /* \"contracts/Registry.sol\":3034:3052  DEFAULT_ADMIN_ROLE */\n      dup1\n      shl\n        /* \"@openzeppelin/contracts/access/AccessControl.sol\":2505:2521  _checkRole(role) */\n      tag_84\n        /* \"@openzeppelin/contracts/access/AccessControl.sol\":2516:2520  role */\n      dup2\n        /* \"@openzeppelin/contracts/access/AccessControl.sol\":2505:2515  _checkRole */\n      tag_85\n        /* \"@openzeppelin/contracts/access/AccessControl.sol\":2505:2521  _checkRole(role) */\n      jump\t// in\n    tag_84:\n        /* \"contracts/Registry.sol\":3060:3099  _grantRole(DEFAULT_ADMIN_ROLE, account) */\n      tag_87\n        /* \"@openzeppelin/contracts/access/AccessControl.sol\":2072:2076  0x00 */\n      0x00\n        /* \"contracts/Registry.sol\":3071:3089  DEFAULT_ADMIN_ROLE */\n      dup1\n      shl\n        /* \"contracts/Registry.sol\":3091:3098  account */\n      dup4\n        /* \"contracts/Registry.sol\":3060:3070  _grantRole */\n      tag_88\n        /* \"contracts/Registry.sol\":3060:3099  _grantRole(DEFAULT_ADMIN_ROLE, account) */\n      jump\t// in\n    tag_87:\n        /* \"contracts/Registry.sol\":2975:3104  function grantRoleAdmin(address account) external onlyRole(DEFAULT_ADMIN_ROLE) {... */\n      pop\n      pop\n      jump\t// out\n        /* \"contracts/Registry.sol\":2605:2817  function areWhitelisted(address[] calldata members) external view returns (bool) {... */\n    tag_34:\n        /* \"contracts/Registry.sol\":2680:2684  bool */\n      0x00\n        /* \"contracts/Registry.sol\":2697:2706  uint256 i */\n      dup1\n        /* \"contracts/Registry.sol\":2709:2710  0 */\n      0x00\n        /* \"contracts/Registry.sol\":2697:2710  uint256 i = 0 */\n      swap1\n      pop\n        /* \"contracts/Registry.sol\":2692:2796  for (uint256 i = 0; i < members.length; ++i) {... */\n    tag_90:\n        /* \"contracts/Registry.sol\":2716:2723  members */\n      dup4\n      dup4\n        /* \"contracts/Registry.sol\":2716:2730  members.length */\n      swap1\n      pop\n        /* \"contracts/Registry.sol\":2712:2713  i */\n      dup2\n        /* \"contracts/Registry.sol\":2712:2730  i < members.length */\n      lt\n        /* \"contracts/Registry.sol\":2692:2796  for (uint256 i = 0; i < members.length; ++i) {... */\n      iszero\n      tag_91\n      jumpi\n        /* \"contracts/Registry.sol\":2750:2775  isWhitelisted(members[i]) */\n      tag_93\n        /* \"contracts/Registry.sol\":2764:2771  members */\n      dup5\n      dup5\n        /* \"contracts/Registry.sol\":2772:2773  i */\n      dup4\n        /* \"contracts/Registry.sol\":2764:2774  members[i] */\n      dup2\n      dup2\n      lt\n      tag_94\n      jumpi\n      tag_95\n      tag_96\n      jump\t// in\n    tag_95:\n    tag_94:\n      swap1\n      pop\n      0x20\n      mul\n      add\n      0x20\n      dup2\n      add\n      swap1\n      tag_97\n      swap2\n      swap1\n      tag_29\n      jump\t// in\n    tag_97:\n        /* \"contracts/Registry.sol\":2750:2763  isWhitelisted */\n      tag_51\n        /* \"contracts/Registry.sol\":2750:2775  isWhitelisted(members[i]) */\n      jump\t// in\n    tag_93:\n        /* \"contracts/Registry.sol\":2745:2789  if (!isWhitelisted(members[i])) return false */\n      tag_98\n      jumpi\n        /* \"contracts/Registry.sol\":2784:2789  false */\n      0x00\n        /* \"contracts/Registry.sol\":2777:2789  return false */\n      swap2\n      pop\n      pop\n      jump(tag_89)\n        /* \"contracts/Registry.sol\":2745:2789  if (!isWhitelisted(members[i])) return false */\n    tag_98:\n        /* \"contracts/Registry.sol\":2732:2735  ++i */\n      dup1\n      tag_99\n      swap1\n      tag_100\n      jump\t// in\n    tag_99:\n      swap1\n      pop\n        /* \"contracts/Registry.sol\":2692:2796  for (uint256 i = 0; i < members.length; ++i) {... */\n      jump(tag_90)\n    tag_91:\n      pop\n        /* \"contracts/Registry.sol\":2808:2812  true */\n      0x01\n        /* \"contracts/Registry.sol\":2801:2812  return true */\n      swap1\n      pop\n        /* \"contracts/Registry.sol\":2605:2817  function areWhitelisted(address[] calldata members) external view returns (bool) {... */\n    tag_89:\n      swap3\n      swap2\n      pop\n      pop\n      jump\t// out\n        /* \"@openzeppelin/contracts/access/AccessControl.sol\":4378:4507  function getRoleAdmin(bytes32 role) public view virtual override returns (bytes32) {... */\n    tag_39:\n        /* \"@openzeppelin/contracts/access/AccessControl.sol\":4452:4459  bytes32 */\n      0x00\n        /* \"@openzeppelin/contracts/access/AccessControl.sol\":4478:4484  _roles */\n      dup1\n        /* \"@openzeppelin/contracts/access/AccessControl.sol\":4478:4490  _roles[role] */\n      0x00\n        /* \"@openzeppelin/contracts/access/AccessControl.sol\":4485:4489  role */\n      dup4\n        /* \"@openzeppelin/contracts/access/AccessControl.sol\":4478:4490  _roles[role] */\n      dup2\n      mstore\n      0x20\n      add\n      swap1\n      dup2\n      mstore\n      0x20\n      add\n      0x00\n      keccak256\n        /* \"@openzeppelin/contracts/access/AccessControl.sol\":4478:4500  _roles[role].adminRole */\n      0x01\n      add\n      sload\n        /* \"@openzeppelin/contracts/access/AccessControl.sol\":4471:4500  return _roles[role].adminRole */\n      swap1\n      pop\n        /* \"@openzeppelin/contracts/access/AccessControl.sol\":4378:4507  function getRoleAdmin(bytes32 role) public view virtual override returns (bytes32) {... */\n      swap2\n      swap1\n      pop\n      jump\t// out\n        /* \"@openzeppelin/contracts/access/AccessControl.sol\":4803:4948  function grantRole(bytes32 role, address account) public virtual override onlyRole(getRoleAdmin(role)) {... */\n    tag_45:\n        /* \"@openzeppelin/contracts/access/AccessControl.sol\":4886:4904  getRoleAdmin(role) */\n      tag_102\n        /* \"@openzeppelin/contracts/access/AccessControl.sol\":4899:4903  role */\n      dup3\n        /* \"@openzeppelin/contracts/access/AccessControl.sol\":4886:4898  getRoleAdmin */\n      tag_39\n        /* \"@openzeppelin/contracts/access/AccessControl.sol\":4886:4904  getRoleAdmin(role) */\n      jump\t// in\n    tag_102:\n        /* \"@openzeppelin/contracts/access/AccessControl.sol\":2505:2521  _checkRole(role) */\n      tag_104\n        /* \"@openzeppelin/contracts/access/AccessControl.sol\":2516:2520  role */\n      dup2\n        /* \"@openzeppelin/contracts/access/AccessControl.sol\":2505:2515  _checkRole */\n      tag_85\n        /* \"@openzeppelin/contracts/access/AccessControl.sol\":2505:2521  _checkRole(role) */\n      jump\t// in\n    tag_104:\n        /* \"@openzeppelin/contracts/access/AccessControl.sol\":4916:4941  _grantRole(role, account) */\n      tag_106\n        /* \"@openzeppelin/contracts/access/AccessControl.sol\":4927:4931  role */\n      dup4\n        /* \"@openzeppelin/contracts/access/AccessControl.sol\":4933:4940  account */\n      dup4\n        /* \"@openzeppelin/contracts/access/AccessControl.sol\":4916:4926  _grantRole */\n      tag_88\n        /* \"@openzeppelin/contracts/access/AccessControl.sol\":4916:4941  _grantRole(role, account) */\n      jump\t// in\n    tag_106:\n        /* \"@openzeppelin/contracts/access/AccessControl.sol\":4803:4948  function grantRole(bytes32 role, address account) public virtual override onlyRole(getRoleAdmin(role)) {... */\n      pop\n      pop\n      pop\n      jump\t// out\n        /* \"@openzeppelin/contracts/access/AccessControl.sol\":5912:6126  function renounceRole(bytes32 role, address account) public virtual override {... */\n    tag_48:\n        /* \"@openzeppelin/contracts/access/AccessControl.sol\":6018:6030  _msgSender() */\n      tag_108\n        /* \"@openzeppelin/contracts/access/AccessControl.sol\":6018:6028  _msgSender */\n      tag_109\n        /* \"@openzeppelin/contracts/access/AccessControl.sol\":6018:6030  _msgSender() */\n      jump\t// in\n    tag_108:\n        /* \"@openzeppelin/contracts/access/AccessControl.sol\":6007:6030  account == _msgSender() */\n      0xffffffffffffffffffffffffffffffffffffffff\n      and\n        /* \"@openzeppelin/contracts/access/AccessControl.sol\":6007:6014  account */\n      dup2\n        /* \"@openzeppelin/contracts/access/AccessControl.sol\":6007:6030  account == _msgSender() */\n      0xffffffffffffffffffffffffffffffffffffffff\n      and\n      eq\n        /* \"@openzeppelin/contracts/access/AccessControl.sol\":5999:6082  require(account == _msgSender(), \"AccessControl: can only renounce roles for self\") */\n      tag_110\n      jumpi\n      mload(0x40)\n      0x08c379a000000000000000000000000000000000000000000000000000000000\n      dup2\n      mstore\n      0x04\n      add\n      tag_111\n      swap1\n      tag_112\n      jump\t// in\n    tag_111:\n      mload(0x40)\n      dup1\n      swap2\n      sub\n      swap1\n      revert\n    tag_110:\n        /* \"@openzeppelin/contracts/access/AccessControl.sol\":6093:6119  _revokeRole(role, account) */\n      tag_113\n        /* \"@openzeppelin/contracts/access/AccessControl.sol\":6105:6109  role */\n      dup3\n        /* \"@openzeppelin/contracts/access/AccessControl.sol\":6111:6118  account */\n      dup3\n        /* \"@openzeppelin/contracts/access/AccessControl.sol\":6093:6104  _revokeRole */\n      tag_114\n        /* \"@openzeppelin/contracts/access/AccessControl.sol\":6093:6119  _revokeRole(role, account) */\n      jump\t// in\n    tag_113:\n        /* \"@openzeppelin/contracts/access/AccessControl.sol\":5912:6126  function renounceRole(bytes32 role, address account) public virtual override {... */\n      pop\n      pop\n      jump\t// out\n        /* \"contracts/Registry.sol\":2278:2379  function isWhitelisted(address member) public view returns (bool) {... */\n    tag_51:\n        /* \"contracts/Registry.sol\":2338:2342  bool */\n      0x00\n        /* \"contracts/Registry.sol\":2357:2366  whitelist */\n      0x01\n        /* \"contracts/Registry.sol\":2357:2374  whitelist[member] */\n      0x00\n        /* \"contracts/Registry.sol\":2367:2373  member */\n      dup4\n        /* \"contracts/Registry.sol\":2357:2374  whitelist[member] */\n      0xffffffffffffffffffffffffffffffffffffffff\n      and\n      0xffffffffffffffffffffffffffffffffffffffff\n      and\n      dup2\n      mstore\n      0x20\n      add\n      swap1\n      dup2\n      mstore\n      0x20\n      add\n      0x00\n      keccak256\n      0x00\n      swap1\n      sload\n      swap1\n      0x0100\n      exp\n      swap1\n      div\n      0xff\n      and\n        /* \"contracts/Registry.sol\":2350:2374  return whitelist[member] */\n      swap1\n      pop\n        /* \"contracts/Registry.sol\":2278:2379  function isWhitelisted(address member) public view returns (bool) {... */\n      swap2\n      swap1\n      pop\n      jump\t// out\n        /* \"contracts/Registry.sol\":739:925  function bulkAddToWhitelist(address[] calldata members) external onlyRole(DEFAULT_ADMIN_ROLE) {... */\n    tag_55:\n        /* \"@openzeppelin/contracts/access/AccessControl.sol\":2072:2076  0x00 */\n      0x00\n        /* \"contracts/Registry.sol\":813:831  DEFAULT_ADMIN_ROLE */\n      dup1\n      shl\n        /* \"@openzeppelin/contracts/access/AccessControl.sol\":2505:2521  _checkRole(role) */\n      tag_117\n        /* \"@openzeppelin/contracts/access/AccessControl.sol\":2516:2520  role */\n      dup2\n        /* \"@openzeppelin/contracts/access/AccessControl.sol\":2505:2515  _checkRole */\n      tag_85\n        /* \"@openzeppelin/contracts/access/AccessControl.sol\":2505:2521  _checkRole(role) */\n      jump\t// in\n    tag_117:\n        /* \"contracts/Registry.sol\":844:853  uint256 i */\n      0x00\n        /* \"contracts/Registry.sol\":839:921  for (uint256 i = 0; i < members.length; i++) {... */\n    tag_119:\n        /* \"contracts/Registry.sol\":863:870  members */\n      dup4\n      dup4\n        /* \"contracts/Registry.sol\":863:877  members.length */\n      swap1\n      pop\n        /* \"contracts/Registry.sol\":859:860  i */\n      dup2\n        /* \"contracts/Registry.sol\":859:877  i < members.length */\n      lt\n        /* \"contracts/Registry.sol\":839:921  for (uint256 i = 0; i < members.length; i++) {... */\n      iszero\n      tag_120\n      jumpi\n        /* \"contracts/Registry.sol\":892:914  _whitelist(members[i]) */\n      tag_122\n        /* \"contracts/Registry.sol\":903:910  members */\n      dup5\n      dup5\n        /* \"contracts/Registry.sol\":911:912  i */\n      dup4\n        /* \"contracts/Registry.sol\":903:913  members[i] */\n      dup2\n      dup2\n      lt\n      tag_123\n      jumpi\n      tag_124\n      tag_96\n      jump\t// in\n    tag_124:\n    tag_123:\n      swap1\n      pop\n      0x20\n      mul\n      add\n      0x20\n      dup2\n      add\n      swap1\n      tag_125\n      swap2\n      swap1\n      tag_29\n      jump\t// in\n    tag_125:\n        /* \"contracts/Registry.sol\":892:902  _whitelist */\n      tag_126\n        /* \"contracts/Registry.sol\":892:914  _whitelist(members[i]) */\n      jump\t// in\n    tag_122:\n        /* \"contracts/Registry.sol\":879:882  i++ */\n      dup1\n      dup1\n      tag_127\n      swap1\n      tag_100\n      jump\t// in\n    tag_127:\n      swap2\n      pop\n      pop\n        /* \"contracts/Registry.sol\":839:921  for (uint256 i = 0; i < members.length; i++) {... */\n      jump(tag_119)\n    tag_120:\n      pop\n        /* \"contracts/Registry.sol\":739:925  function bulkAddToWhitelist(address[] calldata members) external onlyRole(DEFAULT_ADMIN_ROLE) {... */\n      pop\n      pop\n      pop\n      jump\t// out\n        /* \"contracts/Registry.sol\":1770:1888  function removeFromWhitelist(address member) external onlyRole(DEFAULT_ADMIN_ROLE) {... */\n    tag_58:\n        /* \"@openzeppelin/contracts/access/AccessControl.sol\":2072:2076  0x00 */\n      0x00\n        /* \"contracts/Registry.sol\":1833:1851  DEFAULT_ADMIN_ROLE */\n      dup1\n      shl\n        /* \"@openzeppelin/contracts/access/AccessControl.sol\":2505:2521  _checkRole(role) */\n      tag_129\n        /* \"@openzeppelin/contracts/access/AccessControl.sol\":2516:2520  role */\n      dup2\n        /* \"@openzeppelin/contracts/access/AccessControl.sol\":2505:2515  _checkRole */\n      tag_85\n        /* \"@openzeppelin/contracts/access/AccessControl.sol\":2505:2521  _checkRole(role) */\n      jump\t// in\n    tag_129:\n        /* \"contracts/Registry.sol\":1859:1883  _removeWhitelist(member) */\n      tag_131\n        /* \"contracts/Registry.sol\":1876:1882  member */\n      dup3\n        /* \"contracts/Registry.sol\":1859:1875  _removeWhitelist */\n      tag_132\n        /* \"contracts/Registry.sol\":1859:1883  _removeWhitelist(member) */\n      jump\t// in\n    tag_131:\n        /* \"contracts/Registry.sol\":1770:1888  function removeFromWhitelist(address member) external onlyRole(DEFAULT_ADMIN_ROLE) {... */\n      pop\n      pop\n      jump\t// out\n        /* \"@openzeppelin/contracts/access/AccessControl.sol\":2895:3040  function hasRole(bytes32 role, address account) public view virtual override returns (bool) {... */\n    tag_61:\n        /* \"@openzeppelin/contracts/access/AccessControl.sol\":2981:2985  bool */\n      0x00\n        /* \"@openzeppelin/contracts/access/AccessControl.sol\":3004:3010  _roles */\n      dup1\n        /* \"@openzeppelin/contracts/access/AccessControl.sol\":3004:3016  _roles[role] */\n      0x00\n        /* \"@openzeppelin/contracts/access/AccessControl.sol\":3011:3015  role */\n      dup5\n        /* \"@openzeppelin/contracts/access/AccessControl.sol\":3004:3016  _roles[role] */\n      dup2\n      mstore\n      0x20\n      add\n      swap1\n      dup2\n      mstore\n      0x20\n      add\n      0x00\n      keccak256\n        /* \"@openzeppelin/contracts/access/AccessControl.sol\":3004:3024  _roles[role].members */\n      0x00\n      add\n        /* \"@openzeppelin/contracts/access/AccessControl.sol\":3004:3033  _roles[role].members[account] */\n      0x00\n        /* \"@openzeppelin/contracts/access/AccessControl.sol\":3025:3032  account */\n      dup4\n        /* \"@openzeppelin/contracts/access/AccessControl.sol\":3004:3033  _roles[role].members[account] */\n      0xffffffffffffffffffffffffffffffffffffffff\n      and\n      0xffffffffffffffffffffffffffffffffffffffff\n      and\n      dup2\n      mstore\n      0x20\n      add\n      swap1\n      dup2\n      mstore\n      0x20\n      add\n      0x00\n      keccak256\n      0x00\n      swap1\n      sload\n      swap1\n      0x0100\n      exp\n      swap1\n      div\n      0xff\n      and\n        /* \"@openzeppelin/contracts/access/AccessControl.sol\":2997:3033  return _roles[role].members[account] */\n      swap1\n      pop\n        /* \"@openzeppelin/contracts/access/AccessControl.sol\":2895:3040  function hasRole(bytes32 role, address account) public view virtual override returns (bool) {... */\n      swap3\n      swap2\n      pop\n      pop\n      jump\t// out\n        /* \"contracts/Registry.sol\":386:427  mapping(address => bool) public whitelist */\n    tag_65:\n      mstore(0x20, 0x01)\n      dup1\n      0x00\n      mstore\n      keccak256(0x00, 0x40)\n      0x00\n      swap2\n      pop\n      sload\n      swap1\n      0x0100\n      exp\n      swap1\n      div\n      0xff\n      and\n      dup2\n      jump\t// out\n        /* \"@openzeppelin/contracts/access/AccessControl.sol\":2027:2076  bytes32 public constant DEFAULT_ADMIN_ROLE = 0x00 */\n    tag_68:\n        /* \"@openzeppelin/contracts/access/AccessControl.sol\":2072:2076  0x00 */\n      0x00\n        /* \"@openzeppelin/contracts/access/AccessControl.sol\":2027:2076  bytes32 public constant DEFAULT_ADMIN_ROLE = 0x00 */\n      dup1\n      shl\n      dup2\n      jump\t// out\n        /* \"contracts/Registry.sol\":1432:1637  function bulkRemoveFromWhitelist(... */\n    tag_72:\n        /* \"@openzeppelin/contracts/access/AccessControl.sol\":2072:2076  0x00 */\n      0x00\n        /* \"contracts/Registry.sol\":1519:1537  DEFAULT_ADMIN_ROLE */\n      dup1\n      shl\n        /* \"@openzeppelin/contracts/access/AccessControl.sol\":2505:2521  _checkRole(role) */\n      tag_135\n        /* \"@openzeppelin/contracts/access/AccessControl.sol\":2516:2520  role */\n      dup2\n        /* \"@openzeppelin/contracts/access/AccessControl.sol\":2505:2515  _checkRole */\n      tag_85\n        /* \"@openzeppelin/contracts/access/AccessControl.sol\":2505:2521  _checkRole(role) */\n      jump\t// in\n    tag_135:\n        /* \"contracts/Registry.sol\":1550:1559  uint256 i */\n      0x00\n        /* \"contracts/Registry.sol\":1545:1633  for (uint256 i = 0; i < members.length; i++) {... */\n    tag_137:\n        /* \"contracts/Registry.sol\":1569:1576  members */\n      dup4\n      dup4\n        /* \"contracts/Registry.sol\":1569:1583  members.length */\n      swap1\n      pop\n        /* \"contracts/Registry.sol\":1565:1566  i */\n      dup2\n        /* \"contracts/Registry.sol\":1565:1583  i < members.length */\n      lt\n        /* \"contracts/Registry.sol\":1545:1633  for (uint256 i = 0; i < members.length; i++) {... */\n      iszero\n      tag_138\n      jumpi\n        /* \"contracts/Registry.sol\":1598:1626  _removeWhitelist(members[i]) */\n      tag_140\n        /* \"contracts/Registry.sol\":1615:1622  members */\n      dup5\n      dup5\n        /* \"contracts/Registry.sol\":1623:1624  i */\n      dup4\n        /* \"contracts/Registry.sol\":1615:1625  members[i] */\n      dup2\n      dup2\n      lt\n      tag_141\n      jumpi\n      tag_142\n      tag_96\n      jump\t// in\n    tag_142:\n    tag_141:\n      swap1\n      pop\n      0x20\n      mul\n      add\n      0x20\n      dup2\n      add\n      swap1\n      tag_143\n      swap2\n      swap1\n      tag_29\n      jump\t// in\n    tag_143:\n        /* \"contracts/Registry.sol\":1598:1614  _removeWhitelist */\n      tag_132\n        /* \"contracts/Registry.sol\":1598:1626  _removeWhitelist(members[i]) */\n      jump\t// in\n    tag_140:\n        /* \"contracts/Registry.sol\":1585:1588  i++ */\n      dup1\n      dup1\n      tag_144\n      swap1\n      tag_100\n      jump\t// in\n    tag_144:\n      swap2\n      pop\n      pop\n        /* \"contracts/Registry.sol\":1545:1633  for (uint256 i = 0; i < members.length; i++) {... */\n      jump(tag_137)\n    tag_138:\n      pop\n        /* \"contracts/Registry.sol\":1432:1637  function bulkRemoveFromWhitelist(... */\n      pop\n      pop\n      pop\n      jump\t// out\n        /* \"@openzeppelin/contracts/access/AccessControl.sol\":5228:5375  function revokeRole(bytes32 role, address account) public virtual override onlyRole(getRoleAdmin(role)) {... */\n    tag_75:\n        /* \"@openzeppelin/contracts/access/AccessControl.sol\":5312:5330  getRoleAdmin(role) */\n      tag_145\n        /* \"@openzeppelin/contracts/access/AccessControl.sol\":5325:5329  role */\n      dup3\n        /* \"@openzeppelin/contracts/access/AccessControl.sol\":5312:5324  getRoleAdmin */\n      tag_39\n        /* \"@openzeppelin/contracts/access/AccessControl.sol\":5312:5330  getRoleAdmin(role) */\n      jump\t// in\n    tag_145:\n        /* \"@openzeppelin/contracts/access/AccessControl.sol\":2505:2521  _checkRole(role) */\n      tag_147\n        /* \"@openzeppelin/contracts/access/AccessControl.sol\":2516:2520  role */\n      dup2\n        /* \"@openzeppelin/contracts/access/AccessControl.sol\":2505:2515  _checkRole */\n      tag_85\n        /* \"@openzeppelin/contracts/access/AccessControl.sol\":2505:2521  _checkRole(role) */\n      jump\t// in\n    tag_147:\n        /* \"@openzeppelin/contracts/access/AccessControl.sol\":5342:5368  _revokeRole(role, account) */\n      tag_149\n        /* \"@openzeppelin/contracts/access/AccessControl.sol\":5354:5358  role */\n      dup4\n        /* \"@openzeppelin/contracts/access/AccessControl.sol\":5360:5367  account */\n      dup4\n        /* \"@openzeppelin/contracts/access/AccessControl.sol\":5342:5353  _revokeRole */\n      tag_114\n        /* \"@openzeppelin/contracts/access/AccessControl.sol\":5342:5368  _revokeRole(role, account) */\n      jump\t// in\n    tag_149:\n        /* \"@openzeppelin/contracts/access/AccessControl.sol\":5228:5375  function revokeRole(bytes32 role, address account) public virtual override onlyRole(getRoleAdmin(role)) {... */\n      pop\n      pop\n      pop\n      jump\t// out\n        /* \"contracts/Registry.sol\":1050:1157  function addToWhitelist(address member) external onlyRole(DEFAULT_ADMIN_ROLE) {... */\n    tag_78:\n        /* \"@openzeppelin/contracts/access/AccessControl.sol\":2072:2076  0x00 */\n      0x00\n        /* \"contracts/Registry.sol\":1108:1126  DEFAULT_ADMIN_ROLE */\n      dup1\n      shl\n        /* \"@openzeppelin/contracts/access/AccessControl.sol\":2505:2521  _checkRole(role) */\n      tag_151\n        /* \"@openzeppelin/contracts/access/AccessControl.sol\":2516:2520  role */\n      dup2\n        /* \"@openzeppelin/contracts/access/AccessControl.sol\":2505:2515  _checkRole */\n      tag_85\n        /* \"@openzeppelin/contracts/access/AccessControl.sol\":2505:2521  _checkRole(role) */\n      jump\t// in\n    tag_151:\n        /* \"contracts/Registry.sol\":1134:1152  _whitelist(member) */\n      tag_153\n        /* \"contracts/Registry.sol\":1145:1151  member */\n      dup3\n        /* \"contracts/Registry.sol\":1134:1144  _whitelist */\n      tag_126\n        /* \"contracts/Registry.sol\":1134:1152  _whitelist(member) */\n      jump\t// in\n    tag_153:\n        /* \"contracts/Registry.sol\":1050:1157  function addToWhitelist(address member) external onlyRole(DEFAULT_ADMIN_ROLE) {... */\n      pop\n      pop\n      jump\t// out\n        /* \"@openzeppelin/contracts/utils/introspection/ERC165.sol\":829:984  function supportsInterface(bytes4 interfaceId) public view virtual override returns (bool) {... */\n    tag_82:\n        /* \"@openzeppelin/contracts/utils/introspection/ERC165.sol\":914:918  bool */\n      0x00\n        /* \"@openzeppelin/contracts/utils/introspection/ERC165.sol\":952:977  type(IERC165).interfaceId */\n      0x01ffc9a700000000000000000000000000000000000000000000000000000000\n        /* \"@openzeppelin/contracts/utils/introspection/ERC165.sol\":937:977  interfaceId == type(IERC165).interfaceId */\n      not(0xffffffffffffffffffffffffffffffffffffffffffffffffffffffff)\n      and\n        /* \"@openzeppelin/contracts/utils/introspection/ERC165.sol\":937:948  interfaceId */\n      dup3\n        /* \"@openzeppelin/contracts/utils/introspection/ERC165.sol\":937:977  interfaceId == type(IERC165).interfaceId */\n      not(0xffffffffffffffffffffffffffffffffffffffffffffffffffffffff)\n      and\n      eq\n        /* \"@openzeppelin/contracts/utils/introspection/ERC165.sol\":930:977  return interfaceId == type(IERC165).interfaceId */\n      swap1\n      pop\n        /* \"@openzeppelin/contracts/utils/introspection/ERC165.sol\":829:984  function supportsInterface(bytes4 interfaceId) public view virtual override returns (bool) {... */\n      swap2\n      swap1\n      pop\n      jump\t// out\n        /* \"@openzeppelin/contracts/access/AccessControl.sol\":3334:3437  function _checkRole(bytes32 role) internal view virtual {... */\n    tag_85:\n        /* \"@openzeppelin/contracts/access/AccessControl.sol\":3400:3430  _checkRole(role, _msgSender()) */\n      tag_156\n        /* \"@openzeppelin/contracts/access/AccessControl.sol\":3411:3415  role */\n      dup2\n        /* \"@openzeppelin/contracts/access/AccessControl.sol\":3417:3429  _msgSender() */\n      tag_157\n        /* \"@openzeppelin/contracts/access/AccessControl.sol\":3417:3427  _msgSender */\n      tag_109\n        /* \"@openzeppelin/contracts/access/AccessControl.sol\":3417:3429  _msgSender() */\n      jump\t// in\n    tag_157:\n        /* \"@openzeppelin/contracts/access/AccessControl.sol\":3400:3410  _checkRole */\n      tag_158\n        /* \"@openzeppelin/contracts/access/AccessControl.sol\":3400:3430  _checkRole(role, _msgSender()) */\n      jump\t// in\n    tag_156:\n        /* \"@openzeppelin/contracts/access/AccessControl.sol\":3334:3437  function _checkRole(bytes32 role) internal view virtual {... */\n      pop\n      jump\t// out\n        /* \"@openzeppelin/contracts/access/AccessControl.sol\":7461:7694  function _grantRole(bytes32 role, address account) internal virtual {... */\n    tag_88:\n        /* \"@openzeppelin/contracts/access/AccessControl.sol\":7544:7566  hasRole(role, account) */\n      tag_160\n        /* \"@openzeppelin/contracts/access/AccessControl.sol\":7552:7556  role */\n      dup3\n        /* \"@openzeppelin/contracts/access/AccessControl.sol\":7558:7565  account */\n      dup3\n        /* \"@openzeppelin/contracts/access/AccessControl.sol\":7544:7551  hasRole */\n      tag_61\n        /* \"@openzeppelin/contracts/access/AccessControl.sol\":7544:7566  hasRole(role, account) */\n      jump\t// in\n    tag_160:\n        /* \"@openzeppelin/contracts/access/AccessControl.sol\":7539:7688  if (!hasRole(role, account)) {... */\n      tag_161\n      jumpi\n        /* \"@openzeppelin/contracts/access/AccessControl.sol\":7614:7618  true */\n      0x01\n        /* \"@openzeppelin/contracts/access/AccessControl.sol\":7582:7588  _roles */\n      0x00\n        /* \"@openzeppelin/contracts/access/AccessControl.sol\":7582:7594  _roles[role] */\n      dup1\n        /* \"@openzeppelin/contracts/access/AccessControl.sol\":7589:7593  role */\n      dup5\n        /* \"@openzeppelin/contracts/access/AccessControl.sol\":7582:7594  _roles[role] */\n      dup2\n      mstore\n      0x20\n      add\n      swap1\n      dup2\n      mstore\n      0x20\n      add\n      0x00\n      keccak256\n        /* \"@openzeppelin/contracts/access/AccessControl.sol\":7582:7602  _roles[role].members */\n      0x00\n      add\n        /* \"@openzeppelin/contracts/access/AccessControl.sol\":7582:7611  _roles[role].members[account] */\n      0x00\n        /* \"@openzeppelin/contracts/access/AccessControl.sol\":7603:7610  account */\n      dup4\n        /* \"@openzeppelin/contracts/access/AccessControl.sol\":7582:7611  _roles[role].members[account] */\n      0xffffffffffffffffffffffffffffffffffffffff\n      and\n      0xffffffffffffffffffffffffffffffffffffffff\n      and\n      dup2\n      mstore\n      0x20\n      add\n      swap1\n      dup2\n      mstore\n      0x20\n      add\n      0x00\n      keccak256\n      0x00\n        /* \"@openzeppelin/contracts/access/AccessControl.sol\":7582:7618  _roles[role].members[account] = true */\n      0x0100\n      exp\n      dup2\n      sload\n      dup2\n      0xff\n      mul\n      not\n      and\n      swap1\n      dup4\n      iszero\n      iszero\n      mul\n      or\n      swap1\n      sstore\n      pop\n        /* \"@openzeppelin/contracts/access/AccessControl.sol\":7664:7676  _msgSender() */\n      tag_162\n        /* \"@openzeppelin/contracts/access/AccessControl.sol\":7664:7674  _msgSender */\n      tag_109\n        /* \"@openzeppelin/contracts/access/AccessControl.sol\":7664:7676  _msgSender() */\n      jump\t// in\n    tag_162:\n        /* \"@openzeppelin/contracts/access/AccessControl.sol\":7637:7677  RoleGranted(role, account, _msgSender()) */\n      0xffffffffffffffffffffffffffffffffffffffff\n      and\n        /* \"@openzeppelin/contracts/access/AccessControl.sol\":7655:7662  account */\n      dup2\n        /* \"@openzeppelin/contracts/access/AccessControl.sol\":7637:7677  RoleGranted(role, account, _msgSender()) */\n      0xffffffffffffffffffffffffffffffffffffffff\n      and\n        /* \"@openzeppelin/contracts/access/AccessControl.sol\":7649:7653  role */\n      dup4\n        /* \"@openzeppelin/contracts/access/AccessControl.sol\":7637:7677  RoleGranted(role, account, _msgSender()) */\n      0x2f8788117e7eff1d82e926ec794901d17c78024a50270940304540a733656f0d\n      mload(0x40)\n      mload(0x40)\n      dup1\n      swap2\n      sub\n      swap1\n      log4\n        /* \"@openzeppelin/contracts/access/AccessControl.sol\":7539:7688  if (!hasRole(role, account)) {... */\n    tag_161:\n        /* \"@openzeppelin/contracts/access/AccessControl.sol\":7461:7694  function _grantRole(bytes32 role, address account) internal virtual {... */\n      pop\n      pop\n      jump\t// out\n        /* \"@openzeppelin/contracts/utils/Context.sol\":640:736  function _msgSender() internal view virtual returns (address) {... */\n    tag_109:\n        /* \"@openzeppelin/contracts/utils/Context.sol\":693:700  address */\n      0x00\n        /* \"@openzeppelin/contracts/utils/Context.sol\":719:729  msg.sender */\n      caller\n        /* \"@openzeppelin/contracts/utils/Context.sol\":712:729  return msg.sender */\n      swap1\n      pop\n        /* \"@openzeppelin/contracts/utils/Context.sol\":640:736  function _msgSender() internal view virtual returns (address) {... */\n      swap1\n      jump\t// out\n        /* \"@openzeppelin/contracts/access/AccessControl.sol\":7865:8099  function _revokeRole(bytes32 role, address account) internal virtual {... */\n    tag_114:\n        /* \"@openzeppelin/contracts/access/AccessControl.sol\":7948:7970  hasRole(role, account) */\n      tag_165\n        /* \"@openzeppelin/contracts/access/AccessControl.sol\":7956:7960  role */\n      dup3\n        /* \"@openzeppelin/contracts/access/AccessControl.sol\":7962:7969  account */\n      dup3\n        /* \"@openzeppelin/contracts/access/AccessControl.sol\":7948:7955  hasRole */\n      tag_61\n        /* \"@openzeppelin/contracts/access/AccessControl.sol\":7948:7970  hasRole(role, account) */\n      jump\t// in\n    tag_165:\n        /* \"@openzeppelin/contracts/access/AccessControl.sol\":7944:8093  if (hasRole(role, account)) {... */\n      iszero\n      tag_166\n      jumpi\n        /* \"@openzeppelin/contracts/access/AccessControl.sol\":8018:8023  false */\n      0x00\n        /* \"@openzeppelin/contracts/access/AccessControl.sol\":7986:7992  _roles */\n      dup1\n        /* \"@openzeppelin/contracts/access/AccessControl.sol\":7986:7998  _roles[role] */\n      0x00\n        /* \"@openzeppelin/contracts/access/AccessControl.sol\":7993:7997  role */\n      dup5\n        /* \"@openzeppelin/contracts/access/AccessControl.sol\":7986:7998  _roles[role] */\n      dup2\n      mstore\n      0x20\n      add\n      swap1\n      dup2\n      mstore\n      0x20\n      add\n      0x00\n      keccak256\n        /* \"@openzeppelin/contracts/access/AccessControl.sol\":7986:8006  _roles[role].members */\n      0x00\n      add\n        /* \"@openzeppelin/contracts/access/AccessControl.sol\":7986:8015  _roles[role].members[account] */\n      0x00\n        /* \"@openzeppelin/contracts/access/AccessControl.sol\":8007:8014  account */\n      dup4\n        /* \"@openzeppelin/contracts/access/AccessControl.sol\":7986:8015  _roles[role].members[account] */\n      0xffffffffffffffffffffffffffffffffffffffff\n      and\n      0xffffffffffffffffffffffffffffffffffffffff\n      and\n      dup2\n      mstore\n      0x20\n      add\n      swap1\n      dup2\n      mstore\n      0x20\n      add\n      0x00\n      keccak256\n      0x00\n        /* \"@openzeppelin/contracts/access/AccessControl.sol\":7986:8023  _roles[role].members[account] = false */\n      0x0100\n      exp\n      dup2\n      sload\n      dup2\n      0xff\n      mul\n      not\n      and\n      swap1\n      dup4\n      iszero\n      iszero\n      mul\n      or\n      swap1\n      sstore\n      pop\n        /* \"@openzeppelin/contracts/access/AccessControl.sol\":8069:8081  _msgSender() */\n      tag_167\n        /* \"@openzeppelin/contracts/access/AccessControl.sol\":8069:8079  _msgSender */\n      tag_109\n        /* \"@openzeppelin/contracts/access/AccessControl.sol\":8069:8081  _msgSender() */\n      jump\t// in\n    tag_167:\n        /* \"@openzeppelin/contracts/access/AccessControl.sol\":8042:8082  RoleRevoked(role, account, _msgSender()) */\n      0xffffffffffffffffffffffffffffffffffffffff\n      and\n        /* \"@openzeppelin/contracts/access/AccessControl.sol\":8060:8067  account */\n      dup2\n        /* \"@openzeppelin/contracts/access/AccessControl.sol\":8042:8082  RoleRevoked(role, account, _msgSender()) */\n      0xffffffffffffffffffffffffffffffffffffffff\n      and\n        /* \"@openzeppelin/contracts/access/AccessControl.sol\":8054:8058  role */\n      dup4\n        /* \"@openzeppelin/contracts/access/AccessControl.sol\":8042:8082  RoleRevoked(role, account, _msgSender()) */\n      0xf6391f5c32d9c69d2a47ea670b442974b53935d1edc7fd64eb21e047a839171b\n      mload(0x40)\n      mload(0x40)\n      dup1\n      swap2\n      sub\n      swap1\n      log4\n        /* \"@openzeppelin/contracts/access/AccessControl.sol\":7944:8093  if (hasRole(role, account)) {... */\n    tag_166:\n        /* \"@openzeppelin/contracts/access/AccessControl.sol\":7865:8099  function _revokeRole(bytes32 role, address account) internal virtual {... */\n      pop\n      pop\n      jump\t// out\n        /* \"contracts/Registry.sol\":1161:1271  function _whitelist(address member) internal {... */\n    tag_126:\n        /* \"contracts/Registry.sol\":1232:1236  true */\n      0x01\n        /* \"contracts/Registry.sol\":1212:1221  whitelist */\n      dup1\n        /* \"contracts/Registry.sol\":1212:1229  whitelist[member] */\n      0x00\n        /* \"contracts/Registry.sol\":1222:1228  member */\n      dup4\n        /* \"contracts/Registry.sol\":1212:1229  whitelist[member] */\n      0xffffffffffffffffffffffffffffffffffffffff\n      and\n      0xffffffffffffffffffffffffffffffffffffffff\n      and\n      dup2\n      mstore\n      0x20\n      add\n      swap1\n      dup2\n      mstore\n      0x20\n      add\n      0x00\n      keccak256\n      0x00\n        /* \"contracts/Registry.sol\":1212:1236  whitelist[member] = true */\n      0x0100\n      exp\n      dup2\n      sload\n      dup2\n      0xff\n      mul\n      not\n      and\n      swap1\n      dup4\n      iszero\n      iszero\n      mul\n      or\n      swap1\n      sstore\n      pop\n        /* \"contracts/Registry.sol\":1259:1265  member */\n      dup1\n        /* \"contracts/Registry.sol\":1247:1266  Whitelisted(member) */\n      0xffffffffffffffffffffffffffffffffffffffff\n      and\n      0xaab7954e9d246b167ef88aeddad35209ca2489d95a8aeb59e288d9b19fae5a54\n      mload(0x40)\n      mload(0x40)\n      dup1\n      swap2\n      sub\n      swap1\n      log2\n        /* \"contracts/Registry.sol\":1161:1271  function _whitelist(address member) internal {... */\n      pop\n      jump\t// out\n        /* \"contracts/Registry.sol\":1892:2005  function _removeWhitelist(address member) internal {... */\n    tag_132:\n        /* \"contracts/Registry.sol\":1969:1974  false */\n      0x00\n        /* \"contracts/Registry.sol\":1949:1958  whitelist */\n      0x01\n        /* \"contracts/Registry.sol\":1949:1966  whitelist[member] */\n      0x00\n        /* \"contracts/Registry.sol\":1959:1965  member */\n      dup4\n        /* \"contracts/Registry.sol\":1949:1966  whitelist[member] */\n      0xffffffffffffffffffffffffffffffffffffffff\n      and\n      0xffffffffffffffffffffffffffffffffffffffff\n      and\n      dup2\n      mstore\n      0x20\n      add\n      swap1\n      dup2\n      mstore\n      0x20\n      add\n      0x00\n      keccak256\n      0x00\n        /* \"contracts/Registry.sol\":1949:1974  whitelist[member] = false */\n      0x0100\n      exp\n      dup2\n      sload\n      dup2\n      0xff\n      mul\n      not\n      and\n      swap1\n      dup4\n      iszero\n      iszero\n      mul\n      or\n      swap1\n      sstore\n      pop\n        /* \"contracts/Registry.sol\":1993:1999  member */\n      dup1\n        /* \"contracts/Registry.sol\":1985:2000  Removed(member) */\n      0xffffffffffffffffffffffffffffffffffffffff\n      and\n      0x066a905b79c0121afe61e3a44e0b14b6bc1ec16d854cdba09efdfc9b6aa9af81\n      mload(0x40)\n      mload(0x40)\n      dup1\n      swap2\n      sub\n      swap1\n      log2\n        /* \"contracts/Registry.sol\":1892:2005  function _removeWhitelist(address member) internal {... */\n      pop\n      jump\t// out\n        /* \"@openzeppelin/contracts/access/AccessControl.sol\":3718:4197  function _checkRole(bytes32 role, address account) internal view virtual {... */\n    tag_158:\n        /* \"@openzeppelin/contracts/access/AccessControl.sol\":3806:3828  hasRole(role, account) */\n      tag_171\n        /* \"@openzeppelin/contracts/access/AccessControl.sol\":3814:3818  role */\n      dup3\n        /* \"@openzeppelin/contracts/access/AccessControl.sol\":3820:3827  account */\n      dup3\n        /* \"@openzeppelin/contracts/access/AccessControl.sol\":3806:3813  hasRole */\n      tag_61\n        /* \"@openzeppelin/contracts/access/AccessControl.sol\":3806:3828  hasRole(role, account) */\n      jump\t// in\n    tag_171:\n        /* \"@openzeppelin/contracts/access/AccessControl.sol\":3801:4191  if (!hasRole(role, account)) {... */\n      tag_172\n      jumpi\n        /* \"@openzeppelin/contracts/access/AccessControl.sol\":3989:4017  Strings.toHexString(account) */\n      tag_173\n        /* \"@openzeppelin/contracts/access/AccessControl.sol\":4009:4016  account */\n      dup2\n        /* \"@openzeppelin/contracts/access/AccessControl.sol\":3989:4008  Strings.toHexString */\n      tag_174\n        /* \"@openzeppelin/contracts/access/AccessControl.sol\":3989:4017  Strings.toHexString(account) */\n      jump\t// in\n    tag_173:\n        /* \"@openzeppelin/contracts/access/AccessControl.sol\":4088:4126  Strings.toHexString(uint256(role), 32) */\n      tag_175\n        /* \"@openzeppelin/contracts/access/AccessControl.sol\":4116:4120  role */\n      dup4\n        /* \"@openzeppelin/contracts/access/AccessControl.sol\":4108:4121  uint256(role) */\n      0x00\n      shr\n        /* \"@openzeppelin/contracts/access/AccessControl.sol\":4123:4125  32 */\n      0x20\n        /* \"@openzeppelin/contracts/access/AccessControl.sol\":4088:4107  Strings.toHexString */\n      tag_176\n        /* \"@openzeppelin/contracts/access/AccessControl.sol\":4088:4126  Strings.toHexString(uint256(role), 32) */\n      jump\t// in\n    tag_175:\n        /* \"@openzeppelin/contracts/access/AccessControl.sol\":3896:4148  abi.encodePacked(... */\n      add(0x20, mload(0x40))\n      tag_177\n      swap3\n      swap2\n      swap1\n      tag_178\n      jump\t// in\n    tag_177:\n      mload(0x40)\n      0x20\n      dup2\n      dup4\n      sub\n      sub\n      dup2\n      mstore\n      swap1\n      0x40\n      mstore\n        /* \"@openzeppelin/contracts/access/AccessControl.sol\":3844:4180  revert(... */\n      mload(0x40)\n      0x08c379a000000000000000000000000000000000000000000000000000000000\n      dup2\n      mstore\n      0x04\n      add\n      tag_179\n      swap2\n      swap1\n      tag_180\n      jump\t// in\n    tag_179:\n      mload(0x40)\n      dup1\n      swap2\n      sub\n      swap1\n      revert\n        /* \"@openzeppelin/contracts/access/AccessControl.sol\":3801:4191  if (!hasRole(role, account)) {... */\n    tag_172:\n        /* \"@openzeppelin/contracts/access/AccessControl.sol\":3718:4197  function _checkRole(bytes32 role, address account) internal view virtual {... */\n      pop\n      pop\n      jump\t// out\n        /* \"@openzeppelin/contracts/utils/Strings.sol\":2102:2251  function toHexString(address addr) internal pure returns (string memory) {... */\n    tag_174:\n        /* \"@openzeppelin/contracts/utils/Strings.sol\":2160:2173  string memory */\n      0x60\n        /* \"@openzeppelin/contracts/utils/Strings.sol\":2192:2244  toHexString(uint256(uint160(addr)), _ADDRESS_LENGTH) */\n      tag_182\n        /* \"@openzeppelin/contracts/utils/Strings.sol\":2220:2224  addr */\n      dup3\n        /* \"@openzeppelin/contracts/utils/Strings.sol\":2204:2226  uint256(uint160(addr)) */\n      0xffffffffffffffffffffffffffffffffffffffff\n      and\n        /* \"@openzeppelin/contracts/utils/Strings.sol\":311:313  20 */\n      0x14\n        /* \"@openzeppelin/contracts/utils/Strings.sol\":2192:2244  toHexString(uint256(uint160(addr)), _ADDRESS_LENGTH) */\n      0xff\n      and\n        /* \"@openzeppelin/contracts/utils/Strings.sol\":2192:2203  toHexString */\n      tag_176\n        /* \"@openzeppelin/contracts/utils/Strings.sol\":2192:2244  toHexString(uint256(uint160(addr)), _ADDRESS_LENGTH) */\n      jump\t// in\n    tag_182:\n        /* \"@openzeppelin/contracts/utils/Strings.sol\":2185:2244  return toHexString(uint256(uint160(addr)), _ADDRESS_LENGTH) */\n      swap1\n      pop\n        /* \"@openzeppelin/contracts/utils/Strings.sol\":2102:2251  function toHexString(address addr) internal pure returns (string memory) {... */\n      swap2\n      swap1\n      pop\n      jump\t// out\n        /* \"@openzeppelin/contracts/utils/Strings.sol\":1513:1950  function toHexString(uint256 value, uint256 length) internal pure returns (string memory) {... */\n    tag_176:\n        /* \"@openzeppelin/contracts/utils/Strings.sol\":1588:1601  string memory */\n      0x60\n        /* \"@openzeppelin/contracts/utils/Strings.sol\":1613:1632  bytes memory buffer */\n      0x00\n        /* \"@openzeppelin/contracts/utils/Strings.sol\":1658:1659  2 */\n      0x02\n        /* \"@openzeppelin/contracts/utils/Strings.sol\":1649:1655  length */\n      dup4\n        /* \"@openzeppelin/contracts/utils/Strings.sol\":1645:1646  2 */\n      0x02\n        /* \"@openzeppelin/contracts/utils/Strings.sol\":1645:1655  2 * length */\n      tag_184\n      swap2\n      swap1\n      tag_185\n      jump\t// in\n    tag_184:\n        /* \"@openzeppelin/contracts/utils/Strings.sol\":1645:1659  2 * length + 2 */\n      tag_186\n      swap2\n      swap1\n      tag_187\n      jump\t// in\n    tag_186:\n        /* \"@openzeppelin/contracts/utils/Strings.sol\":1635:1660  new bytes(2 * length + 2) */\n      0xffffffffffffffff\n      dup2\n      gt\n      iszero\n      tag_188\n      jumpi\n      tag_189\n      tag_190\n      jump\t// in\n    tag_189:\n    tag_188:\n      mload(0x40)\n      swap1\n      dup1\n      dup3\n      mstore\n      dup1\n      0x1f\n      add\n      not(0x1f)\n      and\n      0x20\n      add\n      dup3\n      add\n      0x40\n      mstore\n      dup1\n      iszero\n      tag_191\n      jumpi\n      dup2\n      0x20\n      add\n      0x01\n      dup3\n      mul\n      dup1\n      calldatasize\n      dup4\n      calldatacopy\n      dup1\n      dup3\n      add\n      swap2\n      pop\n      pop\n      swap1\n      pop\n    tag_191:\n      pop\n        /* \"@openzeppelin/contracts/utils/Strings.sol\":1613:1660  bytes memory buffer = new bytes(2 * length + 2) */\n      swap1\n      pop\n        /* \"@openzeppelin/contracts/utils/Strings.sol\":1670:1685  buffer[0] = \"0\" */\n      0x3000000000000000000000000000000000000000000000000000000000000000\n        /* \"@openzeppelin/contracts/utils/Strings.sol\":1670:1676  buffer */\n      dup2\n        /* \"@openzeppelin/contracts/utils/Strings.sol\":1677:1678  0 */\n      0x00\n        /* \"@openzeppelin/contracts/utils/Strings.sol\":1670:1679  buffer[0] */\n      dup2\n      mload\n      dup2\n      lt\n      tag_192\n      jumpi\n      tag_193\n      tag_96\n      jump\t// in\n    tag_193:\n    tag_192:\n      0x20\n      add\n      add\n        /* \"@openzeppelin/contracts/utils/Strings.sol\":1670:1685  buffer[0] = \"0\" */\n      swap1\n      not(0xffffffffffffffffffffffffffffffffffffffffffffffffffffffffffffff)\n      and\n      swap1\n      dup2\n      0x00\n      byte\n      swap1\n      mstore8\n      pop\n        /* \"@openzeppelin/contracts/utils/Strings.sol\":1695:1710  buffer[1] = \"x\" */\n      0x7800000000000000000000000000000000000000000000000000000000000000\n        /* \"@openzeppelin/contracts/utils/Strings.sol\":1695:1701  buffer */\n      dup2\n        /* \"@openzeppelin/contracts/utils/Strings.sol\":1702:1703  1 */\n      0x01\n        /* \"@openzeppelin/contracts/utils/Strings.sol\":1695:1704  buffer[1] */\n      dup2\n      mload\n      dup2\n      lt\n      tag_194\n      jumpi\n      tag_195\n      tag_96\n      jump\t// in\n    tag_195:\n    tag_194:\n      0x20\n      add\n      add\n        /* \"@openzeppelin/contracts/utils/Strings.sol\":1695:1710  buffer[1] = \"x\" */\n      swap1\n      not(0xffffffffffffffffffffffffffffffffffffffffffffffffffffffffffffff)\n      and\n      swap1\n      dup2\n      0x00\n      byte\n      swap1\n      mstore8\n      pop\n        /* \"@openzeppelin/contracts/utils/Strings.sol\":1725:1734  uint256 i */\n      0x00\n        /* \"@openzeppelin/contracts/utils/Strings.sol\":1750:1751  1 */\n      0x01\n        /* \"@openzeppelin/contracts/utils/Strings.sol\":1741:1747  length */\n      dup5\n        /* \"@openzeppelin/contracts/utils/Strings.sol\":1737:1738  2 */\n      0x02\n        /* \"@openzeppelin/contracts/utils/Strings.sol\":1737:1747  2 * length */\n      tag_199\n      swap2\n      swap1\n      tag_185\n      jump\t// in\n    tag_199:\n        /* \"@openzeppelin/contracts/utils/Strings.sol\":1737:1751  2 * length + 1 */\n      tag_200\n      swap2\n      swap1\n      tag_187\n      jump\t// in\n    tag_200:\n        /* \"@openzeppelin/contracts/utils/Strings.sol\":1725:1751  uint256 i = 2 * length + 1 */\n      swap1\n      pop\n        /* \"@openzeppelin/contracts/utils/Strings.sol\":1720:1848  for (uint256 i = 2 * length + 1; i > 1; --i) {... */\n    tag_196:\n        /* \"@openzeppelin/contracts/utils/Strings.sol\":1757:1758  1 */\n      0x01\n        /* \"@openzeppelin/contracts/utils/Strings.sol\":1753:1754  i */\n      dup2\n        /* \"@openzeppelin/contracts/utils/Strings.sol\":1753:1758  i > 1 */\n      gt\n        /* \"@openzeppelin/contracts/utils/Strings.sol\":1720:1848  for (uint256 i = 2 * length + 1; i > 1; --i) {... */\n      iszero\n      tag_197\n      jumpi\n        /* \"@openzeppelin/contracts/utils/Strings.sol\":1791:1799  _SYMBOLS */\n      0x3031323334353637383961626364656600000000000000000000000000000000\n        /* \"@openzeppelin/contracts/utils/Strings.sol\":1808:1811  0xf */\n      0x0f\n        /* \"@openzeppelin/contracts/utils/Strings.sol\":1800:1805  value */\n      dup7\n        /* \"@openzeppelin/contracts/utils/Strings.sol\":1800:1811  value & 0xf */\n      and\n        /* \"@openzeppelin/contracts/utils/Strings.sol\":1791:1812  _SYMBOLS[value & 0xf] */\n      0x10\n      dup2\n      lt\n      tag_201\n      jumpi\n      tag_202\n      tag_96\n      jump\t// in\n    tag_202:\n    tag_201:\n      byte\n      0xf8\n      shl\n        /* \"@openzeppelin/contracts/utils/Strings.sol\":1779:1785  buffer */\n      dup3\n        /* \"@openzeppelin/contracts/utils/Strings.sol\":1786:1787  i */\n      dup3\n        /* \"@openzeppelin/contracts/utils/Strings.sol\":1779:1788  buffer[i] */\n      dup2\n      mload\n      dup2\n      lt\n      tag_203\n      jumpi\n      tag_204\n      tag_96\n      jump\t// in\n    tag_204:\n    tag_203:\n      0x20\n      add\n      add\n        /* \"@openzeppelin/contracts/utils/Strings.sol\":1779:1812  buffer[i] = _SYMBOLS[value & 0xf] */\n      swap1\n      not(0xffffffffffffffffffffffffffffffffffffffffffffffffffffffffffffff)\n      and\n      swap1\n      dup2\n      0x00\n      byte\n      swap1\n      mstore8\n      pop\n        /* \"@openzeppelin/contracts/utils/Strings.sol\":1836:1837  4 */\n      0x04\n        /* \"@openzeppelin/contracts/utils/Strings.sol\":1826:1837  value >>= 4 */\n      dup6\n      swap1\n      shr\n      swap5\n      pop\n        /* \"@openzeppelin/contracts/utils/Strings.sol\":1760:1763  --i */\n      dup1\n      tag_205\n      swap1\n      tag_206\n      jump\t// in\n    tag_205:\n      swap1\n      pop\n        /* \"@openzeppelin/contracts/utils/Strings.sol\":1720:1848  for (uint256 i = 2 * length + 1; i > 1; --i) {... */\n      jump(tag_196)\n    tag_197:\n      pop\n        /* \"@openzeppelin/contracts/utils/Strings.sol\":1874:1875  0 */\n      0x00\n        /* \"@openzeppelin/contracts/utils/Strings.sol\":1865:1870  value */\n      dup5\n        /* \"@openzeppelin/contracts/utils/Strings.sol\":1865:1875  value == 0 */\n      eq\n        /* \"@openzeppelin/contracts/utils/Strings.sol\":1857:1912  require(value == 0, \"Strings: hex length insufficient\") */\n      tag_207\n      jumpi\n      mload(0x40)\n      0x08c379a000000000000000000000000000000000000000000000000000000000\n      dup2\n      mstore\n      0x04\n      add\n      tag_208\n      swap1\n      tag_209\n      jump\t// in\n    tag_208:\n      mload(0x40)\n      dup1\n      swap2\n      sub\n      swap1\n      revert\n    tag_207:\n        /* \"@openzeppelin/contracts/utils/Strings.sol\":1936:1942  buffer */\n      dup1\n        /* \"@openzeppelin/contracts/utils/Strings.sol\":1922:1943  return string(buffer) */\n      swap2\n      pop\n      pop\n        /* \"@openzeppelin/contracts/utils/Strings.sol\":1513:1950  function toHexString(uint256 value, uint256 length) internal pure returns (string memory) {... */\n      swap3\n      swap2\n      pop\n      pop\n      jump\t// out\n        /* \"#utility.yul\":88:205   */\n    tag_211:\n        /* \"#utility.yul\":197:198   */\n      0x00\n        /* \"#utility.yul\":194:195   */\n      dup1\n        /* \"#utility.yul\":187:199   */\n      revert\n        /* \"#utility.yul\":211:328   */\n    tag_212:\n        /* \"#utility.yul\":320:321   */\n      0x00\n        /* \"#utility.yul\":317:318   */\n      dup1\n        /* \"#utility.yul\":310:322   */\n      revert\n        /* \"#utility.yul\":334:483   */\n    tag_213:\n        /* \"#utility.yul\":370:377   */\n      0x00\n        /* \"#utility.yul\":410:476   */\n      0xffffffff00000000000000000000000000000000000000000000000000000000\n        /* \"#utility.yul\":403:408   */\n      dup3\n        /* \"#utility.yul\":399:477   */\n      and\n        /* \"#utility.yul\":388:477   */\n      swap1\n      pop\n        /* \"#utility.yul\":334:483   */\n      swap2\n      swap1\n      pop\n      jump\t// out\n        /* \"#utility.yul\":489:609   */\n    tag_214:\n        /* \"#utility.yul\":561:584   */\n      tag_253\n        /* \"#utility.yul\":578:583   */\n      dup2\n        /* \"#utility.yul\":561:584   */\n      tag_213\n      jump\t// in\n    tag_253:\n        /* \"#utility.yul\":554:559   */\n      dup2\n        /* \"#utility.yul\":551:585   */\n      eq\n        /* \"#utility.yul\":541:603   */\n      tag_254\n      jumpi\n        /* \"#utility.yul\":599:600   */\n      0x00\n        /* \"#utility.yul\":596:597   */\n      dup1\n        /* \"#utility.yul\":589:601   */\n      revert\n        /* \"#utility.yul\":541:603   */\n    tag_254:\n        /* \"#utility.yul\":489:609   */\n      pop\n      jump\t// out\n        /* \"#utility.yul\":615:752   */\n    tag_215:\n        /* \"#utility.yul\":660:665   */\n      0x00\n        /* \"#utility.yul\":698:704   */\n      dup2\n        /* \"#utility.yul\":685:705   */\n      calldataload\n        /* \"#utility.yul\":676:705   */\n      swap1\n      pop\n        /* \"#utility.yul\":714:746   */\n      tag_256\n        /* \"#utility.yul\":740:745   */\n      dup2\n        /* \"#utility.yul\":714:746   */\n      tag_214\n      jump\t// in\n    tag_256:\n        /* \"#utility.yul\":615:752   */\n      swap3\n      swap2\n      pop\n      pop\n      jump\t// out\n        /* \"#utility.yul\":758:1085   */\n    tag_23:\n        /* \"#utility.yul\":816:822   */\n      0x00\n        /* \"#utility.yul\":865:867   */\n      0x20\n        /* \"#utility.yul\":853:862   */\n      dup3\n        /* \"#utility.yul\":844:851   */\n      dup5\n        /* \"#utility.yul\":840:863   */\n      sub\n        /* \"#utility.yul\":836:868   */\n      slt\n        /* \"#utility.yul\":833:952   */\n      iszero\n      tag_258\n      jumpi\n        /* \"#utility.yul\":871:950   */\n      tag_259\n      tag_211\n      jump\t// in\n    tag_259:\n        /* \"#utility.yul\":833:952   */\n    tag_258:\n        /* \"#utility.yul\":991:992   */\n      0x00\n        /* \"#utility.yul\":1016:1068   */\n      tag_260\n        /* \"#utility.yul\":1060:1067   */\n      dup5\n        /* \"#utility.yul\":1051:1057   */\n      dup3\n        /* \"#utility.yul\":1040:1049   */\n      dup6\n        /* \"#utility.yul\":1036:1058   */\n      add\n        /* \"#utility.yul\":1016:1068   */\n      tag_215\n      jump\t// in\n    tag_260:\n        /* \"#utility.yul\":1006:1068   */\n      swap2\n      pop\n        /* \"#utility.yul\":962:1078   */\n      pop\n        /* \"#utility.yul\":758:1085   */\n      swap3\n      swap2\n      pop\n      pop\n      jump\t// out\n        /* \"#utility.yul\":1091:1181   */\n    tag_216:\n        /* \"#utility.yul\":1125:1132   */\n      0x00\n        /* \"#utility.yul\":1168:1173   */\n      dup2\n        /* \"#utility.yul\":1161:1174   */\n      iszero\n        /* \"#utility.yul\":1154:1175   */\n      iszero\n        /* \"#utility.yul\":1143:1175   */\n      swap1\n      pop\n        /* \"#utility.yul\":1091:1181   */\n      swap2\n      swap1\n      pop\n      jump\t// out\n        /* \"#utility.yul\":1187:1296   */\n    tag_217:\n        /* \"#utility.yul\":1268:1289   */\n      tag_263\n        /* \"#utility.yul\":1283:1288   */\n      dup2\n        /* \"#utility.yul\":1268:1289   */\n      tag_216\n      jump\t// in\n    tag_263:\n        /* \"#utility.yul\":1263:1266   */\n      dup3\n        /* \"#utility.yul\":1256:1290   */\n      mstore\n        /* \"#utility.yul\":1187:1296   */\n      pop\n      pop\n      jump\t// out\n        /* \"#utility.yul\":1302:1512   */\n    tag_26:\n        /* \"#utility.yul\":1389:1393   */\n      0x00\n        /* \"#utility.yul\":1427:1429   */\n      0x20\n        /* \"#utility.yul\":1416:1425   */\n      dup3\n        /* \"#utility.yul\":1412:1430   */\n      add\n        /* \"#utility.yul\":1404:1430   */\n      swap1\n      pop\n        /* \"#utility.yul\":1440:1505   */\n      tag_265\n        /* \"#utility.yul\":1502:1503   */\n      0x00\n        /* \"#utility.yul\":1491:1500   */\n      dup4\n        /* \"#utility.yul\":1487:1504   */\n      add\n        /* \"#utility.yul\":1478:1484   */\n      dup5\n        /* \"#utility.yul\":1440:1505   */\n      tag_217\n      jump\t// in\n    tag_265:\n        /* \"#utility.yul\":1302:1512   */\n      swap3\n      swap2\n      pop\n      pop\n      jump\t// out\n        /* \"#utility.yul\":1518:1644   */\n    tag_218:\n        /* \"#utility.yul\":1555:1562   */\n      0x00\n        /* \"#utility.yul\":1595:1637   */\n      0xffffffffffffffffffffffffffffffffffffffff\n        /* \"#utility.yul\":1588:1593   */\n      dup3\n        /* \"#utility.yul\":1584:1638   */\n      and\n        /* \"#utility.yul\":1573:1638   */\n      swap1\n      pop\n        /* \"#utility.yul\":1518:1644   */\n      swap2\n      swap1\n      pop\n      jump\t// out\n        /* \"#utility.yul\":1650:1746   */\n    tag_219:\n        /* \"#utility.yul\":1687:1694   */\n      0x00\n        /* \"#utility.yul\":1716:1740   */\n      tag_268\n        /* \"#utility.yul\":1734:1739   */\n      dup3\n        /* \"#utility.yul\":1716:1740   */\n      tag_218\n      jump\t// in\n    tag_268:\n        /* \"#utility.yul\":1705:1740   */\n      swap1\n      pop\n        /* \"#utility.yul\":1650:1746   */\n      swap2\n      swap1\n      pop\n      jump\t// out\n        /* \"#utility.yul\":1752:1874   */\n    tag_220:\n        /* \"#utility.yul\":1825:1849   */\n      tag_270\n        /* \"#utility.yul\":1843:1848   */\n      dup2\n        /* \"#utility.yul\":1825:1849   */\n      tag_219\n      jump\t// in\n    tag_270:\n        /* \"#utility.yul\":1818:1823   */\n      dup2\n        /* \"#utility.yul\":1815:1850   */\n      eq\n        /* \"#utility.yul\":1805:1868   */\n      tag_271\n      jumpi\n        /* \"#utility.yul\":1864:1865   */\n      0x00\n        /* \"#utility.yul\":1861:1862   */\n      dup1\n        /* \"#utility.yul\":1854:1866   */\n      revert\n        /* \"#utility.yul\":1805:1868   */\n    tag_271:\n        /* \"#utility.yul\":1752:1874   */\n      pop\n      jump\t// out\n        /* \"#utility.yul\":1880:2019   */\n    tag_221:\n        /* \"#utility.yul\":1926:1931   */\n      0x00\n        /* \"#utility.yul\":1964:1970   */\n      dup2\n        /* \"#utility.yul\":1951:1971   */\n      calldataload\n        /* \"#utility.yul\":1942:1971   */\n      swap1\n      pop\n        /* \"#utility.yul\":1980:2013   */\n      tag_273\n        /* \"#utility.yul\":2007:2012   */\n      dup2\n        /* \"#utility.yul\":1980:2013   */\n      tag_220\n      jump\t// in\n    tag_273:\n        /* \"#utility.yul\":1880:2019   */\n      swap3\n      swap2\n      pop\n      pop\n      jump\t// out\n        /* \"#utility.yul\":2025:2354   */\n    tag_29:\n        /* \"#utility.yul\":2084:2090   */\n      0x00\n        /* \"#utility.yul\":2133:2135   */\n      0x20\n        /* \"#utility.yul\":2121:2130   */\n      dup3\n        /* \"#utility.yul\":2112:2119   */\n      dup5\n        /* \"#utility.yul\":2108:2131   */\n      sub\n        /* \"#utility.yul\":2104:2136   */\n      slt\n        /* \"#utility.yul\":2101:2220   */\n      iszero\n      tag_275\n      jumpi\n        /* \"#utility.yul\":2139:2218   */\n      tag_276\n      tag_211\n      jump\t// in\n    tag_276:\n        /* \"#utility.yul\":2101:2220   */\n    tag_275:\n        /* \"#utility.yul\":2259:2260   */\n      0x00\n        /* \"#utility.yul\":2284:2337   */\n      tag_277\n        /* \"#utility.yul\":2329:2336   */\n      dup5\n        /* \"#utility.yul\":2320:2326   */\n      dup3\n        /* \"#utility.yul\":2309:2318   */\n      dup6\n        /* \"#utility.yul\":2305:2327   */\n      add\n        /* \"#utility.yul\":2284:2337   */\n      tag_221\n      jump\t// in\n    tag_277:\n        /* \"#utility.yul\":2274:2337   */\n      swap2\n      pop\n        /* \"#utility.yul\":2230:2347   */\n      pop\n        /* \"#utility.yul\":2025:2354   */\n      swap3\n      swap2\n      pop\n      pop\n      jump\t// out\n        /* \"#utility.yul\":2360:2477   */\n    tag_222:\n        /* \"#utility.yul\":2469:2470   */\n      0x00\n        /* \"#utility.yul\":2466:2467   */\n      dup1\n        /* \"#utility.yul\":2459:2471   */\n      revert\n        /* \"#utility.yul\":2483:2600   */\n    tag_223:\n        /* \"#utility.yul\":2592:2593   */\n      0x00\n        /* \"#utility.yul\":2589:2590   */\n      dup1\n        /* \"#utility.yul\":2582:2594   */\n      revert\n        /* \"#utility.yul\":2606:2723   */\n    tag_224:\n        /* \"#utility.yul\":2715:2716   */\n      0x00\n        /* \"#utility.yul\":2712:2713   */\n      dup1\n        /* \"#utility.yul\":2705:2717   */\n      revert\n        /* \"#utility.yul\":2746:3314   */\n    tag_225:\n        /* \"#utility.yul\":2819:2827   */\n      0x00\n        /* \"#utility.yul\":2829:2835   */\n      dup1\n        /* \"#utility.yul\":2879:2882   */\n      dup4\n        /* \"#utility.yul\":2872:2876   */\n      0x1f\n        /* \"#utility.yul\":2864:2870   */\n      dup5\n        /* \"#utility.yul\":2860:2877   */\n      add\n        /* \"#utility.yul\":2856:2883   */\n      slt\n        /* \"#utility.yul\":2846:2968   */\n      tag_282\n      jumpi\n        /* \"#utility.yul\":2887:2966   */\n      tag_283\n      tag_222\n      jump\t// in\n    tag_283:\n        /* \"#utility.yul\":2846:2968   */\n    tag_282:\n        /* \"#utility.yul\":3000:3006   */\n      dup3\n        /* \"#utility.yul\":2987:3007   */\n      calldataload\n        /* \"#utility.yul\":2977:3007   */\n      swap1\n      pop\n        /* \"#utility.yul\":3030:3048   */\n      0xffffffffffffffff\n        /* \"#utility.yul\":3022:3028   */\n      dup2\n        /* \"#utility.yul\":3019:3049   */\n      gt\n        /* \"#utility.yul\":3016:3133   */\n      iszero\n      tag_284\n      jumpi\n        /* \"#utility.yul\":3052:3131   */\n      tag_285\n      tag_223\n      jump\t// in\n    tag_285:\n        /* \"#utility.yul\":3016:3133   */\n    tag_284:\n        /* \"#utility.yul\":3166:3170   */\n      0x20\n        /* \"#utility.yul\":3158:3164   */\n      dup4\n        /* \"#utility.yul\":3154:3171   */\n      add\n        /* \"#utility.yul\":3142:3171   */\n      swap2\n      pop\n        /* \"#utility.yul\":3220:3223   */\n      dup4\n        /* \"#utility.yul\":3212:3216   */\n      0x20\n        /* \"#utility.yul\":3204:3210   */\n      dup3\n        /* \"#utility.yul\":3200:3217   */\n      mul\n        /* \"#utility.yul\":3190:3198   */\n      dup4\n        /* \"#utility.yul\":3186:3218   */\n      add\n        /* \"#utility.yul\":3183:3224   */\n      gt\n        /* \"#utility.yul\":3180:3308   */\n      iszero\n      tag_286\n      jumpi\n        /* \"#utility.yul\":3227:3306   */\n      tag_287\n      tag_224\n      jump\t// in\n    tag_287:\n        /* \"#utility.yul\":3180:3308   */\n    tag_286:\n        /* \"#utility.yul\":2746:3314   */\n      swap3\n      pop\n      swap3\n      swap1\n      pop\n      jump\t// out\n        /* \"#utility.yul\":3320:3879   */\n    tag_33:\n        /* \"#utility.yul\":3406:3412   */\n      0x00\n        /* \"#utility.yul\":3414:3420   */\n      dup1\n        /* \"#utility.yul\":3463:3465   */\n      0x20\n        /* \"#utility.yul\":3451:3460   */\n      dup4\n        /* \"#utility.yul\":3442:3449   */\n      dup6\n        /* \"#utility.yul\":3438:3461   */\n      sub\n        /* \"#utility.yul\":3434:3466   */\n      slt\n        /* \"#utility.yul\":3431:3550   */\n      iszero\n      tag_289\n      jumpi\n        /* \"#utility.yul\":3469:3548   */\n      tag_290\n      tag_211\n      jump\t// in\n    tag_290:\n        /* \"#utility.yul\":3431:3550   */\n    tag_289:\n        /* \"#utility.yul\":3617:3618   */\n      0x00\n        /* \"#utility.yul\":3606:3615   */\n      dup4\n        /* \"#utility.yul\":3602:3619   */\n      add\n        /* \"#utility.yul\":3589:3620   */\n      calldataload\n        /* \"#utility.yul\":3647:3665   */\n      0xffffffffffffffff\n        /* \"#utility.yul\":3639:3645   */\n      dup2\n        /* \"#utility.yul\":3636:3666   */\n      gt\n        /* \"#utility.yul\":3633:3750   */\n      iszero\n      tag_291\n      jumpi\n        /* \"#utility.yul\":3669:3748   */\n      tag_292\n      tag_212\n      jump\t// in\n    tag_292:\n        /* \"#utility.yul\":3633:3750   */\n    tag_291:\n        /* \"#utility.yul\":3782:3862   */\n      tag_293\n        /* \"#utility.yul\":3854:3861   */\n      dup6\n        /* \"#utility.yul\":3845:3851   */\n      dup3\n        /* \"#utility.yul\":3834:3843   */\n      dup7\n        /* \"#utility.yul\":3830:3852   */\n      add\n        /* \"#utility.yul\":3782:3862   */\n      tag_225\n      jump\t// in\n    tag_293:\n        /* \"#utility.yul\":3764:3862   */\n      swap3\n      pop\n      swap3\n      pop\n        /* \"#utility.yul\":3560:3872   */\n      pop\n        /* \"#utility.yul\":3320:3879   */\n      swap3\n      pop\n      swap3\n      swap1\n      pop\n      jump\t// out\n        /* \"#utility.yul\":3885:3962   */\n    tag_226:\n        /* \"#utility.yul\":3922:3929   */\n      0x00\n        /* \"#utility.yul\":3951:3956   */\n      dup2\n        /* \"#utility.yul\":3940:3956   */\n      swap1\n      pop\n        /* \"#utility.yul\":3885:3962   */\n      swap2\n      swap1\n      pop\n      jump\t// out\n        /* \"#utility.yul\":3968:4090   */\n    tag_227:\n        /* \"#utility.yul\":4041:4065   */\n      tag_296\n        /* \"#utility.yul\":4059:4064   */\n      dup2\n        /* \"#utility.yul\":4041:4065   */\n      tag_226\n      jump\t// in\n    tag_296:\n        /* \"#utility.yul\":4034:4039   */\n      dup2\n        /* \"#utility.yul\":4031:4066   */\n      eq\n        /* \"#utility.yul\":4021:4084   */\n      tag_297\n      jumpi\n        /* \"#utility.yul\":4080:4081   */\n      0x00\n        /* \"#utility.yul\":4077:4078   */\n      dup1\n        /* \"#utility.yul\":4070:4082   */\n      revert\n        /* \"#utility.yul\":4021:4084   */\n    tag_297:\n        /* \"#utility.yul\":3968:4090   */\n      pop\n      jump\t// out\n        /* \"#utility.yul\":4096:4235   */\n    tag_228:\n        /* \"#utility.yul\":4142:4147   */\n      0x00\n        /* \"#utility.yul\":4180:4186   */\n      dup2\n        /* \"#utility.yul\":4167:4187   */\n      calldataload\n        /* \"#utility.yul\":4158:4187   */\n      swap1\n      pop\n        /* \"#utility.yul\":4196:4229   */\n      tag_299\n        /* \"#utility.yul\":4223:4228   */\n      dup2\n        /* \"#utility.yul\":4196:4229   */\n      tag_227\n      jump\t// in\n    tag_299:\n        /* \"#utility.yul\":4096:4235   */\n      swap3\n      swap2\n      pop\n      pop\n      jump\t// out\n        /* \"#utility.yul\":4241:4570   */\n    tag_38:\n        /* \"#utility.yul\":4300:4306   */\n      0x00\n        /* \"#utility.yul\":4349:4351   */\n      0x20\n        /* \"#utility.yul\":4337:4346   */\n      dup3\n        /* \"#utility.yul\":4328:4335   */\n      dup5\n        /* \"#utility.yul\":4324:4347   */\n      sub\n        /* \"#utility.yul\":4320:4352   */\n      slt\n        /* \"#utility.yul\":4317:4436   */\n      iszero\n      tag_301\n      jumpi\n        /* \"#utility.yul\":4355:4434   */\n      tag_302\n      tag_211\n      jump\t// in\n    tag_302:\n        /* \"#utility.yul\":4317:4436   */\n    tag_301:\n        /* \"#utility.yul\":4475:4476   */\n      0x00\n        /* \"#utility.yul\":4500:4553   */\n      tag_303\n        /* \"#utility.yul\":4545:4552   */\n      dup5\n        /* \"#utility.yul\":4536:4542   */\n      dup3\n        /* \"#utility.yul\":4525:4534   */\n      dup6\n        /* \"#utility.yul\":4521:4543   */\n      add\n        /* \"#utility.yul\":4500:4553   */\n      tag_228\n      jump\t// in\n    tag_303:\n        /* \"#utility.yul\":4490:4553   */\n      swap2\n      pop\n        /* \"#utility.yul\":4446:4563   */\n      pop\n        /* \"#utility.yul\":4241:4570   */\n      swap3\n      swap2\n      pop\n      pop\n      jump\t// out\n        /* \"#utility.yul\":4576:4694   */\n    tag_229:\n        /* \"#utility.yul\":4663:4687   */\n      tag_305\n        /* \"#utility.yul\":4681:4686   */\n      dup2\n        /* \"#utility.yul\":4663:4687   */\n      tag_226\n      jump\t// in\n    tag_305:\n        /* \"#utility.yul\":4658:4661   */\n      dup3\n        /* \"#utility.yul\":4651:4688   */\n      mstore\n        /* \"#utility.yul\":4576:4694   */\n      pop\n      pop\n      jump\t// out\n        /* \"#utility.yul\":4700:4922   */\n    tag_41:\n        /* \"#utility.yul\":4793:4797   */\n      0x00\n        /* \"#utility.yul\":4831:4833   */\n      0x20\n        /* \"#utility.yul\":4820:4829   */\n      dup3\n        /* \"#utility.yul\":4816:4834   */\n      add\n        /* \"#utility.yul\":4808:4834   */\n      swap1\n      pop\n        /* \"#utility.yul\":4844:4915   */\n      tag_307\n        /* \"#utility.yul\":4912:4913   */\n      0x00\n        /* \"#utility.yul\":4901:4910   */\n      dup4\n        /* \"#utility.yul\":4897:4914   */\n      add\n        /* \"#utility.yul\":4888:4894   */\n      dup5\n        /* \"#utility.yul\":4844:4915   */\n      tag_229\n      jump\t// in\n    tag_307:\n        /* \"#utility.yul\":4700:4922   */\n      swap3\n      swap2\n      pop\n      pop\n      jump\t// out\n        /* \"#utility.yul\":4928:5402   */\n    tag_44:\n        /* \"#utility.yul\":4996:5002   */\n      0x00\n        /* \"#utility.yul\":5004:5010   */\n      dup1\n        /* \"#utility.yul\":5053:5055   */\n      0x40\n        /* \"#utility.yul\":5041:5050   */\n      dup4\n        /* \"#utility.yul\":5032:5039   */\n      dup6\n        /* \"#utility.yul\":5028:5051   */\n      sub\n        /* \"#utility.yul\":5024:5056   */\n      slt\n        /* \"#utility.yul\":5021:5140   */\n      iszero\n      tag_309\n      jumpi\n        /* \"#utility.yul\":5059:5138   */\n      tag_310\n      tag_211\n      jump\t// in\n    tag_310:\n        /* \"#utility.yul\":5021:5140   */\n    tag_309:\n        /* \"#utility.yul\":5179:5180   */\n      0x00\n        /* \"#utility.yul\":5204:5257   */\n      tag_311\n        /* \"#utility.yul\":5249:5256   */\n      dup6\n        /* \"#utility.yul\":5240:5246   */\n      dup3\n        /* \"#utility.yul\":5229:5238   */\n      dup7\n        /* \"#utility.yul\":5225:5247   */\n      add\n        /* \"#utility.yul\":5204:5257   */\n      tag_228\n      jump\t// in\n    tag_311:\n        /* \"#utility.yul\":5194:5257   */\n      swap3\n      pop\n        /* \"#utility.yul\":5150:5267   */\n      pop\n        /* \"#utility.yul\":5306:5308   */\n      0x20\n        /* \"#utility.yul\":5332:5385   */\n      tag_312\n        /* \"#utility.yul\":5377:5384   */\n      dup6\n        /* \"#utility.yul\":5368:5374   */\n      dup3\n        /* \"#utility.yul\":5357:5366   */\n      dup7\n        /* \"#utility.yul\":5353:5375   */\n      add\n        /* \"#utility.yul\":5332:5385   */\n      tag_221\n      jump\t// in\n    tag_312:\n        /* \"#utility.yul\":5322:5385   */\n      swap2\n      pop\n        /* \"#utility.yul\":5277:5395   */\n      pop\n        /* \"#utility.yul\":4928:5402   */\n      swap3\n      pop\n      swap3\n      swap1\n      pop\n      jump\t// out\n        /* \"#utility.yul\":5408:5588   */\n    tag_96:\n        /* \"#utility.yul\":5456:5533   */\n      0x4e487b7100000000000000000000000000000000000000000000000000000000\n        /* \"#utility.yul\":5453:5454   */\n      0x00\n        /* \"#utility.yul\":5446:5534   */\n      mstore\n        /* \"#utility.yul\":5553:5557   */\n      0x32\n        /* \"#utility.yul\":5550:5551   */\n      0x04\n        /* \"#utility.yul\":5543:5558   */\n      mstore\n        /* \"#utility.yul\":5577:5581   */\n      0x24\n        /* \"#utility.yul\":5574:5575   */\n      0x00\n        /* \"#utility.yul\":5567:5582   */\n      revert\n        /* \"#utility.yul\":5594:5774   */\n    tag_230:\n        /* \"#utility.yul\":5642:5719   */\n      0x4e487b7100000000000000000000000000000000000000000000000000000000\n        /* \"#utility.yul\":5639:5640   */\n      0x00\n        /* \"#utility.yul\":5632:5720   */\n      mstore\n        /* \"#utility.yul\":5739:5743   */\n      0x11\n        /* \"#utility.yul\":5736:5737   */\n      0x04\n        /* \"#utility.yul\":5729:5744   */\n      mstore\n        /* \"#utility.yul\":5763:5767   */\n      0x24\n        /* \"#utility.yul\":5760:5761   */\n      0x00\n        /* \"#utility.yul\":5753:5768   */\n      revert\n        /* \"#utility.yul\":5780:5857   */\n    tag_231:\n        /* \"#utility.yul\":5817:5824   */\n      0x00\n        /* \"#utility.yul\":5846:5851   */\n      dup2\n        /* \"#utility.yul\":5835:5851   */\n      swap1\n      pop\n        /* \"#utility.yul\":5780:5857   */\n      swap2\n      swap1\n      pop\n      jump\t// out\n        /* \"#utility.yul\":5863:6096   */\n    tag_100:\n        /* \"#utility.yul\":5902:5905   */\n      0x00\n        /* \"#utility.yul\":5925:5949   */\n      tag_317\n        /* \"#utility.yul\":5943:5948   */\n      dup3\n        /* \"#utility.yul\":5925:5949   */\n      tag_231\n      jump\t// in\n    tag_317:\n        /* \"#utility.yul\":5916:5949   */\n      swap2\n      pop\n        /* \"#utility.yul\":5971:6037   */\n      0xffffffffffffffffffffffffffffffffffffffffffffffffffffffffffffffff\n        /* \"#utility.yul\":5964:5969   */\n      dup3\n        /* \"#utility.yul\":5961:6038   */\n      sub\n        /* \"#utility.yul\":5958:6061   */\n      tag_318\n      jumpi\n        /* \"#utility.yul\":6041:6059   */\n      tag_319\n      tag_230\n      jump\t// in\n    tag_319:\n        /* \"#utility.yul\":5958:6061   */\n    tag_318:\n        /* \"#utility.yul\":6088:6089   */\n      0x01\n        /* \"#utility.yul\":6081:6086   */\n      dup3\n        /* \"#utility.yul\":6077:6090   */\n      add\n        /* \"#utility.yul\":6070:6090   */\n      swap1\n      pop\n        /* \"#utility.yul\":5863:6096   */\n      swap2\n      swap1\n      pop\n      jump\t// out\n        /* \"#utility.yul\":6102:6271   */\n    tag_232:\n        /* \"#utility.yul\":6186:6197   */\n      0x00\n        /* \"#utility.yul\":6220:6226   */\n      dup3\n        /* \"#utility.yul\":6215:6218   */\n      dup3\n        /* \"#utility.yul\":6208:6227   */\n      mstore\n        /* \"#utility.yul\":6260:6264   */\n      0x20\n        /* \"#utility.yul\":6255:6258   */\n      dup3\n        /* \"#utility.yul\":6251:6265   */\n      add\n        /* \"#utility.yul\":6236:6265   */\n      swap1\n      pop\n        /* \"#utility.yul\":6102:6271   */\n      swap3\n      swap2\n      pop\n      pop\n      jump\t// out\n        /* \"#utility.yul\":6277:6511   */\n    tag_233:\n        /* \"#utility.yul\":6417:6451   */\n      0x416363657373436f6e74726f6c3a2063616e206f6e6c792072656e6f756e6365\n        /* \"#utility.yul\":6413:6414   */\n      0x00\n        /* \"#utility.yul\":6405:6411   */\n      dup3\n        /* \"#utility.yul\":6401:6415   */\n      add\n        /* \"#utility.yul\":6394:6452   */\n      mstore\n        /* \"#utility.yul\":6486:6503   */\n      0x20726f6c657320666f722073656c660000000000000000000000000000000000\n        /* \"#utility.yul\":6481:6483   */\n      0x20\n        /* \"#utility.yul\":6473:6479   */\n      dup3\n        /* \"#utility.yul\":6469:6484   */\n      add\n        /* \"#utility.yul\":6462:6504   */\n      mstore\n        /* \"#utility.yul\":6277:6511   */\n      pop\n      jump\t// out\n        /* \"#utility.yul\":6517:6883   */\n    tag_234:\n        /* \"#utility.yul\":6659:6662   */\n      0x00\n        /* \"#utility.yul\":6680:6747   */\n      tag_323\n        /* \"#utility.yul\":6744:6746   */\n      0x2f\n        /* \"#utility.yul\":6739:6742   */\n      dup4\n        /* \"#utility.yul\":6680:6747   */\n      tag_232\n      jump\t// in\n    tag_323:\n        /* \"#utility.yul\":6673:6747   */\n      swap2\n      pop\n        /* \"#utility.yul\":6756:6849   */\n      tag_324\n        /* \"#utility.yul\":6845:6848   */\n      dup3\n        /* \"#utility.yul\":6756:6849   */\n      tag_233\n      jump\t// in\n    tag_324:\n        /* \"#utility.yul\":6874:6876   */\n      0x40\n        /* \"#utility.yul\":6869:6872   */\n      dup3\n        /* \"#utility.yul\":6865:6877   */\n      add\n        /* \"#utility.yul\":6858:6877   */\n      swap1\n      pop\n        /* \"#utility.yul\":6517:6883   */\n      swap2\n      swap1\n      pop\n      jump\t// out\n        /* \"#utility.yul\":6889:7308   */\n    tag_112:\n        /* \"#utility.yul\":7055:7059   */\n      0x00\n        /* \"#utility.yul\":7093:7095   */\n      0x20\n        /* \"#utility.yul\":7082:7091   */\n      dup3\n        /* \"#utility.yul\":7078:7096   */\n      add\n        /* \"#utility.yul\":7070:7096   */\n      swap1\n      pop\n        /* \"#utility.yul\":7142:7151   */\n      dup2\n        /* \"#utility.yul\":7136:7140   */\n      dup2\n        /* \"#utility.yul\":7132:7152   */\n      sub\n        /* \"#utility.yul\":7128:7129   */\n      0x00\n        /* \"#utility.yul\":7117:7126   */\n      dup4\n        /* \"#utility.yul\":7113:7130   */\n      add\n        /* \"#utility.yul\":7106:7153   */\n      mstore\n        /* \"#utility.yul\":7170:7301   */\n      tag_326\n        /* \"#utility.yul\":7296:7300   */\n      dup2\n        /* \"#utility.yul\":7170:7301   */\n      tag_234\n      jump\t// in\n    tag_326:\n        /* \"#utility.yul\":7162:7301   */\n      swap1\n      pop\n        /* \"#utility.yul\":6889:7308   */\n      swap2\n      swap1\n      pop\n      jump\t// out\n        /* \"#utility.yul\":7314:7462   */\n    tag_235:\n        /* \"#utility.yul\":7416:7427   */\n      0x00\n        /* \"#utility.yul\":7453:7456   */\n      dup2\n        /* \"#utility.yul\":7438:7456   */\n      swap1\n      pop\n        /* \"#utility.yul\":7314:7462   */\n      swap3\n      swap2\n      pop\n      pop\n      jump\t// out\n        /* \"#utility.yul\":7468:7641   */\n    tag_236:\n        /* \"#utility.yul\":7608:7633   */\n      0x416363657373436f6e74726f6c3a206163636f756e7420000000000000000000\n        /* \"#utility.yul\":7604:7605   */\n      0x00\n        /* \"#utility.yul\":7596:7602   */\n      dup3\n        /* \"#utility.yul\":7592:7606   */\n      add\n        /* \"#utility.yul\":7585:7634   */\n      mstore\n        /* \"#utility.yul\":7468:7641   */\n      pop\n      jump\t// out\n        /* \"#utility.yul\":7647:8049   */\n    tag_237:\n        /* \"#utility.yul\":7807:7810   */\n      0x00\n        /* \"#utility.yul\":7828:7913   */\n      tag_330\n        /* \"#utility.yul\":7910:7912   */\n      0x17\n        /* \"#utility.yul\":7905:7908   */\n      dup4\n        /* \"#utility.yul\":7828:7913   */\n      tag_235\n      jump\t// in\n    tag_330:\n        /* \"#utility.yul\":7821:7913   */\n      swap2\n      pop\n        /* \"#utility.yul\":7922:8015   */\n      tag_331\n        /* \"#utility.yul\":8011:8014   */\n      dup3\n        /* \"#utility.yul\":7922:8015   */\n      tag_236\n      jump\t// in\n    tag_331:\n        /* \"#utility.yul\":8040:8042   */\n      0x17\n        /* \"#utility.yul\":8035:8038   */\n      dup3\n        /* \"#utility.yul\":8031:8043   */\n      add\n        /* \"#utility.yul\":8024:8043   */\n      swap1\n      pop\n        /* \"#utility.yul\":7647:8049   */\n      swap2\n      swap1\n      pop\n      jump\t// out\n        /* \"#utility.yul\":8055:8154   */\n    tag_238:\n        /* \"#utility.yul\":8107:8113   */\n      0x00\n        /* \"#utility.yul\":8141:8146   */\n      dup2\n        /* \"#utility.yul\":8135:8147   */\n      mload\n        /* \"#utility.yul\":8125:8147   */\n      swap1\n      pop\n        /* \"#utility.yul\":8055:8154   */\n      swap2\n      swap1\n      pop\n      jump\t// out\n        /* \"#utility.yul\":8160:8406   */\n    tag_239:\n        /* \"#utility.yul\":8241:8242   */\n      0x00\n        /* \"#utility.yul\":8251:8364   */\n    tag_334:\n        /* \"#utility.yul\":8265:8271   */\n      dup4\n        /* \"#utility.yul\":8262:8263   */\n      dup2\n        /* \"#utility.yul\":8259:8272   */\n      lt\n        /* \"#utility.yul\":8251:8364   */\n      iszero\n      tag_336\n      jumpi\n        /* \"#utility.yul\":8350:8351   */\n      dup1\n        /* \"#utility.yul\":8345:8348   */\n      dup3\n        /* \"#utility.yul\":8341:8352   */\n      add\n        /* \"#utility.yul\":8335:8353   */\n      mload\n        /* \"#utility.yul\":8331:8332   */\n      dup2\n        /* \"#utility.yul\":8326:8329   */\n      dup5\n        /* \"#utility.yul\":8322:8333   */\n      add\n        /* \"#utility.yul\":8315:8354   */\n      mstore\n        /* \"#utility.yul\":8287:8289   */\n      0x20\n        /* \"#utility.yul\":8284:8285   */\n      dup2\n        /* \"#utility.yul\":8280:8290   */\n      add\n        /* \"#utility.yul\":8275:8290   */\n      swap1\n      pop\n        /* \"#utility.yul\":8251:8364   */\n      jump(tag_334)\n    tag_336:\n        /* \"#utility.yul\":8398:8399   */\n      0x00\n        /* \"#utility.yul\":8389:8395   */\n      dup5\n        /* \"#utility.yul\":8384:8387   */\n      dup5\n        /* \"#utility.yul\":8380:8396   */\n      add\n        /* \"#utility.yul\":8373:8400   */\n      mstore\n        /* \"#utility.yul\":8222:8406   */\n      pop\n        /* \"#utility.yul\":8160:8406   */\n      pop\n      pop\n      pop\n      jump\t// out\n        /* \"#utility.yul\":8412:8802   */\n    tag_240:\n        /* \"#utility.yul\":8518:8521   */\n      0x00\n        /* \"#utility.yul\":8546:8585   */\n      tag_338\n        /* \"#utility.yul\":8579:8584   */\n      dup3\n        /* \"#utility.yul\":8546:8585   */\n      tag_238\n      jump\t// in\n    tag_338:\n        /* \"#utility.yul\":8601:8690   */\n      tag_339\n        /* \"#utility.yul\":8683:8689   */\n      dup2\n        /* \"#utility.yul\":8678:8681   */\n      dup6\n        /* \"#utility.yul\":8601:8690   */\n      tag_235\n      jump\t// in\n    tag_339:\n        /* \"#utility.yul\":8594:8690   */\n      swap4\n      pop\n        /* \"#utility.yul\":8699:8764   */\n      tag_340\n        /* \"#utility.yul\":8757:8763   */\n      dup2\n        /* \"#utility.yul\":8752:8755   */\n      dup6\n        /* \"#utility.yul\":8745:8749   */\n      0x20\n        /* \"#utility.yul\":8738:8743   */\n      dup7\n        /* \"#utility.yul\":8734:8750   */\n      add\n        /* \"#utility.yul\":8699:8764   */\n      tag_239\n      jump\t// in\n    tag_340:\n        /* \"#utility.yul\":8789:8795   */\n      dup1\n        /* \"#utility.yul\":8784:8787   */\n      dup5\n        /* \"#utility.yul\":8780:8796   */\n      add\n        /* \"#utility.yul\":8773:8796   */\n      swap2\n      pop\n        /* \"#utility.yul\":8522:8802   */\n      pop\n        /* \"#utility.yul\":8412:8802   */\n      swap3\n      swap2\n      pop\n      pop\n      jump\t// out\n        /* \"#utility.yul\":8808:8975   */\n    tag_241:\n        /* \"#utility.yul\":8948:8967   */\n      0x206973206d697373696e6720726f6c6520000000000000000000000000000000\n        /* \"#utility.yul\":8944:8945   */\n      0x00\n        /* \"#utility.yul\":8936:8942   */\n      dup3\n        /* \"#utility.yul\":8932:8946   */\n      add\n        /* \"#utility.yul\":8925:8968   */\n      mstore\n        /* \"#utility.yul\":8808:8975   */\n      pop\n      jump\t// out\n        /* \"#utility.yul\":8981:9383   */\n    tag_242:\n        /* \"#utility.yul\":9141:9144   */\n      0x00\n        /* \"#utility.yul\":9162:9247   */\n      tag_343\n        /* \"#utility.yul\":9244:9246   */\n      0x11\n        /* \"#utility.yul\":9239:9242   */\n      dup4\n        /* \"#utility.yul\":9162:9247   */\n      tag_235\n      jump\t// in\n    tag_343:\n        /* \"#utility.yul\":9155:9247   */\n      swap2\n      pop\n        /* \"#utility.yul\":9256:9349   */\n      tag_344\n        /* \"#utility.yul\":9345:9348   */\n      dup3\n        /* \"#utility.yul\":9256:9349   */\n      tag_241\n      jump\t// in\n    tag_344:\n        /* \"#utility.yul\":9374:9376   */\n      0x11\n        /* \"#utility.yul\":9369:9372   */\n      dup3\n        /* \"#utility.yul\":9365:9377   */\n      add\n        /* \"#utility.yul\":9358:9377   */\n      swap1\n      pop\n        /* \"#utility.yul\":8981:9383   */\n      swap2\n      swap1\n      pop\n      jump\t// out\n        /* \"#utility.yul\":9389:10356   */\n    tag_178:\n        /* \"#utility.yul\":9771:9774   */\n      0x00\n        /* \"#utility.yul\":9793:9941   */\n      tag_346\n        /* \"#utility.yul\":9937:9940   */\n      dup3\n        /* \"#utility.yul\":9793:9941   */\n      tag_237\n      jump\t// in\n    tag_346:\n        /* \"#utility.yul\":9786:9941   */\n      swap2\n      pop\n        /* \"#utility.yul\":9958:10053   */\n      tag_347\n        /* \"#utility.yul\":10049:10052   */\n      dup3\n        /* \"#utility.yul\":10040:10046   */\n      dup6\n        /* \"#utility.yul\":9958:10053   */\n      tag_240\n      jump\t// in\n    tag_347:\n        /* \"#utility.yul\":9951:10053   */\n      swap2\n      pop\n        /* \"#utility.yul\":10070:10218   */\n      tag_348\n        /* \"#utility.yul\":10214:10217   */\n      dup3\n        /* \"#utility.yul\":10070:10218   */\n      tag_242\n      jump\t// in\n    tag_348:\n        /* \"#utility.yul\":10063:10218   */\n      swap2\n      pop\n        /* \"#utility.yul\":10235:10330   */\n      tag_349\n        /* \"#utility.yul\":10326:10329   */\n      dup3\n        /* \"#utility.yul\":10317:10323   */\n      dup5\n        /* \"#utility.yul\":10235:10330   */\n      tag_240\n      jump\t// in\n    tag_349:\n        /* \"#utility.yul\":10228:10330   */\n      swap2\n      pop\n        /* \"#utility.yul\":10347:10350   */\n      dup2\n        /* \"#utility.yul\":10340:10350   */\n      swap1\n      pop\n        /* \"#utility.yul\":9389:10356   */\n      swap4\n      swap3\n      pop\n      pop\n      pop\n      jump\t// out\n        /* \"#utility.yul\":10362:10464   */\n    tag_243:\n        /* \"#utility.yul\":10403:10409   */\n      0x00\n        /* \"#utility.yul\":10454:10456   */\n      0x1f\n        /* \"#utility.yul\":10450:10457   */\n      not\n        /* \"#utility.yul\":10445:10447   */\n      0x1f\n        /* \"#utility.yul\":10438:10443   */\n      dup4\n        /* \"#utility.yul\":10434:10448   */\n      add\n        /* \"#utility.yul\":10430:10458   */\n      and\n        /* \"#utility.yul\":10420:10458   */\n      swap1\n      pop\n        /* \"#utility.yul\":10362:10464   */\n      swap2\n      swap1\n      pop\n      jump\t// out\n        /* \"#utility.yul\":10470:10847   */\n    tag_244:\n        /* \"#utility.yul\":10558:10561   */\n      0x00\n        /* \"#utility.yul\":10586:10625   */\n      tag_352\n        /* \"#utility.yul\":10619:10624   */\n      dup3\n        /* \"#utility.yul\":10586:10625   */\n      tag_238\n      jump\t// in\n    tag_352:\n        /* \"#utility.yul\":10641:10712   */\n      tag_353\n        /* \"#utility.yul\":10705:10711   */\n      dup2\n        /* \"#utility.yul\":10700:10703   */\n      dup6\n        /* \"#utility.yul\":10641:10712   */\n      tag_232\n      jump\t// in\n    tag_353:\n        /* \"#utility.yul\":10634:10712   */\n      swap4\n      pop\n        /* \"#utility.yul\":10721:10786   */\n      tag_354\n        /* \"#utility.yul\":10779:10785   */\n      dup2\n        /* \"#utility.yul\":10774:10777   */\n      dup6\n        /* \"#utility.yul\":10767:10771   */\n      0x20\n        /* \"#utility.yul\":10760:10765   */\n      dup7\n        /* \"#utility.yul\":10756:10772   */\n      add\n        /* \"#utility.yul\":10721:10786   */\n      tag_239\n      jump\t// in\n    tag_354:\n        /* \"#utility.yul\":10811:10840   */\n      tag_355\n        /* \"#utility.yul\":10833:10839   */\n      dup2\n        /* \"#utility.yul\":10811:10840   */\n      tag_243\n      jump\t// in\n    tag_355:\n        /* \"#utility.yul\":10806:10809   */\n      dup5\n        /* \"#utility.yul\":10802:10841   */\n      add\n        /* \"#utility.yul\":10795:10841   */\n      swap2\n      pop\n        /* \"#utility.yul\":10562:10847   */\n      pop\n        /* \"#utility.yul\":10470:10847   */\n      swap3\n      swap2\n      pop\n      pop\n      jump\t// out\n        /* \"#utility.yul\":10853:11166   */\n    tag_180:\n        /* \"#utility.yul\":10966:10970   */\n      0x00\n        /* \"#utility.yul\":11004:11006   */\n      0x20\n        /* \"#utility.yul\":10993:11002   */\n      dup3\n        /* \"#utility.yul\":10989:11007   */\n      add\n        /* \"#utility.yul\":10981:11007   */\n      swap1\n      pop\n        /* \"#utility.yul\":11053:11062   */\n      dup2\n        /* \"#utility.yul\":11047:11051   */\n      dup2\n        /* \"#utility.yul\":11043:11063   */\n      sub\n        /* \"#utility.yul\":11039:11040   */\n      0x00\n        /* \"#utility.yul\":11028:11037   */\n      dup4\n        /* \"#utility.yul\":11024:11041   */\n      add\n        /* \"#utility.yul\":11017:11064   */\n      mstore\n        /* \"#utility.yul\":11081:11159   */\n      tag_357\n        /* \"#utility.yul\":11154:11158   */\n      dup2\n        /* \"#utility.yul\":11145:11151   */\n      dup5\n        /* \"#utility.yul\":11081:11159   */\n      tag_244\n      jump\t// in\n    tag_357:\n        /* \"#utility.yul\":11073:11159   */\n      swap1\n      pop\n        /* \"#utility.yul\":10853:11166   */\n      swap3\n      swap2\n      pop\n      pop\n      jump\t// out\n        /* \"#utility.yul\":11172:11582   */\n    tag_185:\n        /* \"#utility.yul\":11212:11219   */\n      0x00\n        /* \"#utility.yul\":11235:11255   */\n      tag_359\n        /* \"#utility.yul\":11253:11254   */\n      dup3\n        /* \"#utility.yul\":11235:11255   */\n      tag_231\n      jump\t// in\n    tag_359:\n        /* \"#utility.yul\":11230:11255   */\n      swap2\n      pop\n        /* \"#utility.yul\":11269:11289   */\n      tag_360\n        /* \"#utility.yul\":11287:11288   */\n      dup4\n        /* \"#utility.yul\":11269:11289   */\n      tag_231\n      jump\t// in\n    tag_360:\n        /* \"#utility.yul\":11264:11289   */\n      swap3\n      pop\n        /* \"#utility.yul\":11324:11325   */\n      dup3\n        /* \"#utility.yul\":11321:11322   */\n      dup3\n        /* \"#utility.yul\":11317:11326   */\n      mul\n        /* \"#utility.yul\":11346:11376   */\n      tag_361\n        /* \"#utility.yul\":11364:11375   */\n      dup2\n        /* \"#utility.yul\":11346:11376   */\n      tag_231\n      jump\t// in\n    tag_361:\n        /* \"#utility.yul\":11335:11376   */\n      swap2\n      pop\n        /* \"#utility.yul\":11525:11526   */\n      dup3\n        /* \"#utility.yul\":11516:11523   */\n      dup3\n        /* \"#utility.yul\":11512:11527   */\n      div\n        /* \"#utility.yul\":11509:11510   */\n      dup5\n        /* \"#utility.yul\":11506:11528   */\n      eq\n        /* \"#utility.yul\":11486:11487   */\n      dup4\n        /* \"#utility.yul\":11479:11488   */\n      iszero\n        /* \"#utility.yul\":11459:11542   */\n      or\n        /* \"#utility.yul\":11436:11575   */\n      tag_362\n      jumpi\n        /* \"#utility.yul\":11555:11573   */\n      tag_363\n      tag_230\n      jump\t// in\n    tag_363:\n        /* \"#utility.yul\":11436:11575   */\n    tag_362:\n        /* \"#utility.yul\":11220:11582   */\n      pop\n        /* \"#utility.yul\":11172:11582   */\n      swap3\n      swap2\n      pop\n      pop\n      jump\t// out\n        /* \"#utility.yul\":11588:11779   */\n    tag_187:\n        /* \"#utility.yul\":11628:11631   */\n      0x00\n        /* \"#utility.yul\":11647:11667   */\n      tag_365\n        /* \"#utility.yul\":11665:11666   */\n      dup3\n        /* \"#utility.yul\":11647:11667   */\n      tag_231\n      jump\t// in\n    tag_365:\n        /* \"#utility.yul\":11642:11667   */\n      swap2\n      pop\n        /* \"#utility.yul\":11681:11701   */\n      tag_366\n        /* \"#utility.yul\":11699:11700   */\n      dup4\n        /* \"#utility.yul\":11681:11701   */\n      tag_231\n      jump\t// in\n    tag_366:\n        /* \"#utility.yul\":11676:11701   */\n      swap3\n      pop\n        /* \"#utility.yul\":11724:11725   */\n      dup3\n        /* \"#utility.yul\":11721:11722   */\n      dup3\n        /* \"#utility.yul\":11717:11726   */\n      add\n        /* \"#utility.yul\":11710:11726   */\n      swap1\n      pop\n        /* \"#utility.yul\":11745:11748   */\n      dup1\n        /* \"#utility.yul\":11742:11743   */\n      dup3\n        /* \"#utility.yul\":11739:11749   */\n      gt\n        /* \"#utility.yul\":11736:11772   */\n      iszero\n      tag_367\n      jumpi\n        /* \"#utility.yul\":11752:11770   */\n      tag_368\n      tag_230\n      jump\t// in\n    tag_368:\n        /* \"#utility.yul\":11736:11772   */\n    tag_367:\n        /* \"#utility.yul\":11588:11779   */\n      swap3\n      swap2\n      pop\n      pop\n      jump\t// out\n        /* \"#utility.yul\":11785:11965   */\n    tag_190:\n        /* \"#utility.yul\":11833:11910   */\n      0x4e487b7100000000000000000000000000000000000000000000000000000000\n        /* \"#utility.yul\":11830:11831   */\n      0x00\n        /* \"#utility.yul\":11823:11911   */\n      mstore\n        /* \"#utility.yul\":11930:11934   */\n      0x41\n        /* \"#utility.yul\":11927:11928   */\n      0x04\n        /* \"#utility.yul\":11920:11935   */\n      mstore\n        /* \"#utility.yul\":11954:11958   */\n      0x24\n        /* \"#utility.yul\":11951:11952   */\n      0x00\n        /* \"#utility.yul\":11944:11959   */\n      revert\n        /* \"#utility.yul\":11971:12142   */\n    tag_206:\n        /* \"#utility.yul\":12010:12013   */\n      0x00\n        /* \"#utility.yul\":12033:12057   */\n      tag_371\n        /* \"#utility.yul\":12051:12056   */\n      dup3\n        /* \"#utility.yul\":12033:12057   */\n      tag_231\n      jump\t// in\n    tag_371:\n        /* \"#utility.yul\":12024:12057   */\n      swap2\n      pop\n        /* \"#utility.yul\":12079:12083   */\n      0x00\n        /* \"#utility.yul\":12072:12077   */\n      dup3\n        /* \"#utility.yul\":12069:12084   */\n      sub\n        /* \"#utility.yul\":12066:12107   */\n      tag_372\n      jumpi\n        /* \"#utility.yul\":12087:12105   */\n      tag_373\n      tag_230\n      jump\t// in\n    tag_373:\n        /* \"#utility.yul\":12066:12107   */\n    tag_372:\n        /* \"#utility.yul\":12134:12135   */\n      0x01\n        /* \"#utility.yul\":12127:12132   */\n      dup3\n        /* \"#utility.yul\":12123:12136   */\n      sub\n        /* \"#utility.yul\":12116:12136   */\n      swap1\n      pop\n        /* \"#utility.yul\":11971:12142   */\n      swap2\n      swap1\n      pop\n      jump\t// out\n        /* \"#utility.yul\":12148:12330   */\n    tag_245:\n        /* \"#utility.yul\":12288:12322   */\n      0x537472696e67733a20686578206c656e67746820696e73756666696369656e74\n        /* \"#utility.yul\":12284:12285   */\n      0x00\n        /* \"#utility.yul\":12276:12282   */\n      dup3\n        /* \"#utility.yul\":12272:12286   */\n      add\n        /* \"#utility.yul\":12265:12323   */\n      mstore\n        /* \"#utility.yul\":12148:12330   */\n      pop\n      jump\t// out\n        /* \"#utility.yul\":12336:12702   */\n    tag_246:\n        /* \"#utility.yul\":12478:12481   */\n      0x00\n        /* \"#utility.yul\":12499:12566   */\n      tag_376\n        /* \"#utility.yul\":12563:12565   */\n      0x20\n        /* \"#utility.yul\":12558:12561   */\n      dup4\n        /* \"#utility.yul\":12499:12566   */\n      tag_232\n      jump\t// in\n    tag_376:\n        /* \"#utility.yul\":12492:12566   */\n      swap2\n      pop\n        /* \"#utility.yul\":12575:12668   */\n      tag_377\n        /* \"#utility.yul\":12664:12667   */\n      dup3\n        /* \"#utility.yul\":12575:12668   */\n      tag_245\n      jump\t// in\n    tag_377:\n        /* \"#utility.yul\":12693:12695   */\n      0x20\n        /* \"#utility.yul\":12688:12691   */\n      dup3\n        /* \"#utility.yul\":12684:12696   */\n      add\n        /* \"#utility.yul\":12677:12696   */\n      swap1\n      pop\n        /* \"#utility.yul\":12336:12702   */\n      swap2\n      swap1\n      pop\n      jump\t// out\n        /* \"#utility.yul\":12708:13127   */\n    tag_209:\n        /* \"#utility.yul\":12874:12878   */\n      0x00\n        /* \"#utility.yul\":12912:12914   */\n      0x20\n        /* \"#utility.yul\":12901:12910   */\n      dup3\n        /* \"#utility.yul\":12897:12915   */\n      add\n        /* \"#utility.yul\":12889:12915   */\n      swap1\n      pop\n        /* \"#utility.yul\":12961:12970   */\n      dup2\n        /* \"#utility.yul\":12955:12959   */\n      dup2\n        /* \"#utility.yul\":12951:12971   */\n      sub\n        /* \"#utility.yul\":12947:12948   */\n      0x00\n        /* \"#utility.yul\":12936:12945   */\n      dup4\n        /* \"#utility.yul\":12932:12949   */\n      add\n        /* \"#utility.yul\":12925:12972   */\n      mstore\n        /* \"#utility.yul\":12989:13120   */\n      tag_379\n        /* \"#utility.yul\":13115:13119   */\n      dup2\n        /* \"#utility.yul\":12989:13120   */\n      tag_246\n      jump\t// in\n    tag_379:\n        /* \"#utility.yul\":12981:13120   */\n      swap1\n      pop\n        /* \"#utility.yul\":12708:13127   */\n      swap2\n      swap1\n      pop\n      jump\t// out\n\n    auxdata: 0xa2646970667358221220c4cf01b87d7b5c0c080a81474cc31f444e0fe02e91009c849f34a4f2c4f02cb264736f6c63430008120033\n}\n",
				"bytecode": {
					"linkReferences": {},
					"object": "608060405234801561001057600080fd5b506100246000801b3361002960201b60201c565b610187565b610039828261011560201b60201c565b61011157600160008084815260200190815260200160002060000160008373ffffffffffffffffffffffffffffffffffffffff1673ffffffffffffffffffffffffffffffffffffffff16815260200190815260200160002060006101000a81548160ff0219169083151502179055506100b661017f60201b60201c565b73ffffffffffffffffffffffffffffffffffffffff168173ffffffffffffffffffffffffffffffffffffffff16837f2f8788117e7eff1d82e926ec794901d17c78024a50270940304540a733656f0d60405160405180910390a45b5050565b600080600084815260200190815260200160002060000160008373ffffffffffffffffffffffffffffffffffffffff1673ffffffffffffffffffffffffffffffffffffffff16815260200190815260200160002060009054906101000a900460ff16905092915050565b600033905090565b611496806101966000396000f3fe608060405234801561001057600080fd5b50600436106100f55760003560e01c80636c79af1011610097578063a217fddf11610066578063a217fddf146102a6578063ab4bca64146102c4578063d547741f146102e0578063e43252d7146102fc576100f5565b80636c79af101461020e5780638ab1d6811461022a57806391d14854146102465780639b19251a14610276576100f5565b8063248a9ca3116100d3578063248a9ca3146101765780632f2ff15d146101a657806336568abe146101c25780633af32abf146101de576100f5565b806301ffc9a7146100fa5780630a84246d1461012a5780631c84bfc214610146575b600080fd5b610114600480360381019061010f9190610db7565b610318565b6040516101219190610dff565b60405180910390f35b610144600480360381019061013f9190610e78565b610392565b005b610160600480360381019061015b9190610f0a565b6103b0565b60405161016d9190610dff565b60405180910390f35b610190600480360381019061018b9190610f8d565b61041e565b60405161019d9190610fc9565b60405180910390f35b6101c060048036038101906101bb9190610fe4565b61043d565b005b6101dc60048036038101906101d79190610fe4565b61045e565b005b6101f860048036038101906101f39190610e78565b6104e1565b6040516102059190610dff565b60405180910390f35b61022860048036038101906102239190610f0a565b610537565b005b610244600480360381019061023f9190610e78565b61059b565b005b610260600480360381019061025b9190610fe4565b6105b5565b60405161026d9190610dff565b60405180910390f35b610290600480360381019061028b9190610e78565b61061f565b60405161029d9190610dff565b60405180910390f35b6102ae61063f565b6040516102bb9190610fc9565b60405180910390f35b6102de60048036038101906102d99190610f0a565b610646565b005b6102fa60048036038101906102f59190610fe4565b6106aa565b005b61031660048036038101906103119190610e78565b6106cb565b005b60007f7965db0b000000000000000000000000000000000000000000000000000000007bffffffffffffffffffffffffffffffffffffffffffffffffffffffff1916827bffffffffffffffffffffffffffffffffffffffffffffffffffffffff1916148061038b575061038a826106e5565b5b9050919050565b6000801b61039f8161074f565b6103ac6000801b83610763565b5050565b600080600090505b83839050811015610412576103f38484838181106103d9576103d8611024565b5b90506020020160208101906103ee9190610e78565b6104e1565b610401576000915050610418565b8061040b9061108c565b90506103b8565b50600190505b92915050565b6000806000838152602001908152602001600020600101549050919050565b6104468261041e565b61044f8161074f565b6104598383610763565b505050565b610466610843565b73ffffffffffffffffffffffffffffffffffffffff168173ffffffffffffffffffffffffffffffffffffffff16146104d3576040517f08c379a00000000000000000000000000000000000000000000000000000000081526004016104ca90611157565b60405180910390fd5b6104dd828261084b565b5050565b6000600160008373ffffffffffffffffffffffffffffffffffffffff1673ffffffffffffffffffffffffffffffffffffffff16815260200190815260200160002060009054906101000a900460ff169050919050565b6000801b6105448161074f565b60005b838390508110156105955761058284848381811061056857610567611024565b5b905060200201602081019061057d9190610e78565b61092c565b808061058d9061108c565b915050610547565b50505050565b6000801b6105a88161074f565b6105b1826109c9565b5050565b600080600084815260200190815260200160002060000160008373ffffffffffffffffffffffffffffffffffffffff1673ffffffffffffffffffffffffffffffffffffffff16815260200190815260200160002060009054906101000a900460ff16905092915050565b60016020528060005260406000206000915054906101000a900460ff1681565b6000801b81565b6000801b6106538161074f565b60005b838390508110156106a45761069184848381811061067757610676611024565b5b905060200201602081019061068c9190610e78565b6109c9565b808061069c9061108c565b915050610656565b50505050565b6106b38261041e565b6106bc8161074f565b6106c6838361084b565b505050565b6000801b6106d88161074f565b6106e18261092c565b5050565b60007f01ffc9a7000000000000000000000000000000000000000000000000000000007bffffffffffffffffffffffffffffffffffffffffffffffffffffffff1916827bffffffffffffffffffffffffffffffffffffffffffffffffffffffff1916149050919050565b6107608161075b610843565b610a67565b50565b61076d82826105b5565b61083f57600160008084815260200190815260200160002060000160008373ffffffffffffffffffffffffffffffffffffffff1673ffffffffffffffffffffffffffffffffffffffff16815260200190815260200160002060006101000a81548160ff0219169083151502179055506107e4610843565b73ffffffffffffffffffffffffffffffffffffffff168173ffffffffffffffffffffffffffffffffffffffff16837f2f8788117e7eff1d82e926ec794901d17c78024a50270940304540a733656f0d60405160405180910390a45b5050565b600033905090565b61085582826105b5565b1561092857600080600084815260200190815260200160002060000160008373ffffffffffffffffffffffffffffffffffffffff1673ffffffffffffffffffffffffffffffffffffffff16815260200190815260200160002060006101000a81548160ff0219169083151502179055506108cd610843565b73ffffffffffffffffffffffffffffffffffffffff168173ffffffffffffffffffffffffffffffffffffffff16837ff6391f5c32d9c69d2a47ea670b442974b53935d1edc7fd64eb21e047a839171b60405160405180910390a45b5050565b60018060008373ffffffffffffffffffffffffffffffffffffffff1673ffffffffffffffffffffffffffffffffffffffff16815260200190815260200160002060006101000a81548160ff0219169083151502179055508073ffffffffffffffffffffffffffffffffffffffff167faab7954e9d246b167ef88aeddad35209ca2489d95a8aeb59e288d9b19fae5a5460405160405180910390a250565b6000600160008373ffffffffffffffffffffffffffffffffffffffff1673ffffffffffffffffffffffffffffffffffffffff16815260200190815260200160002060006101000a81548160ff0219169083151502179055508073ffffffffffffffffffffffffffffffffffffffff167f066a905b79c0121afe61e3a44e0b14b6bc1ec16d854cdba09efdfc9b6aa9af8160405160405180910390a250565b610a7182826105b5565b610ae857610a7e81610aec565b610a8c8360001c6020610b19565b604051602001610a9d929190611280565b6040516020818303038152906040526040517f08c379a0000000000000000000000000000000000000000000000000000000008152600401610adf9190611304565b60405180910390fd5b5050565b6060610b128273ffffffffffffffffffffffffffffffffffffffff16601460ff16610b19565b9050919050565b606060006002836002610b2c9190611326565b610b369190611368565b67ffffffffffffffff811115610b4f57610b4e61139c565b5b6040519080825280601f01601f191660200182016040528015610b815781602001600182028036833780820191505090505b5090507f300000000000000000000000000000000000000000000000000000000000000081600081518110610bb957610bb8611024565b5b60200101907effffffffffffffffffffffffffffffffffffffffffffffffffffffffffffff1916908160001a9053507f780000000000000000000000000000000000000000000000000000000000000081600181518110610c1d57610c1c611024565b5b60200101907effffffffffffffffffffffffffffffffffffffffffffffffffffffffffffff1916908160001a90535060006001846002610c5d9190611326565b610c679190611368565b90505b6001811115610d07577f3031323334353637383961626364656600000000000000000000000000000000600f861660108110610ca957610ca8611024565b5b1a60f81b828281518110610cc057610cbf611024565b5b60200101907effffffffffffffffffffffffffffffffffffffffffffffffffffffffffffff1916908160001a905350600485901c945080610d00906113cb565b9050610c6a565b5060008414610d4b576040517f08c379a0000000000000000000000000000000000000000000000000000000008152600401610d4290611440565b60405180910390fd5b8091505092915050565b600080fd5b600080fd5b60007fffffffff0000000000000000000000000000000000000000000000000000000082169050919050565b610d9481610d5f565b8114610d9f57600080fd5b50565b600081359050610db181610d8b565b92915050565b600060208284031215610dcd57610dcc610d55565b5b6000610ddb84828501610da2565b91505092915050565b60008115159050919050565b610df981610de4565b82525050565b6000602082019050610e146000830184610df0565b92915050565b600073ffffffffffffffffffffffffffffffffffffffff82169050919050565b6000610e4582610e1a565b9050919050565b610e5581610e3a565b8114610e6057600080fd5b50565b600081359050610e7281610e4c565b92915050565b600060208284031215610e8e57610e8d610d55565b5b6000610e9c84828501610e63565b91505092915050565b600080fd5b600080fd5b600080fd5b60008083601f840112610eca57610ec9610ea5565b5b8235905067ffffffffffffffff811115610ee757610ee6610eaa565b5b602083019150836020820283011115610f0357610f02610eaf565b5b9250929050565b60008060208385031215610f2157610f20610d55565b5b600083013567ffffffffffffffff811115610f3f57610f3e610d5a565b5b610f4b85828601610eb4565b92509250509250929050565b6000819050919050565b610f6a81610f57565b8114610f7557600080fd5b50565b600081359050610f8781610f61565b92915050565b600060208284031215610fa357610fa2610d55565b5b6000610fb184828501610f78565b91505092915050565b610fc381610f57565b82525050565b6000602082019050610fde6000830184610fba565b92915050565b60008060408385031215610ffb57610ffa610d55565b5b600061100985828601610f78565b925050602061101a85828601610e63565b9150509250929050565b7f4e487b7100000000000000000000000000000000000000000000000000000000600052603260045260246000fd5b7f4e487b7100000000000000000000000000000000000000000000000000000000600052601160045260246000fd5b6000819050919050565b600061109782611082565b91507fffffffffffffffffffffffffffffffffffffffffffffffffffffffffffffffff82036110c9576110c8611053565b5b600182019050919050565b600082825260208201905092915050565b7f416363657373436f6e74726f6c3a2063616e206f6e6c792072656e6f756e636560008201527f20726f6c657320666f722073656c660000000000000000000000000000000000602082015250565b6000611141602f836110d4565b915061114c826110e5565b604082019050919050565b6000602082019050818103600083015261117081611134565b9050919050565b600081905092915050565b7f416363657373436f6e74726f6c3a206163636f756e7420000000000000000000600082015250565b60006111b8601783611177565b91506111c382611182565b601782019050919050565b600081519050919050565b60005b838110156111f75780820151818401526020810190506111dc565b60008484015250505050565b600061120e826111ce565b6112188185611177565b93506112288185602086016111d9565b80840191505092915050565b7f206973206d697373696e6720726f6c6520000000000000000000000000000000600082015250565b600061126a601183611177565b915061127582611234565b601182019050919050565b600061128b826111ab565b91506112978285611203565b91506112a28261125d565b91506112ae8284611203565b91508190509392505050565b6000601f19601f8301169050919050565b60006112d6826111ce565b6112e081856110d4565b93506112f08185602086016111d9565b6112f9816112ba565b840191505092915050565b6000602082019050818103600083015261131e81846112cb565b905092915050565b600061133182611082565b915061133c83611082565b925082820261134a81611082565b9150828204841483151761136157611360611053565b5b5092915050565b600061137382611082565b915061137e83611082565b925082820190508082111561139657611395611053565b5b92915050565b7f4e487b7100000000000000000000000000000000000000000000000000000000600052604160045260246000fd5b60006113d682611082565b9150600082036113e9576113e8611053565b5b600182039050919050565b7f537472696e67733a20686578206c656e67746820696e73756666696369656e74600082015250565b600061142a6020836110d4565b9150611435826113f4565b602082019050919050565b600060208201905081810360008301526114598161141d565b905091905056fea2646970667358221220c4cf01b87d7b5c0c080a81474cc31f444e0fe02e91009c849f34a4f2c4f02cb264736f6c63430008120033",
					"opcodes": "PUSH1 0x80 PUSH1 0x40 MSTORE CALLVALUE DUP1 ISZERO PUSH2 0x10 JUMPI PUSH1 0x0 DUP1 REVERT JUMPDEST POP PUSH2 0x24 PUSH1 0x0 DUP1 SHL CALLER PUSH2 0x29 PUSH1 0x20 SHL PUSH1 0x20 SHR JUMP JUMPDEST PUSH2 0x187 JUMP JUMPDEST PUSH2 0x39 DUP3 DUP3 PUSH2 0x115 PUSH1 0x20 SHL PUSH1 0x20 SHR JUMP JUMPDEST PUSH2 0x111 JUMPI PUSH1 0x1 PUSH1 0x0 DUP1 DUP5 DUP2 MSTORE PUSH1 0x20 ADD SWAP1 DUP2 MSTORE PUSH1 0x20 ADD PUSH1 0x0 KECCAK256 PUSH1 0x0 ADD PUSH1 0x0 DUP4 PUSH20 0xFFFFFFFFFFFFFFFFFFFFFFFFFFFFFFFFFFFFFFFF AND PUSH20 0xFFFFFFFFFFFFFFFFFFFFFFFFFFFFFFFFFFFFFFFF AND DUP2 MSTORE PUSH1 0x20 ADD SWAP1 DUP2 MSTORE PUSH1 0x20 ADD PUSH1 0x0 KECCAK256 PUSH1 0x0 PUSH2 0x100 EXP DUP2 SLOAD DUP2 PUSH1 0xFF MUL NOT AND SWAP1 DUP4 ISZERO ISZERO MUL OR SWAP1 SSTORE POP PUSH2 0xB6 PUSH2 0x17F PUSH1 0x20 SHL PUSH1 0x20 SHR JUMP JUMPDEST PUSH20 0xFFFFFFFFFFFFFFFFFFFFFFFFFFFFFFFFFFFFFFFF AND DUP2 PUSH20 0xFFFFFFFFFFFFFFFFFFFFFFFFFFFFFFFFFFFFFFFF AND DUP4 PUSH32 0x2F8788117E7EFF1D82E926EC794901D17C78024A50270940304540A733656F0D PUSH1 0x40 MLOAD PUSH1 0x40 MLOAD DUP1 SWAP2 SUB SWAP1 LOG4 JUMPDEST POP POP JUMP JUMPDEST PUSH1 0x0 DUP1 PUSH1 0x0 DUP5 DUP2 MSTORE PUSH1 0x20 ADD SWAP1 DUP2 MSTORE PUSH1 0x20 ADD PUSH1 0x0 KECCAK256 PUSH1 0x0 ADD PUSH1 0x0 DUP4 PUSH20 0xFFFFFFFFFFFFFFFFFFFFFFFFFFFFFFFFFFFFFFFF AND PUSH20 0xFFFFFFFFFFFFFFFFFFFFFFFFFFFFFFFFFFFFFFFF AND DUP2 MSTORE PUSH1 0x20 ADD SWAP1 DUP2 MSTORE PUSH1 0x20 ADD PUSH1 0x0 KECCAK256 PUSH1 0x0 SWAP1 SLOAD SWAP1 PUSH2 0x100 EXP SWAP1 DIV PUSH1 0xFF AND SWAP1 POP SWAP3 SWAP2 POP POP JUMP JUMPDEST PUSH1 0x0 CALLER SWAP1 POP SWAP1 JUMP JUMPDEST PUSH2 0x1496 DUP1 PUSH2 0x196 PUSH1 0x0 CODECOPY PUSH1 0x0 RETURN INVALID PUSH1 0x80 PUSH1 0x40 MSTORE CALLVALUE DUP1 ISZERO PUSH2 0x10 JUMPI PUSH1 0x0 DUP1 REVERT JUMPDEST POP PUSH1 0x4 CALLDATASIZE LT PUSH2 0xF5 JUMPI PUSH1 0x0 CALLDATALOAD PUSH1 0xE0 SHR DUP1 PUSH4 0x6C79AF10 GT PUSH2 0x97 JUMPI DUP1 PUSH4 0xA217FDDF GT PUSH2 0x66 JUMPI DUP1 PUSH4 0xA217FDDF EQ PUSH2 0x2A6 JUMPI DUP1 PUSH4 0xAB4BCA64 EQ PUSH2 0x2C4 JUMPI DUP1 PUSH4 0xD547741F EQ PUSH2 0x2E0 JUMPI DUP1 PUSH4 0xE43252D7 EQ PUSH2 0x2FC JUMPI PUSH2 0xF5 JUMP JUMPDEST DUP1 PUSH4 0x6C79AF10 EQ PUSH2 0x20E JUMPI DUP1 PUSH4 0x8AB1D681 EQ PUSH2 0x22A JUMPI DUP1 PUSH4 0x91D14854 EQ PUSH2 0x246 JUMPI DUP1 PUSH4 0x9B19251A EQ PUSH2 0x276 JUMPI PUSH2 0xF5 JUMP JUMPDEST DUP1 PUSH4 0x248A9CA3 GT PUSH2 0xD3 JUMPI DUP1 PUSH4 0x248A9CA3 EQ PUSH2 0x176 JUMPI DUP1 PUSH4 0x2F2FF15D EQ PUSH2 0x1A6 JUMPI DUP1 PUSH4 0x36568ABE EQ PUSH2 0x1C2 JUMPI DUP1 PUSH4 0x3AF32ABF EQ PUSH2 0x1DE JUMPI PUSH2 0xF5 JUMP JUMPDEST DUP1 PUSH4 0x1FFC9A7 EQ PUSH2 0xFA JUMPI DUP1 PUSH4 0xA84246D EQ PUSH2 0x12A JUMPI DUP1 PUSH4 0x1C84BFC2 EQ PUSH2 0x146 JUMPI JUMPDEST PUSH1 0x0 DUP1 REVERT JUMPDEST PUSH2 0x114 PUSH1 0x4 DUP1 CALLDATASIZE SUB DUP2 ADD SWAP1 PUSH2 0x10F SWAP2 SWAP1 PUSH2 0xDB7 JUMP JUMPDEST PUSH2 0x318 JUMP JUMPDEST PUSH1 0x40 MLOAD PUSH2 0x121 SWAP2 SWAP1 PUSH2 0xDFF JUMP JUMPDEST PUSH1 0x40 MLOAD DUP1 SWAP2 SUB SWAP1 RETURN JUMPDEST PUSH2 0x144 PUSH1 0x4 DUP1 CALLDATASIZE SUB DUP2 ADD SWAP1 PUSH2 0x13F SWAP2 SWAP1 PUSH2 0xE78 JUMP JUMPDEST PUSH2 0x392 JUMP JUMPDEST STOP JUMPDEST PUSH2 0x160 PUSH1 0x4 DUP1 CALLDATASIZE SUB DUP2 ADD SWAP1 PUSH2 0x15B SWAP2 SWAP1 PUSH2 0xF0A JUMP JUMPDEST PUSH2 0x3B0 JUMP JUMPDEST PUSH1 0x40 MLOAD PUSH2 0x16D SWAP2 SWAP1 PUSH2 0xDFF JUMP JUMPDEST PUSH1 0x40 MLOAD DUP1 SWAP2 SUB SWAP1 RETURN JUMPDEST PUSH2 0x190 PUSH1 0x4 DUP1 CALLDATASIZE SUB DUP2 ADD SWAP1 PUSH2 0x18B SWAP2 SWAP1 PUSH2 0xF8D JUMP JUMPDEST PUSH2 0x41E JUMP JUMPDEST PUSH1 0x40 MLOAD PUSH2 0x19D SWAP2 SWAP1 PUSH2 0xFC9 JUMP JUMPDEST PUSH1 0x40 MLOAD DUP1 SWAP2 SUB SWAP1 RETURN JUMPDEST PUSH2 0x1C0 PUSH1 0x4 DUP1 CALLDATASIZE SUB DUP2 ADD SWAP1 PUSH2 0x1BB SWAP2 SWAP1 PUSH2 0xFE4 JUMP JUMPDEST PUSH2 0x43D JUMP JUMPDEST STOP JUMPDEST PUSH2 0x1DC PUSH1 0x4 DUP1 CALLDATASIZE SUB DUP2 ADD SWAP1 PUSH2 0x1D7 SWAP2 SWAP1 PUSH2 0xFE4 JUMP JUMPDEST PUSH2 0x45E JUMP JUMPDEST STOP JUMPDEST PUSH2 0x1F8 PUSH1 0x4 DUP1 CALLDATASIZE SUB DUP2 ADD SWAP1 PUSH2 0x1F3 SWAP2 SWAP1 PUSH2 0xE78 JUMP JUMPDEST PUSH2 0x4E1 JUMP JUMPDEST PUSH1 0x40 MLOAD PUSH2 0x205 SWAP2 SWAP1 PUSH2 0xDFF JUMP JUMPDEST PUSH1 0x40 MLOAD DUP1 SWAP2 SUB SWAP1 RETURN JUMPDEST PUSH2 0x228 PUSH1 0x4 DUP1 CALLDATASIZE SUB DUP2 ADD SWAP1 PUSH2 0x223 SWAP2 SWAP1 PUSH2 0xF0A JUMP JUMPDEST PUSH2 0x537 JUMP JUMPDEST STOP JUMPDEST PUSH2 0x244 PUSH1 0x4 DUP1 CALLDATASIZE SUB DUP2 ADD SWAP1 PUSH2 0x23F SWAP2 SWAP1 PUSH2 0xE78 JUMP JUMPDEST PUSH2 0x59B JUMP JUMPDEST STOP JUMPDEST PUSH2 0x260 PUSH1 0x4 DUP1 CALLDATASIZE SUB DUP2 ADD SWAP1 PUSH2 0x25B SWAP2 SWAP1 PUSH2 0xFE4 JUMP JUMPDEST PUSH2 0x5B5 JUMP JUMPDEST PUSH1 0x40 MLOAD PUSH2 0x26D SWAP2 SWAP1 PUSH2 0xDFF JUMP JUMPDEST PUSH1 0x40 MLOAD DUP1 SWAP2 SUB SWAP1 RETURN JUMPDEST PUSH2 0x290 PUSH1 0x4 DUP1 CALLDATASIZE SUB DUP2 ADD SWAP1 PUSH2 0x28B SWAP2 SWAP1 PUSH2 0xE78 JUMP JUMPDEST PUSH2 0x61F JUMP JUMPDEST PUSH1 0x40 MLOAD PUSH2 0x29D SWAP2 SWAP1 PUSH2 0xDFF JUMP JUMPDEST PUSH1 0x40 MLOAD DUP1 SWAP2 SUB SWAP1 RETURN JUMPDEST PUSH2 0x2AE PUSH2 0x63F JUMP JUMPDEST PUSH1 0x40 MLOAD PUSH2 0x2BB SWAP2 SWAP1 PUSH2 0xFC9 JUMP JUMPDEST PUSH1 0x40 MLOAD DUP1 SWAP2 SUB SWAP1 RETURN JUMPDEST PUSH2 0x2DE PUSH1 0x4 DUP1 CALLDATASIZE SUB DUP2 ADD SWAP1 PUSH2 0x2D9 SWAP2 SWAP1 PUSH2 0xF0A JUMP JUMPDEST PUSH2 0x646 JUMP JUMPDEST STOP JUMPDEST PUSH2 0x2FA PUSH1 0x4 DUP1 CALLDATASIZE SUB DUP2 ADD SWAP1 PUSH2 0x2F5 SWAP2 SWAP1 PUSH2 0xFE4 JUMP JUMPDEST PUSH2 0x6AA JUMP JUMPDEST STOP JUMPDEST PUSH2 0x316 PUSH1 0x4 DUP1 CALLDATASIZE SUB DUP2 ADD SWAP1 PUSH2 0x311 SWAP2 SWAP1 PUSH2 0xE78 JUMP JUMPDEST PUSH2 0x6CB JUMP JUMPDEST STOP JUMPDEST PUSH1 0x0 PUSH32 0x7965DB0B00000000000000000000000000000000000000000000000000000000 PUSH28 0xFFFFFFFFFFFFFFFFFFFFFFFFFFFFFFFFFFFFFFFFFFFFFFFFFFFFFFFF NOT AND DUP3 PUSH28 0xFFFFFFFFFFFFFFFFFFFFFFFFFFFFFFFFFFFFFFFFFFFFFFFFFFFFFFFF NOT AND EQ DUP1 PUSH2 0x38B JUMPI POP PUSH2 0x38A DUP3 PUSH2 0x6E5 JUMP JUMPDEST JUMPDEST SWAP1 POP SWAP2 SWAP1 POP JUMP JUMPDEST PUSH1 0x0 DUP1 SHL PUSH2 0x39F DUP2 PUSH2 0x74F JUMP JUMPDEST PUSH2 0x3AC PUSH1 0x0 DUP1 SHL DUP4 PUSH2 0x763 JUMP JUMPDEST POP POP JUMP JUMPDEST PUSH1 0x0 DUP1 PUSH1 0x0 SWAP1 POP JUMPDEST DUP4 DUP4 SWAP1 POP DUP2 LT ISZERO PUSH2 0x412 JUMPI PUSH2 0x3F3 DUP5 DUP5 DUP4 DUP2 DUP2 LT PUSH2 0x3D9 JUMPI PUSH2 0x3D8 PUSH2 0x1024 JUMP JUMPDEST JUMPDEST SWAP1 POP PUSH1 0x20 MUL ADD PUSH1 0x20 DUP2 ADD SWAP1 PUSH2 0x3EE SWAP2 SWAP1 PUSH2 0xE78 JUMP JUMPDEST PUSH2 0x4E1 JUMP JUMPDEST PUSH2 0x401 JUMPI PUSH1 0x0 SWAP2 POP POP PUSH2 0x418 JUMP JUMPDEST DUP1 PUSH2 0x40B SWAP1 PUSH2 0x108C JUMP JUMPDEST SWAP1 POP PUSH2 0x3B8 JUMP JUMPDEST POP PUSH1 0x1 SWAP1 POP JUMPDEST SWAP3 SWAP2 POP POP JUMP JUMPDEST PUSH1 0x0 DUP1 PUSH1 0x0 DUP4 DUP2 MSTORE PUSH1 0x20 ADD SWAP1 DUP2 MSTORE PUSH1 0x20 ADD PUSH1 0x0 KECCAK256 PUSH1 0x1 ADD SLOAD SWAP1 POP SWAP2 SWAP1 POP JUMP JUMPDEST PUSH2 0x446 DUP3 PUSH2 0x41E JUMP JUMPDEST PUSH2 0x44F DUP2 PUSH2 0x74F JUMP JUMPDEST PUSH2 0x459 DUP4 DUP4 PUSH2 0x763 JUMP JUMPDEST POP POP POP JUMP JUMPDEST PUSH2 0x466 PUSH2 0x843 JUMP JUMPDEST PUSH20 0xFFFFFFFFFFFFFFFFFFFFFFFFFFFFFFFFFFFFFFFF AND DUP2 PUSH20 0xFFFFFFFFFFFFFFFFFFFFFFFFFFFFFFFFFFFFFFFF AND EQ PUSH2 0x4D3 JUMPI PUSH1 0x40 MLOAD PUSH32 0x8C379A000000000000000000000000000000000000000000000000000000000 DUP2 MSTORE PUSH1 0x4 ADD PUSH2 0x4CA SWAP1 PUSH2 0x1157 JUMP JUMPDEST PUSH1 0x40 MLOAD DUP1 SWAP2 SUB SWAP1 REVERT JUMPDEST PUSH2 0x4DD DUP3 DUP3 PUSH2 0x84B JUMP JUMPDEST POP POP JUMP JUMPDEST PUSH1 0x0 PUSH1 0x1 PUSH1 0x0 DUP4 PUSH20 0xFFFFFFFFFFFFFFFFFFFFFFFFFFFFFFFFFFFFFFFF AND PUSH20 0xFFFFFFFFFFFFFFFFFFFFFFFFFFFFFFFFFFFFFFFF AND DUP2 MSTORE PUSH1 0x20 ADD SWAP1 DUP2 MSTORE PUSH1 0x20 ADD PUSH1 0x0 KECCAK256 PUSH1 0x0 SWAP1 SLOAD SWAP1 PUSH2 0x100 EXP SWAP1 DIV PUSH1 0xFF AND SWAP1 POP SWAP2 SWAP1 POP JUMP JUMPDEST PUSH1 0x0 DUP1 SHL PUSH2 0x544 DUP2 PUSH2 0x74F JUMP JUMPDEST PUSH1 0x0 JUMPDEST DUP4 DUP4 SWAP1 POP DUP2 LT ISZERO PUSH2 0x595 JUMPI PUSH2 0x582 DUP5 DUP5 DUP4 DUP2 DUP2 LT PUSH2 0x568 JUMPI PUSH2 0x567 PUSH2 0x1024 JUMP JUMPDEST JUMPDEST SWAP1 POP PUSH1 0x20 MUL ADD PUSH1 0x20 DUP2 ADD SWAP1 PUSH2 0x57D SWAP2 SWAP1 PUSH2 0xE78 JUMP JUMPDEST PUSH2 0x92C JUMP JUMPDEST DUP1 DUP1 PUSH2 0x58D SWAP1 PUSH2 0x108C JUMP JUMPDEST SWAP2 POP POP PUSH2 0x547 JUMP JUMPDEST POP POP POP POP JUMP JUMPDEST PUSH1 0x0 DUP1 SHL PUSH2 0x5A8 DUP2 PUSH2 0x74F JUMP JUMPDEST PUSH2 0x5B1 DUP3 PUSH2 0x9C9 JUMP JUMPDEST POP POP JUMP JUMPDEST PUSH1 0x0 DUP1 PUSH1 0x0 DUP5 DUP2 MSTORE PUSH1 0x20 ADD SWAP1 DUP2 MSTORE PUSH1 0x20 ADD PUSH1 0x0 KECCAK256 PUSH1 0x0 ADD PUSH1 0x0 DUP4 PUSH20 0xFFFFFFFFFFFFFFFFFFFFFFFFFFFFFFFFFFFFFFFF AND PUSH20 0xFFFFFFFFFFFFFFFFFFFFFFFFFFFFFFFFFFFFFFFF AND DUP2 MSTORE PUSH1 0x20 ADD SWAP1 DUP2 MSTORE PUSH1 0x20 ADD PUSH1 0x0 KECCAK256 PUSH1 0x0 SWAP1 SLOAD SWAP1 PUSH2 0x100 EXP SWAP1 DIV PUSH1 0xFF AND SWAP1 POP SWAP3 SWAP2 POP POP JUMP JUMPDEST PUSH1 0x1 PUSH1 0x20 MSTORE DUP1 PUSH1 0x0 MSTORE PUSH1 0x40 PUSH1 0x0 KECCAK256 PUSH1 0x0 SWAP2 POP SLOAD SWAP1 PUSH2 0x100 EXP SWAP1 DIV PUSH1 0xFF AND DUP2 JUMP JUMPDEST PUSH1 0x0 DUP1 SHL DUP2 JUMP JUMPDEST PUSH1 0x0 DUP1 SHL PUSH2 0x653 DUP2 PUSH2 0x74F JUMP JUMPDEST PUSH1 0x0 JUMPDEST DUP4 DUP4 SWAP1 POP DUP2 LT ISZERO PUSH2 0x6A4 JUMPI PUSH2 0x691 DUP5 DUP5 DUP4 DUP2 DUP2 LT PUSH2 0x677 JUMPI PUSH2 0x676 PUSH2 0x1024 JUMP JUMPDEST JUMPDEST SWAP1 POP PUSH1 0x20 MUL ADD PUSH1 0x20 DUP2 ADD SWAP1 PUSH2 0x68C SWAP2 SWAP1 PUSH2 0xE78 JUMP JUMPDEST PUSH2 0x9C9 JUMP JUMPDEST DUP1 DUP1 PUSH2 0x69C SWAP1 PUSH2 0x108C JUMP JUMPDEST SWAP2 POP POP PUSH2 0x656 JUMP JUMPDEST POP POP POP POP JUMP JUMPDEST PUSH2 0x6B3 DUP3 PUSH2 0x41E JUMP JUMPDEST PUSH2 0x6BC DUP2 PUSH2 0x74F JUMP JUMPDEST PUSH2 0x6C6 DUP4 DUP4 PUSH2 0x84B JUMP JUMPDEST POP POP POP JUMP JUMPDEST PUSH1 0x0 DUP1 SHL PUSH2 0x6D8 DUP2 PUSH2 0x74F JUMP JUMPDEST PUSH2 0x6E1 DUP3 PUSH2 0x92C JUMP JUMPDEST POP POP JUMP JUMPDEST PUSH1 0x0 PUSH32 0x1FFC9A700000000000000000000000000000000000000000000000000000000 PUSH28 0xFFFFFFFFFFFFFFFFFFFFFFFFFFFFFFFFFFFFFFFFFFFFFFFFFFFFFFFF NOT AND DUP3 PUSH28 0xFFFFFFFFFFFFFFFFFFFFFFFFFFFFFFFFFFFFFFFFFFFFFFFFFFFFFFFF NOT AND EQ SWAP1 POP SWAP2 SWAP1 POP JUMP JUMPDEST PUSH2 0x760 DUP2 PUSH2 0x75B PUSH2 0x843 JUMP JUMPDEST PUSH2 0xA67 JUMP JUMPDEST POP JUMP JUMPDEST PUSH2 0x76D DUP3 DUP3 PUSH2 0x5B5 JUMP JUMPDEST PUSH2 0x83F JUMPI PUSH1 0x1 PUSH1 0x0 DUP1 DUP5 DUP2 MSTORE PUSH1 0x20 ADD SWAP1 DUP2 MSTORE PUSH1 0x20 ADD PUSH1 0x0 KECCAK256 PUSH1 0x0 ADD PUSH1 0x0 DUP4 PUSH20 0xFFFFFFFFFFFFFFFFFFFFFFFFFFFFFFFFFFFFFFFF AND PUSH20 0xFFFFFFFFFFFFFFFFFFFFFFFFFFFFFFFFFFFFFFFF AND DUP2 MSTORE PUSH1 0x20 ADD SWAP1 DUP2 MSTORE PUSH1 0x20 ADD PUSH1 0x0 KECCAK256 PUSH1 0x0 PUSH2 0x100 EXP DUP2 SLOAD DUP2 PUSH1 0xFF MUL NOT AND SWAP1 DUP4 ISZERO ISZERO MUL OR SWAP1 SSTORE POP PUSH2 0x7E4 PUSH2 0x843 JUMP JUMPDEST PUSH20 0xFFFFFFFFFFFFFFFFFFFFFFFFFFFFFFFFFFFFFFFF AND DUP2 PUSH20 0xFFFFFFFFFFFFFFFFFFFFFFFFFFFFFFFFFFFFFFFF AND DUP4 PUSH32 0x2F8788117E7EFF1D82E926EC794901D17C78024A50270940304540A733656F0D PUSH1 0x40 MLOAD PUSH1 0x40 MLOAD DUP1 SWAP2 SUB SWAP1 LOG4 JUMPDEST POP POP JUMP JUMPDEST PUSH1 0x0 CALLER SWAP1 POP SWAP1 JUMP JUMPDEST PUSH2 0x855 DUP3 DUP3 PUSH2 0x5B5 JUMP JUMPDEST ISZERO PUSH2 0x928 JUMPI PUSH1 0x0 DUP1 PUSH1 0x0 DUP5 DUP2 MSTORE PUSH1 0x20 ADD SWAP1 DUP2 MSTORE PUSH1 0x20 ADD PUSH1 0x0 KECCAK256 PUSH1 0x0 ADD PUSH1 0x0 DUP4 PUSH20 0xFFFFFFFFFFFFFFFFFFFFFFFFFFFFFFFFFFFFFFFF AND PUSH20 0xFFFFFFFFFFFFFFFFFFFFFFFFFFFFFFFFFFFFFFFF AND DUP2 MSTORE PUSH1 0x20 ADD SWAP1 DUP2 MSTORE PUSH1 0x20 ADD PUSH1 0x0 KECCAK256 PUSH1 0x0 PUSH2 0x100 EXP DUP2 SLOAD DUP2 PUSH1 0xFF MUL NOT AND SWAP1 DUP4 ISZERO ISZERO MUL OR SWAP1 SSTORE POP PUSH2 0x8CD PUSH2 0x843 JUMP JUMPDEST PUSH20 0xFFFFFFFFFFFFFFFFFFFFFFFFFFFFFFFFFFFFFFFF AND DUP2 PUSH20 0xFFFFFFFFFFFFFFFFFFFFFFFFFFFFFFFFFFFFFFFF AND DUP4 PUSH32 0xF6391F5C32D9C69D2A47EA670B442974B53935D1EDC7FD64EB21E047A839171B PUSH1 0x40 MLOAD PUSH1 0x40 MLOAD DUP1 SWAP2 SUB SWAP1 LOG4 JUMPDEST POP POP JUMP JUMPDEST PUSH1 0x1 DUP1 PUSH1 0x0 DUP4 PUSH20 0xFFFFFFFFFFFFFFFFFFFFFFFFFFFFFFFFFFFFFFFF AND PUSH20 0xFFFFFFFFFFFFFFFFFFFFFFFFFFFFFFFFFFFFFFFF AND DUP2 MSTORE PUSH1 0x20 ADD SWAP1 DUP2 MSTORE PUSH1 0x20 ADD PUSH1 0x0 KECCAK256 PUSH1 0x0 PUSH2 0x100 EXP DUP2 SLOAD DUP2 PUSH1 0xFF MUL NOT AND SWAP1 DUP4 ISZERO ISZERO MUL OR SWAP1 SSTORE POP DUP1 PUSH20 0xFFFFFFFFFFFFFFFFFFFFFFFFFFFFFFFFFFFFFFFF AND PUSH32 0xAAB7954E9D246B167EF88AEDDAD35209CA2489D95A8AEB59E288D9B19FAE5A54 PUSH1 0x40 MLOAD PUSH1 0x40 MLOAD DUP1 SWAP2 SUB SWAP1 LOG2 POP JUMP JUMPDEST PUSH1 0x0 PUSH1 0x1 PUSH1 0x0 DUP4 PUSH20 0xFFFFFFFFFFFFFFFFFFFFFFFFFFFFFFFFFFFFFFFF AND PUSH20 0xFFFFFFFFFFFFFFFFFFFFFFFFFFFFFFFFFFFFFFFF AND DUP2 MSTORE PUSH1 0x20 ADD SWAP1 DUP2 MSTORE PUSH1 0x20 ADD PUSH1 0x0 KECCAK256 PUSH1 0x0 PUSH2 0x100 EXP DUP2 SLOAD DUP2 PUSH1 0xFF MUL NOT AND SWAP1 DUP4 ISZERO ISZERO MUL OR SWAP1 SSTORE POP DUP1 PUSH20 0xFFFFFFFFFFFFFFFFFFFFFFFFFFFFFFFFFFFFFFFF AND PUSH32 0x66A905B79C0121AFE61E3A44E0B14B6BC1EC16D854CDBA09EFDFC9B6AA9AF81 PUSH1 0x40 MLOAD PUSH1 0x40 MLOAD DUP1 SWAP2 SUB SWAP1 LOG2 POP JUMP JUMPDEST PUSH2 0xA71 DUP3 DUP3 PUSH2 0x5B5 JUMP JUMPDEST PUSH2 0xAE8 JUMPI PUSH2 0xA7E DUP2 PUSH2 0xAEC JUMP JUMPDEST PUSH2 0xA8C DUP4 PUSH1 0x0 SHR PUSH1 0x20 PUSH2 0xB19 JUMP JUMPDEST PUSH1 0x40 MLOAD PUSH1 0x20 ADD PUSH2 0xA9D SWAP3 SWAP2 SWAP1 PUSH2 0x1280 JUMP JUMPDEST PUSH1 0x40 MLOAD PUSH1 0x20 DUP2 DUP4 SUB SUB DUP2 MSTORE SWAP1 PUSH1 0x40 MSTORE PUSH1 0x40 MLOAD PUSH32 0x8C379A000000000000000000000000000000000000000000000000000000000 DUP2 MSTORE PUSH1 0x4 ADD PUSH2 0xADF SWAP2 SWAP1 PUSH2 0x1304 JUMP JUMPDEST PUSH1 0x40 MLOAD DUP1 SWAP2 SUB SWAP1 REVERT JUMPDEST POP POP JUMP JUMPDEST PUSH1 0x60 PUSH2 0xB12 DUP3 PUSH20 0xFFFFFFFFFFFFFFFFFFFFFFFFFFFFFFFFFFFFFFFF AND PUSH1 0x14 PUSH1 0xFF AND PUSH2 0xB19 JUMP JUMPDEST SWAP1 POP SWAP2 SWAP1 POP JUMP JUMPDEST PUSH1 0x60 PUSH1 0x0 PUSH1 0x2 DUP4 PUSH1 0x2 PUSH2 0xB2C SWAP2 SWAP1 PUSH2 0x1326 JUMP JUMPDEST PUSH2 0xB36 SWAP2 SWAP1 PUSH2 0x1368 JUMP JUMPDEST PUSH8 0xFFFFFFFFFFFFFFFF DUP2 GT ISZERO PUSH2 0xB4F JUMPI PUSH2 0xB4E PUSH2 0x139C JUMP JUMPDEST JUMPDEST PUSH1 0x40 MLOAD SWAP1 DUP1 DUP3 MSTORE DUP1 PUSH1 0x1F ADD PUSH1 0x1F NOT AND PUSH1 0x20 ADD DUP3 ADD PUSH1 0x40 MSTORE DUP1 ISZERO PUSH2 0xB81 JUMPI DUP2 PUSH1 0x20 ADD PUSH1 0x1 DUP3 MUL DUP1 CALLDATASIZE DUP4 CALLDATACOPY DUP1 DUP3 ADD SWAP2 POP POP SWAP1 POP JUMPDEST POP SWAP1 POP PUSH32 0x3000000000000000000000000000000000000000000000000000000000000000 DUP2 PUSH1 0x0 DUP2 MLOAD DUP2 LT PUSH2 0xBB9 JUMPI PUSH2 0xBB8 PUSH2 0x1024 JUMP JUMPDEST JUMPDEST PUSH1 0x20 ADD ADD SWAP1 PUSH31 0xFFFFFFFFFFFFFFFFFFFFFFFFFFFFFFFFFFFFFFFFFFFFFFFFFFFFFFFFFFFFFF NOT AND SWAP1 DUP2 PUSH1 0x0 BYTE SWAP1 MSTORE8 POP PUSH32 0x7800000000000000000000000000000000000000000000000000000000000000 DUP2 PUSH1 0x1 DUP2 MLOAD DUP2 LT PUSH2 0xC1D JUMPI PUSH2 0xC1C PUSH2 0x1024 JUMP JUMPDEST JUMPDEST PUSH1 0x20 ADD ADD SWAP1 PUSH31 0xFFFFFFFFFFFFFFFFFFFFFFFFFFFFFFFFFFFFFFFFFFFFFFFFFFFFFFFFFFFFFF NOT AND SWAP1 DUP2 PUSH1 0x0 BYTE SWAP1 MSTORE8 POP PUSH1 0x0 PUSH1 0x1 DUP5 PUSH1 0x2 PUSH2 0xC5D SWAP2 SWAP1 PUSH2 0x1326 JUMP JUMPDEST PUSH2 0xC67 SWAP2 SWAP1 PUSH2 0x1368 JUMP JUMPDEST SWAP1 POP JUMPDEST PUSH1 0x1 DUP2 GT ISZERO PUSH2 0xD07 JUMPI PUSH32 0x3031323334353637383961626364656600000000000000000000000000000000 PUSH1 0xF DUP7 AND PUSH1 0x10 DUP2 LT PUSH2 0xCA9 JUMPI PUSH2 0xCA8 PUSH2 0x1024 JUMP JUMPDEST JUMPDEST BYTE PUSH1 0xF8 SHL DUP3 DUP3 DUP2 MLOAD DUP2 LT PUSH2 0xCC0 JUMPI PUSH2 0xCBF PUSH2 0x1024 JUMP JUMPDEST JUMPDEST PUSH1 0x20 ADD ADD SWAP1 PUSH31 0xFFFFFFFFFFFFFFFFFFFFFFFFFFFFFFFFFFFFFFFFFFFFFFFFFFFFFFFFFFFFFF NOT AND SWAP1 DUP2 PUSH1 0x0 BYTE SWAP1 MSTORE8 POP PUSH1 0x4 DUP6 SWAP1 SHR SWAP5 POP DUP1 PUSH2 0xD00 SWAP1 PUSH2 0x13CB JUMP JUMPDEST SWAP1 POP PUSH2 0xC6A JUMP JUMPDEST POP PUSH1 0x0 DUP5 EQ PUSH2 0xD4B JUMPI PUSH1 0x40 MLOAD PUSH32 0x8C379A000000000000000000000000000000000000000000000000000000000 DUP2 MSTORE PUSH1 0x4 ADD PUSH2 0xD42 SWAP1 PUSH2 0x1440 JUMP JUMPDEST PUSH1 0x40 MLOAD DUP1 SWAP2 SUB SWAP1 REVERT JUMPDEST DUP1 SWAP2 POP POP SWAP3 SWAP2 POP POP JUMP JUMPDEST PUSH1 0x0 DUP1 REVERT JUMPDEST PUSH1 0x0 DUP1 REVERT JUMPDEST PUSH1 0x0 PUSH32 0xFFFFFFFF00000000000000000000000000000000000000000000000000000000 DUP3 AND SWAP1 POP SWAP2 SWAP1 POP JUMP JUMPDEST PUSH2 0xD94 DUP2 PUSH2 0xD5F JUMP JUMPDEST DUP2 EQ PUSH2 0xD9F JUMPI PUSH1 0x0 DUP1 REVERT JUMPDEST POP JUMP JUMPDEST PUSH1 0x0 DUP2 CALLDATALOAD SWAP1 POP PUSH2 0xDB1 DUP2 PUSH2 0xD8B JUMP JUMPDEST SWAP3 SWAP2 POP POP JUMP JUMPDEST PUSH1 0x0 PUSH1 0x20 DUP3 DUP5 SUB SLT ISZERO PUSH2 0xDCD JUMPI PUSH2 0xDCC PUSH2 0xD55 JUMP JUMPDEST JUMPDEST PUSH1 0x0 PUSH2 0xDDB DUP5 DUP3 DUP6 ADD PUSH2 0xDA2 JUMP JUMPDEST SWAP2 POP POP SWAP3 SWAP2 POP POP JUMP JUMPDEST PUSH1 0x0 DUP2 ISZERO ISZERO SWAP1 POP SWAP2 SWAP1 POP JUMP JUMPDEST PUSH2 0xDF9 DUP2 PUSH2 0xDE4 JUMP JUMPDEST DUP3 MSTORE POP POP JUMP JUMPDEST PUSH1 0x0 PUSH1 0x20 DUP3 ADD SWAP1 POP PUSH2 0xE14 PUSH1 0x0 DUP4 ADD DUP5 PUSH2 0xDF0 JUMP JUMPDEST SWAP3 SWAP2 POP POP JUMP JUMPDEST PUSH1 0x0 PUSH20 0xFFFFFFFFFFFFFFFFFFFFFFFFFFFFFFFFFFFFFFFF DUP3 AND SWAP1 POP SWAP2 SWAP1 POP JUMP JUMPDEST PUSH1 0x0 PUSH2 0xE45 DUP3 PUSH2 0xE1A JUMP JUMPDEST SWAP1 POP SWAP2 SWAP1 POP JUMP JUMPDEST PUSH2 0xE55 DUP2 PUSH2 0xE3A JUMP JUMPDEST DUP2 EQ PUSH2 0xE60 JUMPI PUSH1 0x0 DUP1 REVERT JUMPDEST POP JUMP JUMPDEST PUSH1 0x0 DUP2 CALLDATALOAD SWAP1 POP PUSH2 0xE72 DUP2 PUSH2 0xE4C JUMP JUMPDEST SWAP3 SWAP2 POP POP JUMP JUMPDEST PUSH1 0x0 PUSH1 0x20 DUP3 DUP5 SUB SLT ISZERO PUSH2 0xE8E JUMPI PUSH2 0xE8D PUSH2 0xD55 JUMP JUMPDEST JUMPDEST PUSH1 0x0 PUSH2 0xE9C DUP5 DUP3 DUP6 ADD PUSH2 0xE63 JUMP JUMPDEST SWAP2 POP POP SWAP3 SWAP2 POP POP JUMP JUMPDEST PUSH1 0x0 DUP1 REVERT JUMPDEST PUSH1 0x0 DUP1 REVERT JUMPDEST PUSH1 0x0 DUP1 REVERT JUMPDEST PUSH1 0x0 DUP1 DUP4 PUSH1 0x1F DUP5 ADD SLT PUSH2 0xECA JUMPI PUSH2 0xEC9 PUSH2 0xEA5 JUMP JUMPDEST JUMPDEST DUP3 CALLDATALOAD SWAP1 POP PUSH8 0xFFFFFFFFFFFFFFFF DUP2 GT ISZERO PUSH2 0xEE7 JUMPI PUSH2 0xEE6 PUSH2 0xEAA JUMP JUMPDEST JUMPDEST PUSH1 0x20 DUP4 ADD SWAP2 POP DUP4 PUSH1 0x20 DUP3 MUL DUP4 ADD GT ISZERO PUSH2 0xF03 JUMPI PUSH2 0xF02 PUSH2 0xEAF JUMP JUMPDEST JUMPDEST SWAP3 POP SWAP3 SWAP1 POP JUMP JUMPDEST PUSH1 0x0 DUP1 PUSH1 0x20 DUP4 DUP6 SUB SLT ISZERO PUSH2 0xF21 JUMPI PUSH2 0xF20 PUSH2 0xD55 JUMP JUMPDEST JUMPDEST PUSH1 0x0 DUP4 ADD CALLDATALOAD PUSH8 0xFFFFFFFFFFFFFFFF DUP2 GT ISZERO PUSH2 0xF3F JUMPI PUSH2 0xF3E PUSH2 0xD5A JUMP JUMPDEST JUMPDEST PUSH2 0xF4B DUP6 DUP3 DUP7 ADD PUSH2 0xEB4 JUMP JUMPDEST SWAP3 POP SWAP3 POP POP SWAP3 POP SWAP3 SWAP1 POP JUMP JUMPDEST PUSH1 0x0 DUP2 SWAP1 POP SWAP2 SWAP1 POP JUMP JUMPDEST PUSH2 0xF6A DUP2 PUSH2 0xF57 JUMP JUMPDEST DUP2 EQ PUSH2 0xF75 JUMPI PUSH1 0x0 DUP1 REVERT JUMPDEST POP JUMP JUMPDEST PUSH1 0x0 DUP2 CALLDATALOAD SWAP1 POP PUSH2 0xF87 DUP2 PUSH2 0xF61 JUMP JUMPDEST SWAP3 SWAP2 POP POP JUMP JUMPDEST PUSH1 0x0 PUSH1 0x20 DUP3 DUP5 SUB SLT ISZERO PUSH2 0xFA3 JUMPI PUSH2 0xFA2 PUSH2 0xD55 JUMP JUMPDEST JUMPDEST PUSH1 0x0 PUSH2 0xFB1 DUP5 DUP3 DUP6 ADD PUSH2 0xF78 JUMP JUMPDEST SWAP2 POP POP SWAP3 SWAP2 POP POP JUMP JUMPDEST PUSH2 0xFC3 DUP2 PUSH2 0xF57 JUMP JUMPDEST DUP3 MSTORE POP POP JUMP JUMPDEST PUSH1 0x0 PUSH1 0x20 DUP3 ADD SWAP1 POP PUSH2 0xFDE PUSH1 0x0 DUP4 ADD DUP5 PUSH2 0xFBA JUMP JUMPDEST SWAP3 SWAP2 POP POP JUMP JUMPDEST PUSH1 0x0 DUP1 PUSH1 0x40 DUP4 DUP6 SUB SLT ISZERO PUSH2 0xFFB JUMPI PUSH2 0xFFA PUSH2 0xD55 JUMP JUMPDEST JUMPDEST PUSH1 0x0 PUSH2 0x1009 DUP6 DUP3 DUP7 ADD PUSH2 0xF78 JUMP JUMPDEST SWAP3 POP POP PUSH1 0x20 PUSH2 0x101A DUP6 DUP3 DUP7 ADD PUSH2 0xE63 JUMP JUMPDEST SWAP2 POP POP SWAP3 POP SWAP3 SWAP1 POP JUMP JUMPDEST PUSH32 0x4E487B7100000000000000000000000000000000000000000000000000000000 PUSH1 0x0 MSTORE PUSH1 0x32 PUSH1 0x4 MSTORE PUSH1 0x24 PUSH1 0x0 REVERT JUMPDEST PUSH32 0x4E487B7100000000000000000000000000000000000000000000000000000000 PUSH1 0x0 MSTORE PUSH1 0x11 PUSH1 0x4 MSTORE PUSH1 0x24 PUSH1 0x0 REVERT JUMPDEST PUSH1 0x0 DUP2 SWAP1 POP SWAP2 SWAP1 POP JUMP JUMPDEST PUSH1 0x0 PUSH2 0x1097 DUP3 PUSH2 0x1082 JUMP JUMPDEST SWAP2 POP PUSH32 0xFFFFFFFFFFFFFFFFFFFFFFFFFFFFFFFFFFFFFFFFFFFFFFFFFFFFFFFFFFFFFFFF DUP3 SUB PUSH2 0x10C9 JUMPI PUSH2 0x10C8 PUSH2 0x1053 JUMP JUMPDEST JUMPDEST PUSH1 0x1 DUP3 ADD SWAP1 POP SWAP2 SWAP1 POP JUMP JUMPDEST PUSH1 0x0 DUP3 DUP3 MSTORE PUSH1 0x20 DUP3 ADD SWAP1 POP SWAP3 SWAP2 POP POP JUMP JUMPDEST PUSH32 0x416363657373436F6E74726F6C3A2063616E206F6E6C792072656E6F756E6365 PUSH1 0x0 DUP3 ADD MSTORE PUSH32 0x20726F6C657320666F722073656C660000000000000000000000000000000000 PUSH1 0x20 DUP3 ADD MSTORE POP JUMP JUMPDEST PUSH1 0x0 PUSH2 0x1141 PUSH1 0x2F DUP4 PUSH2 0x10D4 JUMP JUMPDEST SWAP2 POP PUSH2 0x114C DUP3 PUSH2 0x10E5 JUMP JUMPDEST PUSH1 0x40 DUP3 ADD SWAP1 POP SWAP2 SWAP1 POP JUMP JUMPDEST PUSH1 0x0 PUSH1 0x20 DUP3 ADD SWAP1 POP DUP2 DUP2 SUB PUSH1 0x0 DUP4 ADD MSTORE PUSH2 0x1170 DUP2 PUSH2 0x1134 JUMP JUMPDEST SWAP1 POP SWAP2 SWAP1 POP JUMP JUMPDEST PUSH1 0x0 DUP2 SWAP1 POP SWAP3 SWAP2 POP POP JUMP JUMPDEST PUSH32 0x416363657373436F6E74726F6C3A206163636F756E7420000000000000000000 PUSH1 0x0 DUP3 ADD MSTORE POP JUMP JUMPDEST PUSH1 0x0 PUSH2 0x11B8 PUSH1 0x17 DUP4 PUSH2 0x1177 JUMP JUMPDEST SWAP2 POP PUSH2 0x11C3 DUP3 PUSH2 0x1182 JUMP JUMPDEST PUSH1 0x17 DUP3 ADD SWAP1 POP SWAP2 SWAP1 POP JUMP JUMPDEST PUSH1 0x0 DUP2 MLOAD SWAP1 POP SWAP2 SWAP1 POP JUMP JUMPDEST PUSH1 0x0 JUMPDEST DUP4 DUP2 LT ISZERO PUSH2 0x11F7 JUMPI DUP1 DUP3 ADD MLOAD DUP2 DUP5 ADD MSTORE PUSH1 0x20 DUP2 ADD SWAP1 POP PUSH2 0x11DC JUMP JUMPDEST PUSH1 0x0 DUP5 DUP5 ADD MSTORE POP POP POP POP JUMP JUMPDEST PUSH1 0x0 PUSH2 0x120E DUP3 PUSH2 0x11CE JUMP JUMPDEST PUSH2 0x1218 DUP2 DUP6 PUSH2 0x1177 JUMP JUMPDEST SWAP4 POP PUSH2 0x1228 DUP2 DUP6 PUSH1 0x20 DUP7 ADD PUSH2 0x11D9 JUMP JUMPDEST DUP1 DUP5 ADD SWAP2 POP POP SWAP3 SWAP2 POP POP JUMP JUMPDEST PUSH32 0x206973206D697373696E6720726F6C6520000000000000000000000000000000 PUSH1 0x0 DUP3 ADD MSTORE POP JUMP JUMPDEST PUSH1 0x0 PUSH2 0x126A PUSH1 0x11 DUP4 PUSH2 0x1177 JUMP JUMPDEST SWAP2 POP PUSH2 0x1275 DUP3 PUSH2 0x1234 JUMP JUMPDEST PUSH1 0x11 DUP3 ADD SWAP1 POP SWAP2 SWAP1 POP JUMP JUMPDEST PUSH1 0x0 PUSH2 0x128B DUP3 PUSH2 0x11AB JUMP JUMPDEST SWAP2 POP PUSH2 0x1297 DUP3 DUP6 PUSH2 0x1203 JUMP JUMPDEST SWAP2 POP PUSH2 0x12A2 DUP3 PUSH2 0x125D JUMP JUMPDEST SWAP2 POP PUSH2 0x12AE DUP3 DUP5 PUSH2 0x1203 JUMP JUMPDEST SWAP2 POP DUP2 SWAP1 POP SWAP4 SWAP3 POP POP POP JUMP JUMPDEST PUSH1 0x0 PUSH1 0x1F NOT PUSH1 0x1F DUP4 ADD AND SWAP1 POP SWAP2 SWAP1 POP JUMP JUMPDEST PUSH1 0x0 PUSH2 0x12D6 DUP3 PUSH2 0x11CE JUMP JUMPDEST PUSH2 0x12E0 DUP2 DUP6 PUSH2 0x10D4 JUMP JUMPDEST SWAP4 POP PUSH2 0x12F0 DUP2 DUP6 PUSH1 0x20 DUP7 ADD PUSH2 0x11D9 JUMP JUMPDEST PUSH2 0x12F9 DUP2 PUSH2 0x12BA JUMP JUMPDEST DUP5 ADD SWAP2 POP POP SWAP3 SWAP2 POP POP JUMP JUMPDEST PUSH1 0x0 PUSH1 0x20 DUP3 ADD SWAP1 POP DUP2 DUP2 SUB PUSH1 0x0 DUP4 ADD MSTORE PUSH2 0x131E DUP2 DUP5 PUSH2 0x12CB JUMP JUMPDEST SWAP1 POP SWAP3 SWAP2 POP POP JUMP JUMPDEST PUSH1 0x0 PUSH2 0x1331 DUP3 PUSH2 0x1082 JUMP JUMPDEST SWAP2 POP PUSH2 0x133C DUP4 PUSH2 0x1082 JUMP JUMPDEST SWAP3 POP DUP3 DUP3 MUL PUSH2 0x134A DUP2 PUSH2 0x1082 JUMP JUMPDEST SWAP2 POP DUP3 DUP3 DIV DUP5 EQ DUP4 ISZERO OR PUSH2 0x1361 JUMPI PUSH2 0x1360 PUSH2 0x1053 JUMP JUMPDEST JUMPDEST POP SWAP3 SWAP2 POP POP JUMP JUMPDEST PUSH1 0x0 PUSH2 0x1373 DUP3 PUSH2 0x1082 JUMP JUMPDEST SWAP2 POP PUSH2 0x137E DUP4 PUSH2 0x1082 JUMP JUMPDEST SWAP3 POP DUP3 DUP3 ADD SWAP1 POP DUP1 DUP3 GT ISZERO PUSH2 0x1396 JUMPI PUSH2 0x1395 PUSH2 0x1053 JUMP JUMPDEST JUMPDEST SWAP3 SWAP2 POP POP JUMP JUMPDEST PUSH32 0x4E487B7100000000000000000000000000000000000000000000000000000000 PUSH1 0x0 MSTORE PUSH1 0x41 PUSH1 0x4 MSTORE PUSH1 0x24 PUSH1 0x0 REVERT JUMPDEST PUSH1 0x0 PUSH2 0x13D6 DUP3 PUSH2 0x1082 JUMP JUMPDEST SWAP2 POP PUSH1 0x0 DUP3 SUB PUSH2 0x13E9 JUMPI PUSH2 0x13E8 PUSH2 0x1053 JUMP JUMPDEST JUMPDEST PUSH1 0x1 DUP3 SUB SWAP1 POP SWAP2 SWAP1 POP JUMP JUMPDEST PUSH32 0x537472696E67733A20686578206C656E67746820696E73756666696369656E74 PUSH1 0x0 DUP3 ADD MSTORE POP JUMP JUMPDEST PUSH1 0x0 PUSH2 0x142A PUSH1 0x20 DUP4 PUSH2 0x10D4 JUMP JUMPDEST SWAP2 POP PUSH2 0x1435 DUP3 PUSH2 0x13F4 JUMP JUMPDEST PUSH1 0x20 DUP3 ADD SWAP1 POP SWAP2 SWAP1 POP JUMP JUMPDEST PUSH1 0x0 PUSH1 0x20 DUP3 ADD SWAP1 POP DUP2 DUP2 SUB PUSH1 0x0 DUP4 ADD MSTORE PUSH2 0x1459 DUP2 PUSH2 0x141D JUMP JUMPDEST SWAP1 POP SWAP2 SWAP1 POP JUMP INVALID LOG2 PUSH5 0x6970667358 0x22 SLT KECCAK256 0xC4 0xCF ADD 0xB8 PUSH30 0x7B5C0C080A81474CC31F444E0FE02E91009C849F34A4F2C4F02CB264736F PUSH13 0x63430008120033000000000000 "
				},
				"gasEstimates": {
					"creation": {
						"codeDepositCost": "1054000",
						"executionCost": "infinite",
						"totalCost": "infinite"
					},
					"external": {
						"DEFAULT_ADMIN_ROLE()": "357",
						"addToWhitelist(address)": "infinite",
						"areWhitelisted(address[])": "infinite",
						"bulkAddToWhitelist(address[])": "infinite",
						"bulkRemoveFromWhitelist(address[])": "infinite",
						"getRoleAdmin(bytes32)": "infinite",
						"grantRole(bytes32,address)": "infinite",
						"grantRoleAdmin(address)": "infinite",
						"hasRole(bytes32,address)": "3207",
						"isWhitelisted(address)": "2972",
						"removeFromWhitelist(address)": "infinite",
						"renounceRole(bytes32,address)": "infinite",
						"revokeRole(bytes32,address)": "infinite",
						"supportsInterface(bytes4)": "751",
						"whitelist(address)": "2934"
					},
					"internal": {
						"_removeWhitelist(address)": "25538",
						"_whitelist(address)": "25538"
					}
				},
				"methodIdentifiers": {
					"DEFAULT_ADMIN_ROLE()": "a217fddf",
					"addToWhitelist(address)": "e43252d7",
					"areWhitelisted(address[])": "1c84bfc2",
					"bulkAddToWhitelist(address[])": "6c79af10",
					"bulkRemoveFromWhitelist(address[])": "ab4bca64",
					"getRoleAdmin(bytes32)": "248a9ca3",
					"grantRole(bytes32,address)": "2f2ff15d",
					"grantRoleAdmin(address)": "0a84246d",
					"hasRole(bytes32,address)": "91d14854",
					"isWhitelisted(address)": "3af32abf",
					"removeFromWhitelist(address)": "8ab1d681",
					"renounceRole(bytes32,address)": "36568abe",
					"revokeRole(bytes32,address)": "d547741f",
					"supportsInterface(bytes4)": "01ffc9a7",
					"whitelist(address)": "9b19251a"
				}
			},
			"storageLayout": {
				"storage": [
					{
						"astId": 24,
						"contract": "contracts/Registry.sol:Registry",
						"label": "_roles",
						"offset": 0,
						"slot": "0",
						"type": "t_mapping(t_bytes32,t_struct(RoleData)19_storage)"
					},
					{
						"astId": 1609,
						"contract": "contracts/Registry.sol:Registry",
						"label": "whitelist",
						"offset": 0,
						"slot": "1",
						"type": "t_mapping(t_address,t_bool)"
					}
				],
				"types": {
					"t_address": {
						"encoding": "inplace",
						"label": "address",
						"numberOfBytes": "20"
					},
					"t_bool": {
						"encoding": "inplace",
						"label": "bool",
						"numberOfBytes": "1"
					},
					"t_bytes32": {
						"encoding": "inplace",
						"label": "bytes32",
						"numberOfBytes": "32"
					},
					"t_mapping(t_address,t_bool)": {
						"encoding": "mapping",
						"key": "t_address",
						"label": "mapping(address => bool)",
						"numberOfBytes": "32",
						"value": "t_bool"
					},
					"t_mapping(t_bytes32,t_struct(RoleData)19_storage)": {
						"encoding": "mapping",
						"key": "t_bytes32",
						"label": "mapping(bytes32 => struct AccessControl.RoleData)",
						"numberOfBytes": "32",
						"value": "t_struct(RoleData)19_storage"
					},
					"t_struct(RoleData)19_storage": {
						"encoding": "inplace",
						"label": "struct AccessControl.RoleData",
						"members": [
							{
								"astId": 16,
								"contract": "contracts/Registry.sol:Registry",
								"label": "members",
								"offset": 0,
								"slot": "0",
								"type": "t_mapping(t_address,t_bool)"
							},
							{
								"astId": 18,
								"contract": "contracts/Registry.sol:Registry",
								"label": "adminRole",
								"offset": 0,
								"slot": "1",
								"type": "t_bytes32"
							}
						],
						"numberOfBytes": "64"
					}
				}
			},
			"userdoc": {
				"kind": "user",
				"methods": {
					"addToWhitelist(address)": {
						"notice": "This function is used to add addresses to the whitelist."
					},
					"areWhitelisted(address[])": {
						"notice": "This function is used to check if an array of addresses are whitelisted."
					},
					"bulkAddToWhitelist(address[])": {
						"notice": "This function is used to bulk add addresses to the whitelist."
					},
					"bulkRemoveFromWhitelist(address[])": {
						"notice": "This function is used to bulk remove addresses from the whitelist."
					},
					"grantRoleAdmin(address)": {
						"notice": "This function is used to grant Default admin role"
					},
					"isWhitelisted(address)": {
						"notice": "This function is used to check if an address is whitelisted."
					},
					"removeFromWhitelist(address)": {
						"notice": "This function is used to remove addresses from the whitelist."
					}
				},
				"notice": "This contract is used to manage the whitelist of addresses that can be used across the Chibarihill program.",
				"version": 1
			}
		}
	}
}